:10000000A1C0C5C0C4C0C3C0C2C044C2C0C0BFC07C
:10001000BEC0BDC089C2BBC0BAC0B9C0B8C0004074
:100020007A10F35A00A0724E18090010A5D4E80007
:1000300000E87648170000E40B54020000CA9A3B1F
:10004000000000E1F50500008096980000004042A5
:100050000F000000A0860100000010270000000033
:10006000E803000000006400000000000A00000037
:1000700000000100000000002C76D888DC674F08E3
:1000800023DFC1DFAE59E1B1B796E5E3E453C63AE9
:10009000E651997696E8E6C28426EB898C9B62ED60
:1000A000407C6FFCEFBC9C9F40F2BAA56FA5F4901A
:1000B000055A2AF75C936B6CF9676DC11BFCE0E491
:1000C0000D47FEF520E6B500D0ED902E03009435E7
:1000D00077050080841E080000204E0A000000C83A
:1000E0000C333333330F986E12831141EF8D21148B
:1000F000893BE65516CFFEE6DB18D1844B381BF75B
:100100007C1D901DA4BBE424203284725E228100F9
:10011000C9F124ECA1E53D270000000037000000F4
:100120000000380002020202020202020202010280
:100130000408102020041008010200000400000040
:1001400000002A0411241FBECFE5D2E0DEBFCDBFE0
:1001500020E0A8EDB0E001C01D92A13FB207E1F799
:1001600010E0A0E6B0E0EAE9F0E102C005900D92EF
:10017000A83DB107D9F710E0C2EAD0E003C021974B
:10018000FE0171D7C13AD107D1F73ED284C738CF2B
:10019000823081F018F4813051F00895833019F0E5
:1001A000843009F008958CB58F7D8CBD08958AB593
:1001B0008F7702C08AB58F7D8ABD08951F93CF9334
:1001C000DF93282F30E0F901E85CFE4F8491F901BC
:1001D000E25DFE4FD491F901EC5DFE4FC491CC235A
:1001E000C1F0162F8111D4DFEC2FF0E0EE0FFF1FCE
:1001F000E25EFE4FA591B4918FB7F894111105C03E
:100200009C91ED2FE095E92302C0EC91ED2BEC934E
:100210008FBFDF91CF911F910895CF93DF932091EE
:10022000EF002111FCCF2EE020936A002AE12093F9
:100230006B00DC0140E050E080E39AE7BD01ED9106
:100240002E2F2827322F3295307F232730E0D22FD0
:10025000CC27892F99278C2B9D2BE901F4E0D5958C
:10026000C795FA95E1F78C279D27C3E0220F331F2E
:10027000CA95E1F782279327EA01CE59DF4FF0E0D4
:1002800024E0F595E7952A95E1F7EC54FF4F20819E
:100290002A87FB012081E22FEF70F0E0EC54FF4F42
:1002A00020812B874E5F5F4F4632510539F680958E
:1002B0009095FC0124E0F695E7952A95E1F7EF701B
:1002C000FF27EC54FF4F208120939200FC01EF7038
:1002D000FF27EC54FF4F208120939300FC01EF2F68
:1002E000FF27E295EF70EC54FF4F2081209394009C
:1002F000E92FFF27EF70FF27EC54FF4F8081809399
:10030000950084E38093F0001092EE001092ED00CF
:100310001092EC006091EB00C1E06C2780916100CD
:100320004DDFC093EF0081E0DF91CF910895CF932F
:10033000DF9390E0FC01E25DFE4F2491FC01EC5D57
:10034000FE4F8491882361F190E0880F991FFC0192
:10035000E85EFE4FC591D491FC01E25EFE4FA5918F
:10036000B491611109C09FB7F894888120958223C8
:100370008883EC912E230BC0623061F49FB7F89410
:100380003881822F809583238883EC912E2B2C93A8
:100390009FBF06C08FB7F894E8812E2B28838FBFAC
:1003A000DF91CF9108953FB7F8948091E10090914B
:1003B000E200A091E300B091E40022B708B601FE8C
:1003C00005C02F3F19F00196A11DB11D3FBFBA2FE7
:1003D000A92F982F8827820F911DA11DB11DBC0147
:1003E000CD0146E0660F771F881F991F4A95D1F708
:1003F0000895CF92DF92EF92FF920F931F93CF93C6
:10040000DF93CDB7DEB76A970FB6F894DEBF0FBEA5
:10041000CDBF6B017C0188E0E0EDF0E0DE0153969A
:1004200001900D928A95E1F764EC70E0CE0101969F
:100430002BD667EC70E0CE0101961BD66AEC70E01B
:10044000CE01019616D68E010D5E1F4F22E047E0C9
:10045000C701B60109D2B801CE0101960AD66DECEA
:1004600070E0CE01019605D6CE010196D6DE8091D0
:10047000EF008111FCCF6A960FB6F894DEBF0FBE75
:10048000CDBFDF91CF911F910F91FF90EF90DF9043
:10049000CF9008951F920F920FB60F9211242F93B1
:1004A0003F938F939F93AF93BF938091DD00909183
:1004B000DE00A091DF00B091E0003091DC0020E38D
:1004C000230F2D3720F44096A11DB11D05C023EB4D
:1004D000230F4196A11DB11D2093DC008093DD0008
:1004E0009093DE00A093DF00B093E0008091E100E4
:1004F0009091E200A091E300B091E4000196A11D6B
:10050000B11D8093E1009093E200A093E300B093CB
:10051000E400BF91AF919F918F913F912F910F90E8
:100520000FBE0F901F9018951F920F920FB60F924B
:1005300011242F933F934F935F936F937F938F93E8
:100540009F93AF93BF93CF93DF93EF93FF938091EC
:10055000EF00882311F18091EC0091E0980F9093C7
:10056000EC0081111AC0C091EE008091F000C81714
:10057000D8F06091EB008091610020DE60E0809116
:1005800060001CDE1092EF008091DA009091DB0099
:1005900001969093DB008093DA008091EC00883024
:1005A00000F11092EC001DC0EC2FF0E0EE59FF4F6F
:1005B00090818091ED00D1E0D80FD093ED0061E003
:1005C00070E001C0660F8A95EAF7692380916000A8
:1005D000F5DDD63010F31092ED00CF5FC093EE0042
:1005E000DCCFFF91EF91DF91CF91BF91AF919F91C0
:1005F0008F917F916F915F914F913F912F910F90CC
:100600000FBE0F901F901895CF93DF93CDB7DEB735
:100610006A970FB6F894DEBF0FBECDBF78948AB547
:1006200082608ABD8AB581608ABD83B7826083BFDC
:1006300083B7816083BF89B7826089BF80B78260DA
:1006400080BF3298319A309A379A8CB580648CBDCD
:100650008091E600809361001092EB008091E500AC
:10066000809360006091E7007091E8008EE0E6EA18
:10067000F0E0DE01119601900D928A95E1F7611587
:10068000710509F469C080E090E05BD39B01AC0187
:1006900060E070E080E89FE34DD420E030E040E08F
:1006A0005EE38CD32B013C017E0123E0E20EF11CC2
:1006B00011E0F701819191917F01BC0180E090E010
:1006C00040D39B01AC0160E074E284E799E432D44A
:1006D0009B01AC0160E070E080E89FE32BD49B01BC
:1006E000AC01C301B20126D48DD44B015C01F2E010
:1006F0008F1A9108A108B1082DEF82169104A10468
:10070000B10408F4A3C01F5F173099F66230710579
:100710008105910508F16F3F71058105910509F08B
:10072000D8F41123C9F01ABC22E02ABD13BE13BFAE
:1007300069BD89B7806189BF61E080916000F7DDA4
:1007400060E08BE0F4DD1091610061E0812FEFDD6E
:100750006091EB00812F32DD98E0992E20E0A22EEF
:1007600020E0B22E60E070E080E89FE342DEE0ED42
:10077000F0E0DE015396892D01900D928A95E1F704
:1007800064EC70E0CE0101967FD467EC70E0CE019E
:1007900001966FD46BEC70E0CE0101966AD46AECDE
:1007A00070E0CE01019665D48E010D5E1F4F22E0F0
:1007B00047E060E070E0CB0157D0B801CE01019670
:1007C00058D466ED70E0CE01019653D466ED70E02A
:1007D000CE0101964ED46DEC70E0CE01019649D465
:1007E000CE0101961ADD8091EF008111FCCF60E00F
:1007F00070E0CB01FEDDD7DD2B013C0188E8C82E7F
:1008000083E1D82EE12CF12CCEDDDC01CB01841963
:100810009509A609B709883E9340A105B10558F08E
:1008200081E0C81AD108E108F108E8EE4E0EE3E0D5
:100830005E1E611C711CC114D104E104F10421F796
:10084000A114B10409F48ECFDBDB8CCF163009F094
:1008500068CF82CFE5EEF0E0108282E3818384EFFF
:1008600091E0938382830895EF920F931F93CF9328
:10087000DF93E80147FD02C034E001C034E1E42F1A
:10088000440FFF0BF7FF03C0F195E195F109E32E4B
:10089000022F2E2FAE0107D0CE01DF91CF911F91F5
:1008A0000F91EF9008958F929F92BF92CF92DF9217
:1008B000EF92FF920F931F93CF93DF93CDB7DEB7E5
:1008C00029970FB6F894DEBF0FBECDBF6A01122F75
:1008D000B02E2BE3201720F0FF24F394F00E02C07B
:1008E0002CE3F22E0F2D27E0AE014F5F5F4F51D169
:1008F000AC01E9818E2F8970813031F0E1FC06C0B6
:10090000E0FE06C030E205C03DE203C03BE201C0AC
:1009100030E0FE2DF071E3FF3CC0311102C083E0F6
:1009200001C084E0811718F4212F281B01C020E0AA
:10093000F1110BC0F601822F90E2882319F09193F8
:100940008150FBCFC20ED11C20E0332329F0D60109
:100950003C93F60131966F01C6010396E2FE0AC090
:100960003EE4D6013C9341E411964C9311971296C4
:100970003C9306C03EE6F601308341E64183328374
:10098000FC01322F40E2332309F442C0419331503D
:10099000FACFE2FF44C0311102C083E001C084E01D
:1009A000811718F4212F281B01C020E0F1110BC082
:1009B000F601822F90E2882319F091938150FBCFAA
:1009C000C20ED11C20E0332329F0D6013C93F6015E
:1009D00031966F01C6010396E2FE0BC039E4D601E1
:1009E0003C933EE411963C93119736E412963C9367
:1009F00007C039E6F60130833EE6318336E63283BE
:100A0000FC01322F40E2332319F041933150FBCFE8
:100A1000FC01E20FF11D10828EEF9FEFA8C001E0F4
:100A2000311101C000E0602F70E0141615061CF4AF
:100A3000CA01019602C081E090E0860F971FBB209B
:100A400029F06B2D70E06F5F7F4F02C060E070E0B7
:100A5000860F971F612F70E0861797071CF4212FD0
:100A6000281B01C020E08E2D887169F4B601822F09
:100A700090E2882329F0DB019D93BD018150F9CFDD
:100A8000C20ED11C20E0002329F0D6013C93C60100
:100A900001966C01F1110BC0D601822F90E38823DF
:100AA00019F09D938150FBCFC20ED11C20E09F2DE9
:100AB000940F3A81AE2FA071FA2EE4FF03C03133B8
:100AC00009F49150191624F4993018F098E001C0F7
:100AD00091E0BA0157FF02C060E070E08EE2E82EBC
:100AE0004A01891A91080B2D10E011950195110901
:100AF0006F3FBFEF7B0729F4F601E082C601019644
:100B00006C014617570774F0861697065CF4FA01D5
:100B1000E61BF70BA1E0B0E0AC0FBD1FEA0FFB1F17
:100B2000818101C080E361507109F601319660173F
:100B3000710724F0D6018C936F01DACF6417750723
:100B400039F4363320F4353319F4F11001C081E360
:100B5000D6018C93DF01822F90E2882319F09D93B8
:100B60008150FBCFE20FF11D108280E090E02996CA
:100B70000FB6F894DEBF0FBECDBFDF91CF911F91AE
:100B80000F91FF90EF90DF90CF90BF909F908F904C
:100B90000895283008F027E03327DA01990F311D36
:100BA00087FD916000966105710539F432602E5F12
:100BB0003D9330E32A95E1F708959F3F30F0803868
:100BC0007105610509F03C5F3C5F3D93913008F091
:100BD0008068911DDF93CF931F930F93FF92EF9245
:100BE000192F987F9695E92F96959695E90FFF27EF
:100BF000E858FF4F99273327EE24FF24A701E70188
:100C000005900894079428F4360FE71EF81E491F34
:100C1000511D660F771F881F991F0694A1F7059035
:100C2000079428F4E70EF81E491F561FC11D770FC1
:100C3000881F991F661F0694A1F70590079428F452
:100C4000F80E491F561FC71FD11D880F991F661F19
:100C5000771F0694A1F70590079420F4490F561FBB
:100C6000C71FD81F990F661F771F881F0694A9F703
:100C700084911095177041F0D695C7955795479573
:100C8000F794E7941A95C1F7EEE1F0E068941590B7
:100C9000159135916591959105907FE27395E118D5
:100CA000F10A430B560BC90BD009C0F7E10CF11E3A
:100CB000431F561FC91FD01D7EF4703311F48A954F
:100CC000E6CFE894015030F0080F0AF4002702172D
:100CD00008F4202F2395022F7A3328F079E37D93AF
:100CE0002A95E9F710C07D932A9589F60694979581
:100CF0006795379517951794E118F10A430B560B32
:100D0000C90BD00998F023957E9173957A3308F03A
:100D100070E37C932013B8F77E9170617D9330F07F
:100D2000839571E37D9370E32A95E1F71124EF90A9
:100D3000FF900F911F91CF91DF91992787FD90959B
:100D40000895E89409C097FB3EF4909580957095BE
:100D500061957F4F8F4F9F4F9923A9F0F92F96E907
:100D6000BB279395F695879577956795B795F1117C
:100D7000F8CFFAF4BB0F11F460FF1BC06F5F7F4F19
:100D80008F4F9F4F16C0882311F096E911C077232B
:100D900021F09EE8872F762F05C0662371F096E834
:100DA000862F70E060E02AF09A95660F771F881F03
:100DB000DAF7880F9695879597F908950AD080C03D
:100DC00071D028F076D018F0952309F062C067C082
:100DD000ABC087D0A8F39923D9F35523C9F3950F56
:100DE00050E0551FAA27EE27FF27BB2700240894B1
:100DF000679520F4E20FF31FB41F0A1E220F331F62
:100E0000441FAA1F6695A9F7779530F4F30FB41F16
:100E10000A1E121E08F46395330F441FAA1F221FD7
:100E2000769599F7879520F4B40F0A1E121E631F5A
:100E3000440FAA1F221F331F8695A9F7862F712DF5
:100E4000602D11249F5750408AF0E1F088234AF02A
:100E5000EE0FFF1FBB1F661F771F881F915050406A
:100E6000A9F79E3F510570F014C05EC05F3FECF3E0
:100E7000983EDCF3869577956795B795F795E79556
:100E80009F5FC1F7FE2B880F911D9695879597F967
:100E9000089597F99F6780E870E060E008959FEFFC
:100EA00080EC089500240A94161617061806090601
:100EB000089500240A9412161306140605060895D0
:100EC000092E0394000C11F4882352F0BB0F40F458
:100ED000BF2B11F460FF04C06F5F7F4F8F4F9F4F98
:100EE000089557FD9058440F551F59F05F3F71F01A
:100EF0004795880F97FB991F61F09F3F79F0879581
:100F00000895121613061406551FF2CF4695F1DF09
:100F100008C0161617061806991FF1CF8695710599
:100F2000610508940895E894BB2766277727CB01CD
:100F300097F908950CD0C4CFBCDF40F0B3DF30F098
:100F400021F45F3F19F0A5CF5111EECFA8CFC9DF33
:100F500098F39923C9F35523B1F3951B550BBB2780
:100F6000AA2762177307840738F09F5F5F4F220F2D
:100F7000331F441FAA1FA9F333D00E2E3AF0E0E826
:100F800030D091505040E695001CCAF729D0FE2F72
:100F900027D0660F771F881FBB1F26173707480704
:100FA000AB07B0E809F0BB0B802DBF01FF279358BA
:100FB0005F4F2AF09E3F510568F06BCFB5CF5F3F82
:100FC000ECF3983EDCF3869577956795B795F795A2
:100FD0009F5FC9F7880F911D9695879597F908959A
:100FE000E1E0660F771F881FBB1F62177307840736
:100FF000BA0720F0621B730B840BBA0BEE1F88F745
:10100000E095089504D06894B1118ECF089571DFF2
:1010100088F09F5790F0B92F9927B751A0F0D1F0E1
:10102000660F771F881F991F1AF0BA95C9F712C06B
:10103000B13081F078DFB1E0089575CF672F782F58
:101040008827B85F39F0B93FCCF3869577956795D7
:10105000B395D9F73EF490958095709561957F4F43
:101060008F4F9F4F0895EE0FFF1F0590F491E02DD5
:101070000994FB01DC010D900020E9F71197019024
:101080000D920020E1F70895FB01DC0101900D9223
:0A1090000020E1F70895F894FFCF67
:10109A000C0A2A2A2A2A2A2A382C000000000000D0
:1010AA000000000000000000000000000000000036
:1010BA000000000000000000000000000000000026
:1010CA000000000000000000000000000000000016
:1010DA0000000000000000000100080040000001BC
:1010EA000004050D0D0E131516191A1C23252629A1
:1010FA002A2C32342A2300474F00585800232A004A
:08110A00303030302E3030008F
:00000001FF
