:100000000C94DA000C9402010C9402010C9402018D
:100010000C9402010C9402010C9402010C94020154
:100020000C9402010C9402010C9402010C945104F2
:100030000C9402010C9402010C9402010C94020134
:100040000C9407040C9402010C94D5030C94AF0398
:100050000C9402010C9402010C9402010C94020114
:100060000C9402010C94020100407A10F35A00A093
:10007000724E18090010A5D4E80000E87648170071
:1000800000E40B54020000CA9A3B000000E1F505B1
:10009000000080969800000040420F000000A086FB
:1000A00001000000102700000000E803000000002D
:1000B0006400000000000A000000000001000000D1
:1000C00000002C76D888DC674F0823DFC1DFAE59EB
:1000D000E1B1B796E5E3E453C63AE651997696E87E
:1000E000E6C28426EB898C9B62ED407C6FFCEFBC02
:1000F0009C9F40F2BAA56FA5F490055A2AF75C932D
:100100006B6CF9676DC11BFCE0E40D47FEF520E662
:10011000B500D0ED902E0300943577050080841E45
:10012000080000204E0A000000C80C333333330FA0
:10013000986E12831141EF8D2114893BE65516CF3D
:10014000FEE6DB18D1844B381BF77C1D901DA4BB49
:10015000E424203284725E228100C9F124ECA1E5FE
:100160003D2700000000240027002A0000000000B6
:10017000250028002B0004040404040404040202E3
:100180000202020203030303030301020408102016
:100190004080010204081020010204081020000021
:1001A0000008000201000003040700000000000036
:1001B0000000C40411241FBECFEFD8E0DEBFCDBFC6
:1001C00022E0AAE8B1E001C01D92A034B207E1F735
:1001D00011E0A0E0B1E0EAECF5E102C005900D927B
:1001E000AA38B107D9F710E0CAEDD0E004C02197D2
:1001F000FE010E94C60AC93DD107C9F70E94FB044F
:100200000C94E30A0C940000CF92DF92EF92FF92DD
:100210000F931F93CF93DF936C017A018B01C0E0A2
:10022000D0E0CE15DF0589F0D8016D918D01D601A2
:10023000ED91FC910190F081E02DC6010995892B8B
:1002400011F47E0102C02196ECCFC701DF91CF915E
:100250001F910F91FF90EF90DF90CF900895089538
:1002600080E090E00895FC01538D448D252F30E00F
:10027000842F90E0821B930B541710F0CF960895B3
:1002800001970895FC01918D828D981761F0828D00
:10029000DF01A80FB11D5D968C91928D9F5F9F73BA
:1002A000928F90E008958FEF9FEF0895FC01918D5C
:1002B000828D981731F0828DE80FF11D858D90E0C9
:1002C00008958FEF9FEF0895FC01918D228D892F66
:1002D00090E0805C9F4F821B91098F73992708954E
:1002E0008DE991E00E94640121E0892B09F420E06E
:1002F000822F0895FC01848DDF01A80FB11DA35A40
:10030000BF4F2C91848D90E001968F739927848F35
:10031000A689B7892C93A089B1898C9180648C932C
:10032000938D848D981306C00288F389E02D808117
:100330008F7D80830895EF92FF920F931F93CF9349
:10034000DF93EC0181E0888F9B8D8C8D981305C025
:10035000E889F989808185FD24C0F62E0B8D10E097
:100360000F5F1F4F0F731127E02E8C8DE8120CC00A
:100370000FB607FCFACFE889F989808185FFF5CFB0
:10038000CE010E947A01F1CF8B8DFE01E80FF11DA5
:10039000E35AFF4FF0820B8FEA89FB8980818062EC
:1003A00007C0EE89FF896083E889F98980818064CC
:1003B000808381E090E0DF91CF911F910F91FF90BA
:1003C000EF900895CF93DF93EC01888D8823C9F0D7
:1003D000EA89FB89808185FD05C0A889B9898C914E
:1003E00086FD0FC00FB607FCF5CF808185FFF2CFE9
:1003F000A889B9898C9185FFEDCFCE010E947A0141
:10040000E7CFDF91CF91089580E090E0892B29F02C
:100410000E94700181110C9400000895833081F0D6
:1004200028F4813099F08230A1F008958730A9F046
:100430008830B9F08430D1F4809180008F7D03C082
:10044000809180008F7780938000089584B58F77A6
:1004500002C084B58F7D84BD08958091B0008F77F0
:1004600003C08091B0008F7D8093B00008951F93EA
:10047000CF93DF93282F30E0F901E256FE4F8491AD
:10048000F901E657FE4FD491F901EA58FE4FC491A5
:10049000CC23C9F0162F81110E940E02EC2FF0E040
:1004A000EE0FFF1FE459FE4FA591B4918FB7F8945A
:1004B000111105C09C91ED2FE095E92302C0EC914C
:1004C000ED2BEC938FBFDF91CF911F910895CF93C8
:1004D000DF9320919B012111FCCF2EE020930A0194
:1004E0002AE120930B01DC0140E050E080E39AE731
:1004F000BD01ED912E2F282730E1239FE00111242B
:10050000C2272C2F30E0D22FCC27892F99278C2B74
:100510009D2BE901F4E0D595C795FA95E1F78C2775
:100520009D27C3E0220F331FCA95E1F78227932747
:10053000EA01CE5FDE4FF0E024E0F595E7952A95DD
:10054000E1F7EC5AFE4F20812A87FB012081E22F40
:10055000EF70F0E0EC5AFE4F20812B874E5F5F4F2B
:100560004632510529F680959095FC0124E0F695D8
:10057000E7952A95E1F7EF70FF27EC5AFE4F2081AF
:1005800020933201FC01EF70FF27EC5AFE4F2081CF
:1005900020933301FC01EF2FFF27E295EF70EC5A17
:1005A000FE4F208120933401E92FFF27EF70FF27B2
:1005B000EC5AFE4F80818093350184E380939C0147
:1005C00010929A01109299011092980160919701EE
:1005D000C1E06C27809101010E943702C0939B010A
:1005E00081E0DF91CF910895CF93DF9390E0FC01FC
:1005F000E657FE4F2491FC01EA58FE4F8491882370
:1006000061F190E0880F991FFC01EE59FE4FC591F2
:10061000D491FC01E459FE4FA591B491611109C038
:100620009FB7F8948881209582238883EC912E23AC
:100630000BC0623061F49FB7F8943881822F8095A7
:1006400083238883EC912E2B2C939FBF06C08FB7FA
:10065000F894E8812E2B28838FBFDF91CF910895E6
:100660003FB7F8948091930190919401A0919501E6
:10067000B091960126B5A89B05C02F3F19F00196B1
:10068000A11DB11D3FBFBA2FA92F982F8827820F18
:10069000911DA11DB11DBC01CD0142E0660F771F68
:1006A000881F991F4A95D1F70895CF92DF92EF9254
:1006B000FF920F931F93CF93DF93CDB7DEB76A9767
:1006C0000FB6F894DEBF0FBECDBF6B017C0188E092
:1006D000E2E8F1E0DE01539601900D928A95E1F790
:1006E00066E771E0CE0101960E94DC0A69E771E0DD
:1006F000CE0101960E94D10A6CE771E0CE0101960D
:100700000E94D10A8E010D5E1F4F22E047E0C70113
:10071000B6010E949D06B801CE0101960E94D10A41
:100720006FE771E0CE0101960E94D10ACE010196D9
:100730000E94670280919B018111FCCF6A960FB6DF
:10074000F894DEBF0FBECDBFDF91CF911F910F9107
:10075000FF90EF90DF90CF9008950E94CC0A1F92F7
:100760000F920FB60F9211242F933F934F935F93E5
:100770006F937F938F939F93AF93BF93EF93FF9369
:100780008DE991E00E947A01FF91EF91BF91AF91C5
:100790009F918F917F916F915F914F913F912F9199
:1007A0000F900FBE0F901F9018951F920F920FB6CB
:1007B0000F9211242F938F939F93EF93FF93E091C8
:1007C000AD01F091AE018081E091B301F091B401EF
:1007D00082FD12C090818091B6018F5F8F7320914E
:1007E000B701821751F0E091B601F0E0E356FE4FF9
:1007F000958F8093B60101C08081FF91EF919F9109
:100800008F912F910F900FBE0F901F9018951F92F0
:100810000F920FB60F9211242F933F938F939F93B4
:10082000AF93BF9380918F0190919001A09191011E
:10083000B091920130918E0123E0230F2D3720F4E7
:100840000196A11DB11D05C026E8230F0296A11D2A
:10085000B11D20938E0180938F0190939001A093FE
:100860009101B09392018091930190919401A09194
:100870009501B09196010196A11DB11D8093930140
:1008800090939401A0939501B0939601BF91AF917D
:100890009F918F913F912F910F900FBE0F901F90BE
:1008A00018951F920F920FB60F9211242F933F931A
:1008B0004F935F936F937F938F939F93AF93BF9368
:1008C000CF93DF93EF93FF9380919B01882321F1D6
:1008D0008091980191E0980F9093980181111CC02C
:1008E000C0919A0180919C01C817E8F0609197012E
:1008F000809101010E94370260E0809100010E9416
:10090000370210929B0180918C0190918D0101968C
:1009100090938D0180938C0180919801883008F12B
:10092000109298011EC0EC2FF0E0EE5FFE4F908118
:1009300080919901D1E0D80FD093990161E070E0E6
:1009400001C0660F8A95EAF76923809100010E9431
:100950003702D63008F310929901CF5FC0939A0105
:10096000DBCFFF91EF91DF91CF91BF91AF919F913D
:100970008F917F916F915F914F913F912F910F9048
:100980000FBE0F901F901895EDE9F1E013821282CF
:1009900088EE93E0A0E0B0E084839583A683B783DC
:1009A00088E691E09183808385EC90E09587848749
:1009B00084EC90E09787868780EC90E0918B808B29
:1009C00081EC90E0938B828B82EC90E0958B848B12
:1009D00086EC90E0978B868B118E128E138E148E80
:1009E000EAE3F2E08CE0808382E3818384EF91E0AC
:1009F000938382830895CF93DF93CDB7DEB76A9751
:100A00000FB6F894DEBF0FBECDBF789484B5826078
:100A100084BD84B5816084BD85B5826085BD85B5A2
:100A2000816085BD80916E00816080936E00109220
:100A3000810080918100826080938100809181009B
:100A4000816080938100809180008160809380002C
:100A50008091B10084608093B1008091B00081608A
:100A60008093B00080917A00846080937A008091B6
:100A70007A00826080937A0080917A00816080930E
:100A80007A0080917A00806880937A001092C10089
:100A9000E091AD01F091AE0182E08083E091A90187
:100AA000F091AA011082E091AB01F091AC018FECC2
:100AB00080831092B501E091B101F091B20186E01E
:100AC0008083E091AF01F091B001808180618083EB
:100AD000E091AF01F091B001808188608083E09166
:100AE000AF01F091B001808180688083E091AF0117
:100AF000F091B00180818F7D808380913B02809353
:100B000001011092970180913A0280930001609157
:100B10003C0270913D028EE0E6E4F1E0DE011196C8
:100B200001900D928A95E1F76115710509F480C075
:100B300080E090E00E9423099B01AC0160E070E03E
:100B400080E89FE30E941E0A20E030E040E05EE380
:100B50000E9460094B015C017E0123E0E20EF11C62
:100B600011E0F701819191917F01BC0180E090E05B
:100B70000E9423099B01AC0160E074E284E79BE4DE
:100B80000E941E0A9B01AC0160E070E080E89FE3D8
:100B90000E941E0A9B01AC01C501B4010E941E0AFD
:100BA0000E94900A2B013C01F2E04F1A51086108A3
:100BB00071082DEF42162FEF52066104710408F4FC
:100BC000B8C01F5F173069F6623071058105910565
:100BD00078F161157105E1E08E07910548F5112363
:100BE00039F11092800028E020938100209181004B
:100BF000122B10938100709389006093880080917C
:100C00006F00826080936F0061E0809100010E941C
:100C1000F40260E08BE00E94F4021091010161E0B7
:100C2000812F0E94F40260919701812F0E94370268
:100C300098E0792E60E070E080E89FE30E94550321
:100C4000E2E8F1E0DE015396872D01900D928A953E
:100C5000E1F766E771E0CE0101960E94DC0A69E7E0
:100C600071E0CE0101960E94D10A6DE771E0CE01DC
:100C700001960E94D10A6CE771E0CE0101960E94B4
:100C8000D10A8E010D5E1F4F22E047E060E070E068
:100C9000CB010E949D06B801CE0101960E94D10AA7
:100CA00068E871E0CE0101960E94D10A68E871E01F
:100CB000CE0101960E94D10A6FE771E0CE01019644
:100CC0000E94D10ACE0101960E94670280919B0189
:100CD0008111FCCF60E070E0CB010E9455030E94BF
:100CE00030034B015C0188E8C82E83E1D82EE12C4B
:100CF000F12C0E943003DC01CB0188199909AA0963
:100D0000BB09883E9340A105B10558F0F1E0CF1A28
:100D1000D108E108F10828EE820E23E0921EA11C02
:100D2000B11CC114D104E104F10419F70E940402BA
:100D300081CF163009F053CF7BCFEF920F931F93E3
:100D4000CF93DF93E80147FD02C034E001C034E1F6
:100D5000E42F440FFF0BF7FF03C0F195E195F10974
:100D6000E32E022F2E2FAE010E94BD06CE01DF9191
:100D7000CF911F910F91EF9008954F925F926F92D4
:100D80007F929F92AF92BF92CF92DF92EF92FF92AB
:100D90000F931F93CF93DF93CDB7DEB729970FB68D
:100DA000F894DEBF0FBECDBF6A01122FB02E2BE329
:100DB000201720F0FF24F394F00E02C0BCE3FB2EBA
:100DC0000F2D27E0AE014F5F5F4F0E944B08AC0133
:100DD0008981982F9970913031F0E1FC06C0E0FED6
:100DE00006C090E205C09DE203C09BE201C090E016
:100DF000EE2DE07183FF3CC0911102C083E001C081
:100E000084E0811718F4212F281B01C020E0E11194
:100E10000BC0F601822F30E2882319F03193815004
:100E2000FBCFC20ED11C20E0992329F0D6019C9360
:100E3000F60131966F01C6010396E2FE0AC03EE458
:100E4000D6013C9341E411964C93119712963C9332
:100E500006C03EE6F601308341E641833283FC0161
:100E6000322F40E2332309F442C041933150FACF8C
:100E700082FF44C0911102C083E001C084E0811769
:100E800018F4212F281B01C020E0E1110BC0F6014E
:100E9000822F30E2882319F031938150FBCFC20EAC
:100EA000D11C20E0992329F0D6019C93F6013196BC
:100EB0006F01C6010396E2FE0BC039E4D6013C93F4
:100EC0003EE411963C93119736E412963C9307C08A
:100ED00039E6F60130833EE6318336E63283FC01A3
:100EE000322F40E2332319F041933150FBCFFC0104
:100EF000E20FF11D10828EEF9FEFB7C0F1E091116C
:100F000001C0F0E06F2F70E01416150624F49A016A
:100F10002F5F3F4F02C021E030E0260F371FBB207C
:100F200029F06B2D70E06F5F7F4F02C060E070E0D2
:100F3000260F371F612F70E0261737071CF4121B8E
:100F4000212F01C020E03E2D387159F4D601322FF7
:100F500060E2332319F06D933150FBCFC20ED11CE8
:100F600020E0FF2331F0D6019C93B6016F5F7F4FE5
:100F70006B01E1110BC0F601922F30E3992319F0B8
:100F800031939150FBCFC20ED11C20E09F2D940FC6
:100F90003A81782F7071A72E84FF03C0313309F492
:100FA0009150191624F4993018F098E001C091E09E
:100FB000E42F852F57FF02C0E0E080E06E2F782FEE
:100FC000E0E0F0E0AEE29A2E3A01691A71082A01D7
:100FD000461A570A0B2D10E01195019511096F3F24
:100FE0008FEF780729F4D6019C92C60101966C0117
:100FF0004617570784F0661677066CF47F01E40CF9
:10100000F51CA1E0B0E0AC0FBD1FEA0EFB1ED7013E
:101010001196BC9002C090E3B92E615071093196CF
:10102000C60101967C016017710724F0D601BC92BD
:101030006C01D5CF6417750741F4363320F435338E
:1010400021F4A11002C081E3B82EF601B082F701AD
:10105000822F90E2882319F091938150FBCFF70102
:10106000E20FF11D108280E090E029960FB6F8940F
:10107000DEBF0FBECDBFDF91CF911F910F91FF90CB
:10108000EF90DF90CF90BF90AF909F907F906F9048
:101090005F904F900895283008F027E03327DA0159
:1010A000990F311D87FD916000966105710539F436
:1010B00032602E5F3D9330E32A95E1F708959F3F1C
:1010C00030F080387105610509F03C5F3C5F3D936D
:1010D000913008F08068911DDF93CF931F930F9399
:1010E000FF92EF92192F987F9695E92F96959695F6
:1010F000E90FFF27EE53FF4F99273327EE24FF24F4
:10110000A701E70105900894079428F4360FE71E1D
:10111000F81E491F511D660F771F881F991F0694DF
:10112000A1F70590079428F4E70EF81E491F561FF3
:10113000C11D770F881F991F661F0694A1F70590A0
:10114000079428F4F80E491F561FC71FD11D880F9A
:10115000991F661F771F0694A1F70590079420F446
:10116000490F561FC71FD81F990F661F771F881F6B
:101170000694A9F784911095177041F0D695C795FC
:1011800057954795F794E7941A95C1F7E8E6F0E08C
:1011900068941590159135916591959105907FE230
:1011A0007395E118F10A430B560BC90BD009C0F730
:1011B000E10CF11E431F561FC91FD01D7EF4703372
:1011C00011F48A95E6CFE894015030F0080F0AF444
:1011D0000027021708F4202F2395022F7A3328F0D6
:1011E00079E37D932A95E9F710C07D932A9589F6D6
:1011F000069497956795379517951794E118F10A16
:10120000430B560BC90BD00998F023957E9173952B
:101210007A3308F070E37C932013B8F77E91706105
:101220007D9330F0839571E37D9370E32A95E1F728
:101230001124EF90FF900F911F91CF91DF9199278B
:1012400087FD90950895E89409C097FB3EF490952A
:101250008095709561957F4F8F4F9F4F9923A9F08F
:10126000F92F96E9BB279395F6958795779567951E
:10127000B795F111F8CFFAF4BB0F11F460FF1BC062
:101280006F5F7F4F8F4F9F4F16C0882311F096E9F5
:1012900011C0772321F09EE8872F762F05C06623A3
:1012A00071F096E8862F70E060E02AF09A95660F5C
:1012B000771F881FDAF7880F9695879597F9089515
:1012C0000E9473090C94E4090E94D60938F00E9428
:1012D000DD0920F0952311F00C94CD090C94D3096D
:1012E00011240C94180A0E94F50970F3959FC1F31C
:1012F000950F50E0551F629FF001729FBB27F00DC4
:10130000B11D639FAA27F00DB11DAA1F649F662718
:10131000B00DA11D661F829F2227B00DA11D621F67
:10132000739FB00DA11D621F839FA00D611D221F21
:10133000749F3327A00D611D231F849F600D211D05
:10134000822F762F6A2F11249F5750409AF0F1F088
:1013500088234AF0EE0FFF1FBB1F661F771F881FF1
:1013600091505040A9F79E3F510580F00C94CD0953
:101370000C94180A5F3FE4F3983ED4F38695779572
:101380006795B795F795E7959F5FC1F7FE2B880F97
:10139000911D9695879597F9089597F99F6780E82D
:1013A00070E060E008959FEF80EC089500240A94B7
:1013B0001616170618060906089500240A94121630
:1013C0001306140605060895092E0394000C11F463
:1013D000882352F0BB0F40F4BF2B11F460FF04C010
:1013E0006F5F7F4F8F4F9F4F089557FD9058440F69
:1013F000551F59F05F3F71F04795880F97FB991F74
:1014000061F09F3F79F08795089512161306140630
:10141000551FF2CF4695F1DF08C0161617061806BD
:10142000991FF1CF86957105610508940895E89498
:10143000BB2766277727CB0197F908950E94320AC8
:101440000C94E4090E94DD0958F00E94D60940F08E
:1014500029F45F3F29F00C94CD0951110C94180A1E
:101460000C94D3090E94F50968F39923B1F355232D
:1014700091F3951B550BBB27AA27621773078407A7
:1014800038F09F5F5F4F220F331F441FAA1FA9F33D
:1014900035D00E2E3AF0E0E832D091505040E6952B
:1014A000001CCAF72BD0FE2F29D0660F771F881F8C
:1014B000BB1F261737074807AB07B0E809F0BB0B7F
:1014C000802DBF01FF2793585F4F3AF09E3F510593
:1014D00078F00C94CD090C94180A5F3FE4F3983E21
:1014E000D4F3869577956795B795F7959F5FC9F77C
:1014F000880F911D9695879597F90895E1E0660FFD
:10150000771F881FBB1F621773078407BA0720F075
:10151000621B730B840BBA0BEE1F88F7E0950895DE
:101520000E94970A6894B1110C94180A08950E94B9
:10153000FD0988F09F5798F0B92F9927B751B0F05F
:10154000E1F0660F771F881F991F1AF0BA95C9F747
:1015500014C0B13091F00E94170AB1E008950C94C4
:10156000170A672F782F8827B85F39F0B93FCCF377
:10157000869577956795B395D9F73EF490958095C4
:10158000709561957F4F8F4F9F4F0895EE0FFF1F0E
:101590000590F491E02D099481E090E0F8940C948A
:1015A000E30AFB01DC010D900020E9F7119701909F
:1015B0000D920020E1F70895FB01DC0101900D92EE
:0A15C0000020E1F70895F894FFCF32
:1015CA000C0A2A2A2A2A2A2A382C0000000000009B
:1015DA000000000000000000000000000000000001
:1015EA0000000000000000000000000000000000F1
:1015FA0000000000000000000000000000000000E1
:10160A000000000000000000010008004000000186
:10161A000004050D0D0E131516191A1C232526296B
:10162A002A2C3234000000009B0104013301E2013C
:10163A006401420156012A2300474F0058580023EB
:0A164A002A00303030302E3030001E
:00000001FF
