:100000000C9459000C9481000C9481000C94810094
:100010000C9481000C9481000C9481000C9481005C
:100020000C9481000C9481000C9481000C94DB02F0
:100030000C9481000C9481000C9481000C9481003C
:100040000C9491020C9481000C945F020C94390280
:100050000C9481000C9481000C9481000C9481001C
:100060000C9481000C948100000000002500280001
:100070002B00040404040404040402020202020229
:10008000030303030303010204081020408001025C
:1000900004081020010204081020000000080002DB
:1000A000010000030407000000000000000024031A
:1000B000370411241FBECFEFD8E0DEBFCDBF22E052
:1000C000A2E2B1E001C01D92A431B207E1F711E054
:1000D000A0E0B1E0E2E6FDE002C005900D92A232A0
:1000E000B107D9F710E0C8E5D0E004C02197FE01C0
:1000F0000E949204C735D107C9F70E9499030C9456
:10010000A4060C940000CF92DF92EF92FF920F931F
:100110001F93CF93DF936C017A018B01C0E0D0E095
:10012000CE15DF0589F0D8016D918D01D601ED91D5
:10013000FC910190F081E02DC6010995892B11F405
:100140007E0102C02196ECCFC701DF91CF911F91B4
:100150000F91FF90EF90DF90CF900895089580E089
:1001600090E00895FC01538D448D252F30E0842FBD
:1001700090E0821B930B541710F0CF9608950197CF
:100180000895FC01918D828D981761F0828DDF01B9
:10019000A80FB11D5D968C91928D9F5F9F73928F7A
:1001A00090E008958FEF9FEF0895FC01918D828D6F
:1001B000981731F0828DE80FF11D858D90E008953C
:1001C0008FEF9FEF0895FC01918D228D892F90E094
:1001D000805C9F4F821B91098F739927089581E35B
:1001E00091E00E94E30021E0892B09F420E0822FB6
:1001F0000895FC01848DDF01A80FB11DA35ABF4FE4
:100200002C91848D90E001968F739927848FA68915
:10021000B7892C93A089B1898C9180648C93938D3C
:10022000848D981306C00288F389E02D80818F7D2C
:1002300080830895EF92FF920F931F93CF93DF93E4
:10024000EC0181E0888F9B8D8C8D981305C0E88927
:10025000F989808185FD24C0F62E0B8D10E00F5F9B
:100260001F4F0F731127E02E8C8DE8120CC00FB6B4
:1002700007FCFACFE889F989808185FFF5CFCE01A7
:100280000E94F900F1CF8B8DFE01E80FF11DE35ABA
:10029000FF4FF0820B8FEA89FB898081806207C063
:1002A000EE89FF896083E889F98980818064808391
:1002B00081E090E0DF91CF911F910F91FF90EF903F
:1002C0000895CF93DF93EC01888D8823C9F0EA89E4
:1002D000FB89808185FD05C0A889B9898C9186FD3F
:1002E0000FC00FB607FCF5CF808185FFF2CFA8893C
:1002F000B9898C9185FFEDCFCE010E94F900E7CF3F
:10030000DF91CF91089580E090E0892B29F00E9441
:10031000EF0081110C9400000895833081F028F4DF
:10032000813099F08230A1F008958730A9F08830AB
:10033000B9F08430D1F4809180008F7D03C080912A
:1003400080008F7780938000089584B58F7702C0F6
:1003500084B58F7D84BD08958091B0008F7703C0F0
:100360008091B0008F7D8093B00008951F93CF934C
:10037000DF93282F30E0F901E656FF4F8491F90111
:10038000EA57FF4FD491F901EE58FF4FC491CC23A7
:10039000C9F0162F81110E948D01EC2FF0E0EE0FB5
:1003A000FF1FE859FF4FA591B4918FB7F894111131
:1003B00005C09C91ED2FE095E92302C0EC91ED2B57
:1003C000EC938FBFDF91CF911F9108950E948F060C
:1003D000FC01808191810C942D05EF92FF920F9387
:1003E0001F93CF93DF93EC01198218821B821A822C
:1003F0001D821C8261157105A9F17B01FB01019031
:100400000020E9F731978F01061B170BB8016F5FCA
:100410007F4F80E090E00E94C505009759F09983D6
:1004200088831B830A832C813D81232B81F4FC016B
:1004300010820DC088819981009711F00E942D05CE
:10044000198218821D821C821B821A820BC01D8396
:100450000C83B701DF91CF911F910F91FF90EF9027
:100460000C949D06DF91CF911F910F91FF90EF901B
:1004700008951F920F920FB60F9211242F933F935E
:100480004F935F936F937F938F939F93AF93BF939C
:10049000EF93FF9381E391E00E94F900FF91EF91C8
:1004A000BF91AF919F918F917F916F915F914F918C
:1004B0003F912F910F900FBE0F901F9018951F9294
:1004C0000F920FB60F9211242F938F939F93EF9358
:1004D000FF93E0914101F09142018081E091470159
:1004E000F091480182FD12C0908180914A018F5F96
:1004F0008F7320914B01821751F0E0914A01F0E097
:10050000EF5CFE4F958F80934A0101C08081FF917F
:10051000EF919F918F912F910F900FBE0F901F9091
:1005200018951F920F920FB60F9211242F933F939D
:100530008F939F93AF93BF9380912D0190912E0144
:10054000A0912F01B091300130912C0123E0230FB5
:100550002D3720F40196A11DB11D05C026E8230FFB
:100560000296A11DB11D20932C0180932D01909323
:100570002E01A0932F01B09330018091280190911A
:100580002901A0912A01B0912B010196A11DB11D55
:100590008093280190932901A0932A01B0932B0105
:1005A000BF91AF919F918F913F912F910F900FBE6F
:1005B0000F901F9018951F920F920FB60F92112453
:1005C0002F933F934F935F936F937F938F939F935B
:1005D000AF93BF93EF93FF9380912701882341F05E
:1005E0008091260191E0980F90932601882339F09D
:1005F000809126018830B8F01092260114C060E086
:100600008AE00E94B60160E08CE00E94B601109280
:100610002701809124019091250101969093250155
:1006200080932401E5CFFF91EF91BF91AF919F910E
:100630008F917F916F915F914F913F912F910F908B
:100640000FBE0F901F901895E1E3F1E01382128224
:1006500088EE93E0A0E0B0E084839583A683B7831F
:100660008AE091E09183808385EC90E09587848790
:1006700084EC90E09787868780EC90E0918B808B6C
:1006800081EC90E0938B828B82EC90E0958B848B55
:1006900086EC90E0978B868B118E128E138E148EC3
:1006A00060E271E08AED91E00E94ED0160E271E0AC
:1006B00080EE91E00E94ED0160E271E086EE91E053
:1006C0000E94ED0160E271E08CEE91E00E94ED018C
:1006D00060E271E082EF91E00E94ED0160E271E082
:1006E00088EF91E00E94ED0160E271E08EEF91E011
:1006F0000E94ED0160E271E084E092E00E94ED0171
:1007000060E271E08AE092E00E94ED01E4EDF1E048
:100710008BE080838DE0818384EF91E093838283FB
:10072000EEECF1E02CE0208322E3218393838283AB
:100730000895789484B5826084BD84B5816084BD59
:1007400085B5826085BD85B5816085BD80916E006F
:10075000816080936E0010928100809181008260A0
:1007600080938100809181008160809381008091DD
:1007700080008160809380008091B10084608093CC
:10078000B1008091B00081608093B00080917A00C8
:10079000846080937A0080917A00826080937A00EE
:1007A00080917A00816080937A0080917A008068DD
:1007B00080937A001092C100E0914101F0914201D2
:1007C00082E08083E0913D01F0913E011082E09152
:1007D0003F01F09140018FEC808310924901E0913C
:1007E0004501F091460186E08083E0914301F0915C
:1007F0004401808180618083E0914301F091440154
:10080000808188608083E0914301F0914401808180
:1008100080688083E0914301F091440180818F7D65
:10082000808345E050E068E171E081E391E00E945F
:10083000830042E050E06EE171E081E391E00E94CC
:100840008300E0913101F09132010190F081E02DBF
:1008500060E081E391E0099542E050E06EE171E0F3
:1008600081E391E00E9483000E948301FDCF8AE032
:1008700092E00E94E80184E092E00E94E8018EEF9D
:1008800091E00E94E80188EF91E00E94E80182EF88
:1008900091E00E94E8018CEE91E00E94E80186EE72
:1008A00091E00E94E80180EE91E00E94E8018AED6B
:1008B00091E00C94E8012F923F924F925F926F92D9
:1008C0007F928F929F92AF92BF92CF92DF92EF92E0
:1008D000FF920F931F93CF93DF93CDB7DEB7CA1B61
:1008E000DB0B0FB6F894DEBF0FBECDBF09942A888C
:1008F000398848885F846E847D848C849B84AA8434
:10090000B984C884DF80EE80FD800C811B81AA81C0
:10091000B981CE0FD11D0FB6F894DEBF0FBECDBF8B
:10092000ED010895EE0FFF1F0590F491E02D09945D
:10093000CF93DF938230910510F482E090E0E09154
:100940001202F091130220E030E0C0E0D0E03097D6
:1009500011F14081518148175907C0F048175907D4
:1009600061F482819381209719F09B838A832BC045
:10097000909313028093120226C02115310519F0BD
:100980004217530718F49A01BE01DF01EF010280FC
:10099000F381E02DDCCF2115310509F1281B390B3E
:1009A0002430310590F412968D919C911397611526
:1009B000710521F0FB019383828304C0909313029D
:1009C00080931202FD01329644C0FD01E20FF31F35
:1009D00081939193225031092D933C933AC02091F9
:1009E000100230911102232B41F420910201309129
:1009F00003013093110220931002209100013091E5
:100A000001012115310541F42DB73EB74091040194
:100A100050910501241B350BE0911002F091110259
:100A2000E217F307A0F42E1B3F0B2817390778F0C5
:100A3000AC014E5F5F4F2417350748F04E0F5F1F24
:100A400050931102409310028193919302C0E0E011
:100A5000F0E0CF01DF91CF9108950F931F93CF93D3
:100A6000DF93009709F48CC0FC0132971382128245
:100A700000911202109113020115110581F42081D9
:100A80003181820F931F209110023091110228179B
:100A9000390779F5F0931102E093100271C0D80183
:100AA00040E050E0AE17BF0750F412962D913C91F4
:100AB0001397AD012115310509F1D901F3CF9D013E
:100AC000DA013383228360817181860F971F821739
:100AD000930769F4EC0128813981260F371F2E5FB7
:100AE0003F4F318320838A819B8193838283452B6F
:100AF00029F4F0931302E093120242C01396FC9380
:100B0000EE931297ED01499159919E01240F351FE3
:100B1000E217F30771F480819181840F951F02968B
:100B200011969C938E938281938113969C938E93BE
:100B30001297E0E0F0E0D80112968D919C91139706
:100B4000009719F0F8018C01F6CF8D919C919801D6
:100B50002E5F3F4F820F931F2091100230911102A0
:100B60002817390769F4309729F41092130210926C
:100B7000120202C01382128210931102009310021B
:100B8000DF91CF911F910F910895A0E0B0E0EBECC1
:100B9000F5E00C945F04EC01009721F4CB010E9476
:100BA0009804B8C0FC01E60FF71F9C0122503109E0
:100BB000E217F30708F4ACC0D9010D911C9111970D
:100BC00006171707B0F00530110508F49FC0C801DB
:100BD00004978617970708F499C002501109061B5D
:100BE000170B019311936D937C93CF010E942D05F8
:100BF0008DC05B01A01AB10A4C01800E911EA0911C
:100C00001202B091130240E050E0E12CF12C109759
:100C100009F44AC0A815B905D1F56D907C901197DB
:100C2000630182E0C80ED11CCA14DB0480F1A30169
:100C30004A195B096A0182E0C80ED11C1296BC9069
:100C400012971396AC91B5E0CB16D10440F0B28266
:100C5000A38351834083D9016D937C930AC00E5FB7
:100C60001F4FC301800F911FF90191838083EB2DEA
:100C7000FA2FE114F10431F0D7011396FC93EE93AF
:100C8000129744C0F0931302E09312023FC08D917B
:100C90009C9111974817590708F4AC017D011296F1
:100CA0000D90BC91A02DB3CF8091100290911102B4
:100CB00088159905E1F446175707C8F4809100019B
:100CC00090910101009741F48DB79EB740910401C6
:100CD00050910501841B950BE817F907C8F4F093B0
:100CE0001102E0931002F901718360830FC0CB0100
:100CF0000E9498047C01009759F0A801BE010E944F
:100D00009406CE010E942D05C70104C0CE0102C089
:100D100080E090E0CDB7DEB7EEE00C947B0481E09C
:100D200090E0F8940C94A406FB01DC0102C0019051
:100D30000D9241505040D8F70895FB01DC0101901D
:100D40000D920020E1F7089510E0C8E5D0E004C05E
:100D5000FE010E9492042196C935D107C9F7F89483
:020D6000FFCFC3
:100D6200000014028000000000001A018300B2009B
:100D72006101E300C100D500446174613A000D0ACB
:020D820000006F
:00000001FF
