:100000000C94FE000C9426010C9426010C942601FD
:100010000C9426010C9426010C9426010C942601C4
:100020000C9426010C9426010C9426010C9458047F
:100030000C9426010C9426010C9426010C942601A4
:100040000C940E040C9426010C94BB020C949502A3
:100050000C9426010C9426010C9426010C94260184
:100060000C9426010C9426014E414E494E49545998
:10007000494E46CDCCCC3D0AD7233C17B7D1387773
:10008000CC2B329595E6241FB14F0A000020410089
:1000900000C84200401C4620BCBE4CCA1B0E5AAED3
:1000A000C59D7400407A10F35A00A0724E180900E2
:1000B00010A5D4E80000E87648170000E40B5402CD
:1000C0000000CA9A3B000000E1F505000080969808
:1000D00000000040420F000000A086010000001058
:1000E0002700000000E8030000000064000000009A
:1000F000000A00000000000100000000002C76D87B
:1001000088DC674F0823DFC1DFAE59E1B1B796E560
:10011000E3E453C63AE651997696E8E6C28426EBC4
:10012000898C9B62ED407C6FFCEFBC9C9F40F2BAD7
:10013000A56FA5F490055A2AF75C936B6CF9676D6F
:10014000C11BFCE0E40D47FEF520E6B500D0ED90C4
:100150002E0300943577050080841E080000204E91
:100160000A000000C80C333333330F986E1283112A
:1001700041EF8D2114893BE65516CFFEE6DB18D101
:10018000844B381BF77C1D901DA4BBE424203284D3
:10019000725E228100C9F124ECA1E53D2700000038
:1001A00000240027002A0000000000250028002B62
:1001B00000000000002300260029000404040404B9
:1001C0000404040202020202020303030303030104
:1001D00002040810204080010204081020010204DB
:1001E00008102000000008000201000003040700BE
:1001F0000000000000000000250E010E11241FBEAB
:10020000CFEFD8E0DEBFCDBF22E0A0EDB1E001C06E
:100210001D92A23FB207E1F711E0A0E0B1E0EEE2EB
:10022000FEE202C005900D92A03DB107D9F710E0A3
:10023000CDEFD0E004C02197FE010E94E414CC3F32
:10024000D107C9F70E94B30B0C940A170C94000055
:10025000089580E090E00895FC01538D448D252F92
:1002600030E0842F90E0821B930B541710F0CF9650
:10027000089501970895FC01918D828D981761F082
:10028000828DDF01A80FB11D5D968C91928D9F5FCD
:100290009F73928F90E008958FEF9FEF0895FC0178
:1002A000918D828D981731F0828DE80FF11D858D2B
:1002B00090E008958FEF9FEF0895FC01918D228DBE
:1002C000892F90E0805C9F4F821B91098F73992743
:1002D00008958DE092E00E945D0121E0892B09F4F0
:1002E00020E0822F0895FC01848DDF01A80FB11D4D
:1002F000A35ABF4F2C91848D90E001968F7399275C
:10030000848FA689B7892C93A089B1898C91806448
:100310008C93938D848D981306C00288F389E02D09
:1003200080818F7D80830895EF92FF920F931F93BA
:10033000CF93DF93EC0181E0888F9B8D8C8D981398
:1003400005C0E889F989808185FD24C0F62E0B8DD2
:1003500010E00F5F1F4F0F731127E02E8C8DE812F6
:100360000CC00FB607FCFACFE889F989808185FFB8
:10037000F5CFCE010E947301F1CF8B8DFE01E80F06
:10038000F11DE35AFF4FF0820B8FEA89FB898081D0
:10039000806207C0EE89FF896083E889F9898081DE
:1003A0008064808381E090E0DF91CF911F910F9175
:1003B000FF90EF900895CF93DF93EC01888D882311
:1003C000C9F0EA89FB89808185FD05C0A889B989C2
:1003D0008C9186FD0FC00FB607FCF5CF808185FF9D
:1003E000F2CFA889B9898C9185FFEDCFCE010E940B
:1003F0007301E7CFDF91CF91089580E090E0892BE2
:1004000029F00E94690181110C9400000895833045
:1004100081F028F4813099F08230A1F0089587307E
:10042000A9F08830B9F08430D1F4809180008F7DBC
:1004300003C0809180008F7780938000089584B5F9
:100440008F7702C084B58F7D84BD08958091B00000
:100450008F7703C08091B0008F7D8093B0000895A6
:10046000CF93DF93282F30E0F901ED51FE4F8491B7
:10047000F901E153FE4FD491F901E554FE4FC491C7
:10048000CC2391F081110E940702EC2FF0E0EE0FD7
:10049000FF1FEF54FE4FA591B491EC91ED2381E045
:1004A00090E021F480E002C080E090E0DF91CF9105
:1004B0000895CF93DF9390E0FC01E153FE4F249128
:1004C000FC01E554FE4F8491882361F190E0880F90
:1004D000991FFC01E356FE4FC591D491FC01E955EB
:1004E000FE4FA591B491611109C09FB7F89488811E
:1004F000209582238883EC912E230BC0623061F417
:100500009FB7F8943881822F809583238883EC915C
:100510002E2B2C939FBF06C08FB7F894E8812E2B0B
:1005200028838FBFDF91CF9108951F920F920FB64E
:100530000F9211242F933F934F935F936F937F9369
:100540008F939F93AF93BF93EF93FF938DE092E0D0
:100550000E947301FF91EF91BF91AF919F918F9195
:100560007F916F915F914F913F912F910F900FBEAF
:100570000F901F9018951F920F920FB60F92112493
:100580002F938F939F93EF93FF93E0911D02F09130
:100590001E028081E0912302F091240282FD12C0AC
:1005A0009081809126028F5F8F732091270282179E
:1005B00051F0E0912602F0E0E35FFD4F958F8093CC
:1005C000260201C08081FF91EF919F918F912F9121
:1005D0000F900FBE0F901F9018951F93CF93DF932E
:1005E000282F30E0F901ED51FE4F8491F901E153DC
:1005F000FE4FD491F901E554FE4FC491CC23C9F0CC
:10060000162F81110E940702EC2FF0E0EE0FFF1F62
:10061000E955FE4FA591B4918FB7F894111105C01B
:100620009C91ED2FE095E92302C0EC91ED2BEC932A
:100630008FBFDF91CF911F9108954F925F926F927C
:100640007F928F929F92AF92BF92EF92FF921F93F1
:10065000CF93DF93CDB7DEB72E970FB6F894DEBFFA
:100660000FBECDBF2EE0ECE4F1E0DE01119601906B
:100670000D922A95E1F7009709F497C0BC0180E03C
:1006800090E00E94A7129B01AC0160E070E080E85E
:100690009FE30E941A1420E030E040E05EE30E94F5
:1006A00008134B015C017E0123E0E20EF11C11E016
:1006B000F701819191917F01BC0180E090E00E945F
:1006C000A7129B01AC0160E074E284E79BE40E9406
:1006D0001A149B01AC0160E070E080E89FE30E9487
:1006E0001A149B01AC01C501B4010E941A140E94A6
:1006F0008C142B013C01F2E04F1A5108610871087B
:100700002DEF42162FEF52066104710408F44BC01E
:100710001F5F173069F6623071058105910508F495
:1007200044C061157105E1E08E079105F0F51123D4
:10073000E1F11092800028E0209381002091810057
:10074000122B109381007093890060938800809130
:100750006F00826080936F0061E0809100010E94D1
:10076000590260E08BE00E94590261E08091010132
:100770000E94590260910702809101012E960FB6E6
:10078000F894DEBF0FBECDBFDF91CF911F91FF90D8
:10079000EF90BF90AF909F908F907F906F905F9001
:1007A0004F900C94ED02163011F62E960FB6F89479
:1007B000DEBF0FBECDBFDF91CF911F91FF90EF90B5
:1007C000BF90AF909F908F907F906F905F904F9071
:1007D00008953FB7F8948091DD019091DE01A091DA
:1007E000DF01B091E00126B5A89B05C02F3F19F0AD
:1007F0000196A11DB11D3FBFBA2FA92F982F8827A1
:10080000820F911DA11DB11DBC01CD0142E0660FFB
:10081000771F881F991F4A95D1F708951F920F924D
:100820000FB60F9211242F933F938F939F93AF9303
:10083000BF938091020290910302A0910402B091B3
:1008400005023091DC0123E0230F2D3720F40196BF
:10085000A11DB11D05C026E8230F0296A11DB11DE3
:100860002093DC018093020290930302A093040280
:10087000B09305028091DD019091DE01A091DF012E
:10088000B091E0010196A11DB11D8093DD0190930F
:10089000DE01A093DF01B093E001BF91AF919F9182
:1008A0008F913F912F910F900FBE0F901F90189531
:1008B0001F920F920FB60F9211242F933F934F93D5
:1008C0005F936F937F938F939F93AF93BF93CF93D8
:1008D000EF93FF93C091E201CC2321F080910B02B2
:1008E0008823B1F180910B02882321F180910802C5
:1008F00091E0980F9093080281111CC0E0910A02C8
:1009000080910C02E81750F160910702809101017B
:100910000E94ED0260E0809100010E94ED021092C1
:100920000B028091D9019091DA0101969093DA013E
:100930008093D90180910802883010F0109208024B
:10094000CC2309F4D6C040910B02442341F1D1C01D
:100950008BE00E9430028093DB01C4CFF0E0EE5FB9
:10096000FE4F90818091090221E0280F2093090217
:1009700061E070E001C0660F8A95EAF76923809113
:1009800000010E94ED0280910902863098F21092D7
:10099000090280910A028F5F80930A02CBCF809177
:1009A000DB01882329F09091D8019F5F9093D801B3
:1009B0002091D7019091D601821759F0903510F00F
:1009C0002DE101C02BE0920F9093D6018093D701C7
:1009D00003C09C5E9093D6019091D601903A08F4A2
:1009E00088C02091D4013091D50136952795309358
:1009F000D5012093D4018091D801853028F038604A
:100A00003093D5012093D401905A9093D60110923F
:100A1000D8018091E101882309F45BC09091D30152
:100A20009F5F9093D3019C3008F463C02091D40160
:100A30003091D501822F8F73EAE5F1E0DF0190E07C
:100A40005D91851721F09F5F9031D1F790E050E1E3
:100A5000959FC001112496E0369527959A95E1F768
:100A600030E05191251721F03F5F3031D1F701C0BF
:100A7000432F842B9091010291110EC08093D201DB
:100A80009CEF980F9B3140F01092E1018091D101D1
:100A90008F5F8093D1012DC0E091010291E09E0F04
:100AA00090930102F0E0ED51FE4F8083909101029E
:100AB0008091D201981750F01092E1018091D001FD
:100AC0008F5F8093D00181E0809306021092D30162
:100AD00010C08091D4019091D50188339B4049F496
:100AE00081E08093E1011092D301109201021092F3
:100AF0000602FF91EF91CF91BF91AF919F918F919E
:100B00007F916F915F914F913F912F910F900FBE09
:100B10000F901F9018950895CF92DF92EF92FF9259
:100B20000F931F93CF93DF936C017A018B01C0E089
:100B3000D0E0CE15DF0589F0D8016D918D01D60189
:100B4000ED91FC910190F081E02DC6010995892B72
:100B500011F47E0102C02196ECCFC701DF91CF9145
:100B60001F910F91FF90EF90DF90CF9008950E941A
:100B7000E116FC0124813581FB0144815581241754
:100B8000350721F5FC0180819181FB016081718134
:100B9000009719F061157105A1F46115710549F00F
:100BA000232BB1F0FB01808190E091958195910913
:100BB0000AC0009769F0232B59F0FC01808190E076
:100BC00002C00E94FA1621E0892B19F020E001C032
:100BD00021E0822F0895EF92FF920F931F93CF93FE
:100BE000DF93EC017B018A0188819981009729F0CC
:100BF0002A813B8124173507F8F4B8016F5F7F4FD6
:100C00000E941716009759F0998388831B830A83E3
:100C10002C813D81232B81F4FC0110820DC0888141
:100C20009981009711F00E947F15198218821D8208
:100C30001C821B821A8207C01D830C83B701888126
:100C400099810E940317CE01DF91CF911F910F91DF
:100C5000FF90EF900895009769F0FC01019000204B
:100C6000E9F73197AF01481B590BBC018DE092E0C9
:100C70000C948C0580E090E00895CF93DF930E9460
:100C80002B06EC018CE891E00E942B068C0F9D1F37
:100C9000DF91CF910895CF93DF9320910B02211123
:100CA000FCCF2EE020930A012AE120930B01DC0106
:100CB00040E050E080E39AE7BD01ED912E2F282718
:100CC00030E1239FE0011124C2272C2F30E0D22FE6
:100CD000CC27892F99278C2B9D2BE901F4E0D59502
:100CE000C795FA95E1F78C279D27C3E0220F331FA4
:100CF000CA95E1F782279327EA01CE5FDE4FF0E045
:100D000024E0F595E7952A95E1F7E65AFE4F208114
:100D10002A87FB012081E22FEF70F0E0E65AFE4FB8
:100D200020812B874E5F5F4F4632510529F6809513
:100D30009095FC0124E0F695E7952A95E1F7EF7090
:100D4000FF27E65AFE4F208120933201FC01EF700D
:100D5000FF27E65AFE4F208120933301FC01EF2F3D
:100D6000FF27E295EF70E65AFE4F20812093340171
:100D7000E92FFF27EF70FF27E65AFE4F808180930F
:100D8000350184E380930C0210920A02109209024A
:100D90001092080260910702C1E06C278091010166
:100DA0000E94ED02C0930B0281E0DF91CF91089584
:100DB000CF92DF92EF92FF920F931F93CF93DF9327
:100DC000CDB7DEB76A970FB6F894DEBF0FBECDBFC2
:100DD0008C016A017B0198E0E7ECF1E0DE015396BB
:100DE00001900D929A95E1F76EEB71E0CE010196BC
:100DF0000E940317B801CE0101960E94EF1661EC24
:100E000071E0CE0101960E94EF168E010D5E1F4F1C
:100E100022E047E0C701B6010E949A0EB801CE0158
:100E200001960E94EF1664EC71E0CE0101960E94DB
:100E3000EF16CE0101960E944B0680910B028111A4
:100E4000FCCF6A960FB6F894DEBF0FBECDBFDF9120
:100E5000CF911F910F91FF90EF90DF90CF90089569
:100E60008F929F92AF92BF92CF92DF92EF92FF92BA
:100E70000E94E9034B015C0184EFC82EDD24D3946A
:100E8000E12CF12C0E94E903DC01CB0188199909BE
:100E9000AA09BB09883E9340A105B10558F021E09D
:100EA000C21AD108E108F10888EE880E83E0981E86
:100EB000A11CB11CC114D104E104F10419F7FF9085
:100EC000EF90DF90CF90BF90AF909F908F9008955C
:100ED000FC0124813581232B31F421E0611571055A
:100EE000A1F0FB0108C0FC018081918161157105B1
:100EF00031F421E0FC018081882339F005C00E9493
:100F0000FA1621E0892B09F020E0822F08950F9333
:100F10001F93CF93DF938C01EB01FC0180819181C2
:100F20000097B1F0688179816115710579F042818E
:100F300053812C813D814217530740F00E940317D3
:100F40008C819D81F8019583848313C00E947F1555
:100F500088819981F801918380838A819B81938321
:100F600082838C819D8195838483198218821B8260
:100F70001A821D821C82DF91CF911F910F910895DB
:100F8000FC01808191810C947F15FB01DC0111969D
:100F90001C921E9213961C921E92129715961C92EA
:100FA0001E9214978617970749F060817181611529
:100FB000710521F0448155810C94EB050895FC01E5
:100FC00011821082138212821582148261157105BA
:100FD00051F0FB0101900020E9F73197AF01461B6A
:100FE000570B0C94EB050895BF92CF92DF92EF92CE
:100FF000FF920F931F93CF93DF937C016B01EA0164
:1010000089012417350720F48D2FE901042F182FAB
:101010006EE871E0C7010E94DF07D60114968D913A
:101020009C911597C817D907C8F58017910708F440
:101030008C01D601ED91FC911197E00FF11FB0806A
:1010400010824D915C91BA016C0F7D1F6115710585
:1010500061F0FB0101900020E9F73197AF01461BD9
:10106000570BC7010E94EB0513C0F70180819181E6
:10107000009711F00E947F15D70111961C921E92C5
:1010800015961C921E92149713961C921E921297FC
:10109000D601ED91FC91E00FF11FB082C701DF9105
:1010A000CF911F910F91FF90EF90DF90CF90BF9065
:1010B00008958F929F92AF92BF92CF92DF92EF925C
:1010C000FF920F931F93CF93DF93CDB7DEB7CF542B
:1010D000D1090FB6F894DEBF0FBECDBF7C016EEB19
:1010E00071E0CE01865B9F4F0E94DF0764EC71E0E8
:1010F000CE018C5B9F4F0E94DF078FB7F894409121
:1011000002025091030260910402709105028FBFA8
:1011100080910602811114C02FB7F89480910202C9
:1011200090910302A0910402B09105022FBF841B8D
:10113000950BA60BB70B883E9340A105B10540F374
:101140008091060280910602882309F4DDC2409155
:1011500001024350433108F043E150E064EE71E096
:10116000CE0101960E94E6161092060260910102DD
:10117000E3EEF1E04FEF5FEF615000F12191822F3C
:10118000842790E1899F900111242827822F90E0E5
:10119000382F2227452F5527422B532B9C01A4E0A3
:1011A00035952795AA95E1F742275327B3E0880F95
:1011B000991FBA95E1F748275927DECF483B504F92
:1011C00009F0A2C2BE016F5F7F4FCE01CE960E9492
:1011D000DF07CEACDFACC114D10409F442C02496C1
:1011E0000EAD1FAD249701151105D9F1460154012B
:1011F000FFEF8F1A9F0AF5018081082E000C990BD2
:101200000E948112892B99F7015011090C0D1D1DA7
:10121000F8018081082E000C990B0E948112892B05
:1012200089F4A8014F5F5F4F4A195B0924965FAFAD
:101230004EAF2497CA14DB0458F4B501C6010E94CE
:10124000E61606C00A151B0560F301501109E0CF30
:10125000EEADFFAD24968EAD9FAD2497E80FF91F3C
:10126000108224968EAD9FAD24970F9709F0A7C0EA
:1012700022E030E040E050E0BE01625C7F4FCE01F2
:1012800044960E94F407BE01665B7F4FCE014496F0
:101290000E94B9058823E9F12FE030E04DE050E0ED
:1012A000BE01625C7F4FCE014A960E94F407BE01E8
:1012B0006C5B7F4FCE014A960E94B905882319F1D5
:1012C0002DE030E046E050E0BE01625C7F4FCE0191
:1012D00080960E94F40788A199A1009719F00E94B6
:1012E000BA0E03C060E070E0CB0111E020E030E016
:1012F000A9010E94A212811101C010E0CE018096C6
:101300000E94C00701C010E0CE014A960E94C007AB
:1013100001C010E0CE0144960E94C007112309F4D9
:101320004EC024E030E042E050E0BE01625C7F4FFE
:10133000CE0144960E94F407BE016C5E7F4F8CEB99
:1013400092E00E948707CE0144960E94C00726E0E3
:1013500030E044E050E0BE01625C7F4FCE01449635
:101360000E94F407BE016C5E7F4F88EC92E00E9401
:101370008707CE0144960E94C0071092B5022DE067
:1013800030E046E050E0BE01625C7F4FCE01449603
:101390000E94F4078C899D89009719F00E94BA0E6B
:1013A00003C060E070E0CB010E9493146093B4022C
:1013B000CE0144960E94C00761E971E09DC1249668
:1013C0008EAD9FAD24970F9709F0A4C122E030E0C5
:1013D00040E050E0BE01625C7F4FCE0144960E9427
:1013E000F407BE01665B7F4FCE0144960E94B905AB
:1013F000882309F491C124E030E042E050E0BE01CE
:10140000625C7F4FCE014A960E94F4076CEB72E05B
:10141000CE014A960E94B905882309F47FC126E0CF
:1014200030E044E050E0BE01625C7F4FCE01809628
:101430000E94F40768EC72E0CE0180960E94B90524
:10144000882309F46DC12FE030E04DE050E0BE018B
:10145000625C7F4FCE0186960E94F407BE016C5BF2
:101460007F4FCE0186960E94B905882311F12DE0A9
:1014700030E046E050E0BE01625C7F4FCE018C96CA
:101480000E94F4078CA59DA5009719F00E94BA0E42
:1014900003C060E070E0CB0111E020E030E0A90182
:1014A0000E94A212811110E0CE018C960E94C0070A
:1014B00001C010E0CE0186960E94C007CE01809642
:1014C0000E94C007CE014A960E94C007CE014496F2
:1014D0000E94C007112361F09091B5028091B4027F
:1014E000981303C06AEA71E007C16BEB71E004C1B5
:1014F00024968EAD9FAD2497429709F0FBC024E05F
:1015000030E042E050E0BE01625C7F4FCE01869643
:101510000E94F4076CEB72E0CE0186960E94B9053A
:10152000882309F4FFC022E030E040E050E0BE0133
:10153000625C7F4FCE018C960E94F407BE01665B11
:101540007F4FCE018C960E94B905882389F122E154
:1015500030E040E150E0BE01625C7F4FCE01C296B8
:101560000E94F407BE016C5B7F4FCE01C2960E94C1
:10157000B9058823C9F027E030E045E050E0BE011E
:10158000625C7F4FCE01C8960E94F40768EC72E05F
:10159000CE01C8960E94B90511E0811101C010E08A
:1015A000CE01C8960E94C007CE01C2960E94C00715
:1015B000CE018C960E94C007CE0186960E94C0077D
:1015C000112309F497C022E030E040E050E0BE0172
:1015D000625C7F4FCE01C2960E94F407BE016E5C32
:1015E0007F4F86EB92E00E948707CE01C2960E9451
:1015F000C00725E030E044E050E0BE01625C7F4F70
:10160000CE01C2960E94F407BE016E5C7F4F82EC51
:1016100092E00E948707CE01C2960E94C0072EE08A
:1016200030E047E050E0BE01625C7F4FCE01C296E1
:101630000E94F407BE016E5C7F4F84ED92E00E9431
:101640008707CE01C2960E94C0072FE030E04EE02F
:1016500050E0BE01625C7F4FCE01C2960E94F4074B
:10166000BE016E5C7F4F8AED92E00E948707CE013B
:10167000C2960E94C00720E130E04FE050E0BE017A
:10168000625C7F4FCE01C2960E94F407BE016E5C81
:101690007F4F80EE92E00E948707CE01C2960E94A3
:1016A000C00722E130E040E150E0BE01625C7F4FC4
:1016B000CE01C2960E94F407BE016E5C7F4F86EE9B
:1016C00092E00E948707CE01C2960E94C0078091D7
:1016D000B5028F5F8093B502F701118210821382E9
:1016E000128215821482BE01625C7F4FC7010E9484
:1016F000870705C06EE871E0C7010E94DF07CE01D1
:10170000CE960E94C00710C06EE871E0C7010E942B
:10171000DF070AC010E0DECE10E0D8CE10E0D2CE57
:1017200010E0CCCE10E048CFCE018C5B9F4F0E94E2
:10173000C007CE01865B9F4F0E94C007C701C15BF7
:10174000DF4F0FB6F894DEBF0FBECDBFDF91CF9154
:101750001F910F91FF90EF90DF90CF90BF90AF90CF
:101760009F908F900895CF93DF93CDB7DEB7AF975B
:101770000FB6F894DEBF0FBECDBF789484B58260FB
:1017800084BD84B5816084BD85B5826085BD85B525
:10179000816085BD80916E00816080936E001092A3
:1017A000810080918100826080938100809181001E
:1017B00081608093810080918000816080938000AF
:1017C0008091B10084608093B1008091B00081600D
:1017D0008093B00080917A00846080937A00809139
:1017E0007A00826080937A0080917A008160809391
:1017F0007A0080917A00806880937A001092C1000C
:10180000E0911D02F0911E0282E08083E0911902B6
:10181000F0911A021082E0911B02F0911C028FECF1
:10182000808310922502E0912102F091220286E04D
:101830008083E0911F02F09120028081806180838B
:10184000E0911F02F0912002808188608083E09106
:101850001F02F0912002808180688083E0911F0246
:10186000F091200280818F7D808361E08DE00E9475
:1018700059028091B1028093010110920702809178
:10188000B002809300018091B2029091B3020E9455
:101890001D038091E201811105C081E08093E20186
:1018A0001092E1018091AB02809301011092070236
:1018B0008091AA02809300018091AC029091AD02C8
:1018C0000E941D038CE791E00E943D0610E0A12CD0
:1018D000B12C9AE0492E512C612C712C05E00A0D97
:1018E000802F0E9430026C01990FEE08FF08F7FE6E
:1018F00026C0E0910D02F0910E020190F081E02DE2
:101900006DE28DE092E0099522273327A9012C1979
:101910003D094E095F0919A2CE0181967C01CA01D9
:10192000B901A30192010E94C214605DF7016293A4
:101930007F01211531054105510589F715C0A70122
:10194000960119A2CE0181967C01CA01B901A301B9
:1019500092010E94C214605DF70162937F0121151C
:1019600031054105510589F7C7010E942B068CE816
:1019700091E00E942B06802F0E9430020A2C01C0A9
:10198000880F0A94EAF7182BFFEFAF1ABF0A83E01B
:10199000A816B10409F0A2CF612F70E080E090E0BA
:1019A0000E94A7128E010F5F1F4F20E041E00E94AE
:1019B0009A0EB8018FE891E00E94EF168FE891E04F
:1019C0000E943D0688E0F82E6EE871E0CE018A960E
:1019D0000E94DF07CE0101960E945908BE016F5F89
:1019E0007F4FCE018A960E948707CE0101960E9402
:1019F000C00761E971E0CE018A960E9468078823DA
:101A000009F4F8C0CE0101960E945908BE016F5F2B
:101A10007F4FCE018A960E948707CE0101960E94D1
:101A2000C0076EE871E0CE018A960E9468078111B6
:101A300031C06CEB72E0CE0101960E94C5076FE8E1
:101A400071E0CE0101960E946807182FCE01019621
:101A50000E94C0071123F1F04EA55FA56AA57BA5E2
:101A60008DE092E00E948C058CE891E00E942B06AC
:101A70006AEA71E0CE018A960E946807882351F0D5
:101A800061E08DE00E94ED020E94300760E08DE091
:101A90000E94ED026EE871E0CE018A960E9468070E
:101AA000811129C06CEB72E0CE0101960E94C5073E
:101AB0006DEA71E0CE0101960E946807182FCE01F1
:101AC00001960E94C0071123B1F080EB91E00E94C3
:101AD0003D066AEA71E0CE018A960E946807882373
:101AE00051F061E08DE00E94ED020E94300760E05D
:101AF0008DE00E94ED026AEA71E0CE018A960E94B2
:101B00006807811109C06BEB71E0CE018A960E94D3
:101B10006807882309F476CF6CEB72E0CE0101965A
:101B20000E94C5076FE871E0CE0101960E94680728
:101B3000182FCE0101960E94C007112309F45AC044
:101B400040E050E060E87FE38FE891E00E94D80633
:101B5000E7ECF1E0DE0192968F2D01900D928A95CF
:101B6000E1F76EEB71E0CE0101960E9403176FE87A
:101B700071E0CE0101960E94EF1661EC71E0CE019A
:101B800001960E94EF1662EC71E0CE0101960E9470
:101B9000EF168E010E5D1F4F22E047E060E070E01F
:101BA00080E791E40E949A0EB801CE0101960E944E
:101BB000EF166DEC71E0CE0101960E94EF166DEC10
:101BC00071E0CE0101960E94EF1664EC71E0CE0147
:101BD00001960E94EF16CE0101960E944B0680915D
:101BE0000B028111FCCF40E050E0BA018FE891E098
:101BF0000E94D806CE018A960E94C0070E94FD016D
:101C0000E3CE86EE92E00E94C00780EE92E00E9452
:101C1000C0078AED92E00E94C00784ED92E00E9426
:101C2000C0078EEC92E00E94C00788EC92E00E9410
:101C3000C00782EC92E00E94C0078CEB92E00E9409
:101C4000C00786EB92E00C94C007EDE0F2E013824F
:101C5000128288EE93E0A0E0B0E084839583A683AF
:101C6000B7838EE691E09183808385EC90E0958741
:101C7000848784EC90E09787868780EC90E0918B56
:101C8000808B81EC90E0938B828B82EC90E0958B43
:101C9000848B86EC90E0978B868B118E128E138E40
:101CA000148E6EE871E086EB92E00E94DF076EE82A
:101CB00071E08CEB92E00E94DF076EE871E082EC4D
:101CC00092E00E94DF076EE871E088EC92E00E94EB
:101CD000DF076EE871E08EEC92E00E94DF076EE8AD
:101CE00071E084ED92E00E94DF076EE871E08AED1A
:101CF00092E00E94DF076EE871E080EE92E00E94C1
:101D0000DF076EE871E086EE92E00E94DF07E0EB0D
:101D1000F2E08BE080838DE0818384EF91E0938318
:101D20008283EAEAF2E02CE0208322E3218393839A
:101D300082830895EF920F931F93CF93DF93E8016F
:101D400047FD02C034E001C034E1E42F440FFF0B33
:101D5000F7FF03C0F195E195F109E32E022F2E2F35
:101D6000AE010E94BE0ECE01DF91CF911F910F9167
:101D7000EF900895662777270C944C104F925F924E
:101D80006F927F929F92AF92BF92CF92DF92EF922B
:101D9000FF920F931F93CF93DF93CDB7DEB72997B1
:101DA0000FB6F894DEBF0FBECDBF6A01122FB02E62
:101DB0002BE3201720F0FF24F394F00E02C0BCE3C5
:101DC000FB2E0F2D27E0AE014F5F5F4F0E94A91140
:101DD000AC018981982F9970913031F0E1FC06C0F7
:101DE000E0FE06C090E205C09DE203C09BE201C098
:101DF00090E0EE2DE07183FF3CC0911102C083E0C2
:101E000001C084E0811718F4212F281B01C020E0B5
:101E1000E1110BC0F601822F30E2882319F03193D3
:101E20008150FBCFC20ED11C20E0992329F0D601AE
:101E30009C93F60131966F01C6010396E2FE0AC03B
:101E40003EE4D6013C9341E411964C9311971296CF
:101E50003C9306C03EE6F601308341E6418332837F
:101E6000FC01322F40E2332309F442C04193315048
:101E7000FACF82FF44C0911102C083E001C084E028
:101E8000811718F4212F281B01C020E0E1110BC09D
:101E9000F601822F30E2882319F031938150FBCF75
:101EA000C20ED11C20E0992329F0D6019C93F601A3
:101EB00031966F01C6010396E2FE0BC039E4D601EC
:101EC0003C933EE411963C93119736E412963C9372
:101ED00007C039E6F60130833EE6318336E63283C9
:101EE000FC01322F40E2332319F041933150FBCFF4
:101EF000FC01E20FF11D10828EEF9FEFB7C0F1E001
:101F0000911101C0F0E06F2F70E01416150624F453
:101F10009A012F5F3F4F02C021E030E0260F371FAC
:101F2000BB2029F06B2D70E06F5F7F4F02C060E037
:101F300070E0260F371F612F70E0261737071CF45B
:101F4000121B212F01C020E03E2D387159F4D6011B
:101F5000322F60E2332319F06D933150FBCFC20E64
:101F6000D11C20E0FF2331F0D6019C93B6016F5FB6
:101F70007F4F6B01E1110BC0F601922F30E39923E3
:101F800019F031939150FBCFC20ED11C20E09F2D50
:101F9000940F3A81782F7071A72E84FF03C03133DC
:101FA00009F49150191624F4993018F098E001C002
:101FB00091E0E42F852F57FF02C0E0E080E06E2F14
:101FC000782FE0E0F0E0AEE29A2E3A01691A71084B
:101FD0002A01461A570A0B2D10E011950195110997
:101FE0006F3F8FEF780729F4D6019C92C6010196C6
:101FF0006C014617570784F0661677066CF47F016C
:10200000E40CF51CA1E0B0E0AC0FBD1FEA0EFB1E16
:10201000D7011196BC9002C090E3B92E61507109AE
:102020003196C60101967C016017710724F0D60134
:10203000BC926C01D5CF6417750741F4363320F498
:10204000353321F4A11002C081E3B82EF601B0822D
:10205000F701822F90E2882319F091938150FBCFF2
:10206000F701E20FF11D108280E090E029960FB693
:10207000F894DEBF0FBECDBFDF91CF911F910F91BE
:10208000FF90EF90DF90CF90BF90AF909F907F90A8
:102090006F905F904F900895A0E0B0E0E2E5F0E12E
:1020A0000C94D813EC017B016115710519F0DB016B
:1020B0008D939C938E010F5F1F4F7880872D90E04A
:1020C0000E948112892B11F0E801F4CFBDE27B124E
:1020D00005C00F5F1F4F7980C1E008C0EBE27E12A0
:1020E00004C08E010E5F1F4F7980C0E06801F1E0EF
:1020F000CF1AD10843E050E060E770E0C6010E94CB
:102100008A12892BF1F4680122E0C20ED11C45E04D
:1021100050E06BE670E0C6010E948A12892B21F420
:10212000680187E0C80ED11CE114F10419F0D70151
:10213000CD92DC92C111FFC060E070E080E89FE7C3
:1021400003C143E050E068E670E0C6010E948A12D5
:10215000892B51F4E114F10409F4F2C00E5F1F4F12
:10216000F70111830083ECC0680160E070E0CB01EF
:1021700000E010E0F601D0EDD70DDA3058F52C2F45
:102180002260622E2C2F2870C2FF05C0211128C0AA
:102190000F5F1F4F25C0222311F001501109A5E048
:1021A000B0E09B01AC010E94C9134B015C01880C9B
:1021B000991CAA1CBB1CC501B4016D0F711D811DAA
:1021C000911D6839A9E97A078A07A9E19A0740F0C1
:1021D000C66005C0DE3F51F4C3FD44C0C8606C2E2C
:1021E000BFEFCB1ADB0A7080C62DC4CF2D2F2F7DF9
:1021F0002531C1F540814D3211F4C06106C04B322A
:1022000021F0319621E030E006C03296D6011196D9
:102210004C9122E030E0A0EDA40FAA3018F0E21BB0
:10222000F30B20C040E050E04038BCE05B075CF4BA
:102230009A01220F331F220F331F420F531F440FE7
:10224000551F4A0F511D3196DF0111972C91A0EDBA
:10225000A20FAA3048F3C4FF03C05195419551091C
:10226000040F151FC1FF07C0E114F10421F03197DD
:10227000D701ED93FC930E94A712C370C33019F0ED
:102280006B017C0106C06B017C01F7FAF094F7F852
:10229000F09420E030E0A901C701B6010E94A2122B
:1022A000882309F445C017FF06C01195019511094F
:1022B000C7E8D0E002C0CFE9D0E05E01B8E1AB1AD8
:1022C000B1084601BE2DAF2D90E2E92EF12C0E157E
:1022D0001F0584F0FE012591359145915491B4017B
:1022E0008B2F9A2F0E9408134B01B82FA92F0E197C
:1022F0001F09EDCF2497F594E794CA15DB0539F74C
:102300006401EB2EFA2E8E2D880F8F2D881F8F3FA4
:1023100049F020E030E0A901C701B6010E94A212F5
:10232000811106C082E290E09093ED028093EC026E
:10233000C701B60109C060E070E080E89FEF04C00B
:1023400060E070E080EC9FE7CDB7DEB7EEE00C9484
:10235000F413283008F027E03327DA01990F311DF4
:1023600087FD916000966105710539F432602E5F3A
:102370003D9330E32A95E1F708959F3F30F0803890
:102380007105610509F03C5F3C5F3D93913008F0B9
:102390008068911DDF93CF931F930F93FF92EF926D
:1023A000192F987F9695E92F96959695E90FFF2717
:1023B000E350FF4F99273327EE24FF24A701E701BD
:1023C00005900894079428F4360FE71EF81E491F5D
:1023D000511D660F771F881F991F0694A1F705905E
:1023E000079428F4E70EF81E491F561FC11D770FEA
:1023F000881F991F661F0694A1F70590079428F47B
:10240000F80E491F561FC71FD11D880F991F661F41
:10241000771F0694A1F70590079420F4490F561FE3
:10242000C71FD81F990F661F771F881F0694A9F72B
:1024300084911095177041F0D695C795579547959B
:10244000F794E7941A95C1F7E3EAF0E068941590E1
:10245000159135916591959105907FE27395E118FD
:10246000F10A430B560BC90BD009C0F7E10CF11E62
:10247000431F561FC91FD01D7EF4703311F48A9577
:10248000E6CFE894015030F0080F0AF40027021755
:1024900008F4202F2395022F7A3328F079E37D93D7
:1024A0002A95E9F710C07D932A9589F606949795A9
:1024B0006795379517951794E118F10A430B560B5A
:1024C000C90BD00998F023957E9173957A3308F063
:1024D00070E37C932013B8F77E9170617D9330F0A8
:1024E000839571E37D9370E32A95E1F71124EF90D2
:1024F000FF900F911F91CF91DF91992787FD9095C4
:10250000089591110C947513803219F089508550FB
:10251000C8F70895FB01DC014150504088F08D91CF
:1025200081341CF08B350CF4805E659161341CF0B5
:102530006B350CF4605E861B611171F3990B089585
:10254000881BFCCF0E94E41208F481E00895E8940F
:1025500009C097FB3EF490958095709561957F4FEB
:102560008F4F9F4F9923A9F0F92F96E9BB27939599
:10257000F695879577956795B795F111F8CFFAF4A9
:10258000BB0F11F460FF1BC06F5F7F4F8F4F9F4FDA
:1025900016C0882311F096E911C0772321F09EE838
:1025A000872F762F05C0662371F096E8862F70E09E
:1025B00060E02AF09A95660F771F881FDAF7880F78
:1025C0009695879597F90895990F0008550FAA0BCE
:1025D000E0E8FEEF16161706E807F907C0F0121636
:1025E0001306E407F50798F0621B730B840B950B39
:1025F00039F40A2661F0232B242B252B21F408958E
:102600000A2609F4A140A6958FEF811D811D08952A
:102610000E941B130C948F130E94811338F00E94A8
:10262000881320F0952311F00C9478130C947E13EA
:1026300011240C94C3130E94A01370F3959FC1F34F
:10264000950F50E0551F629FF001729FBB27F00D60
:10265000B11D639FAA27F00DB11DAA1F649F6627B5
:10266000B00DA11D661F829F2227B00DA11D621F04
:10267000739FB00DA11D621F839FA00D611D221FBE
:10268000749F3327A00D611D231F849F600D211DA2
:10269000822F762F6A2F11249F5750409AF0F1F025
:1026A00088234AF0EE0FFF1FBB1F661F771F881F8E
:1026B00091505040A9F79E3F510580F00C9478133B
:1026C0000C94C3135F3FE4F3983ED4F3869577955B
:1026D0006795B795F795E7959F5FC1F7FE2B880F34
:1026E000911D9695879597F90895992788270895BC
:1026F00097F99F6780E870E060E008959FEF80ECB5
:10270000089500240A941616170618060906089557
:1027100000240A9412161306140605060895092EBD
:102720000394000C11F4882352F0BB0F40F4BF2B2C
:1027300011F460FF04C06F5F7F4F8F4F9F4F08956C
:1027400057FD9058440F551F59F05F3F71F0479562
:10275000880F97FB991F61F09F3F79F08795089547
:10276000121613061406551FF2CF4695F1DF08C066
:10277000161617061806991FF1CF86957105610583
:1027800008940895E894BB2766277727CB0197F92B
:1027900008950E940B14A59F900DB49F900DA49FC7
:1027A000800D911D112408952F923F924F925F92B8
:1027B0006F927F928F929F92AF92BF92CF92DF9251
:1027C000EF92FF920F931F93CF93DF93CDB7DEB7B6
:1027D000CA1BDB0B0FB6F894DEBF0FBECDBF09944A
:1027E0002A88398848885F846E847D848C849B84A1
:1027F000AA84B984C884DF80EE80FD800C811B81AF
:10280000AA81B981CE0FD11D0FB6F894DEBF0FBEDD
:10281000CDBFED010895A29FB001B39FC001A39F5A
:10282000700D811D1124911DB29F700D811D112409
:10283000911D08950E942E140C948F130E948813EA
:1028400058F00E94811340F029F45F3F29F00C9466
:10285000781351110C94C3130C947E130E94A0138F
:1028600068F39923B1F3552391F3951B550BBB27BF
:10287000AA2762177307840738F09F5F5F4F220F04
:10288000331F441FAA1FA9F335D00E2E3AF0E0E8FB
:1028900032D091505040E695001CCAF72BD0FE2F45
:1028A00029D0660F771F881FBB1F261737074807D9
:1028B000AB07B0E809F0BB0B802DBF01FF27935891
:1028C0005F4F3AF09E3F510578F00C9478130C94CA
:1028D000C3135F3FE4F3983ED4F3869577956795ED
:1028E000B795F7959F5FC9F7880F911D96958795C6
:1028F00097F90895E1E0660F771F881FBB1F6217E5
:1029000073078407BA0720F0621B730B840BBA0BA2
:10291000EE1F88F7E09508950E9493146894B11112
:102920000C94C31308950E94A81388F09F5798F041
:10293000B92F9927B751B0F0E1F0660F771F881FC4
:10294000991F1AF0BA95C9F714C0B13091F00E94DE
:10295000C213B1E008950C94C213672F782F882713
:10296000B85F39F0B93FCCF3869577956795B39505
:10297000D9F73EF490958095709561957F4F8F4F74
:102980009F4F0895A1E21A2EAA1BBB1BFD010DC08B
:10299000AA1FBB1FEE1FFF1FA217B307E407F5070F
:1029A00020F0A21BB30BE40BF50B661F771F881FEB
:1029B000991F1A9469F760957095809590959B0181
:1029C000AC01BD01CF010895EE0FFF1F0590F491FA
:1029D000E02D0994CF93DF938230910510F482E0CB
:1029E00090E0E091F002F091F10220E030E0C0E0F0
:1029F000D0E0309711F14081518148175907C0F05C
:102A00004817590761F482819381209719F09B83BD
:102A10008A832BC09093F1028093F00226C0211587
:102A2000310519F04217530718F49A01BE01DF016E
:102A3000EF010280F381E02DDCCF2115310509F192
:102A4000281B390B2430310590F412968D919C91FE
:102A500013976115710521F0FB019383828304C0F4
:102A60009093F1028093F002FD01329644C0FD0183
:102A7000E20FF31F81939193225031092D933C93E0
:102A80003AC02091EE023091EF02232B41F42091C5
:102A90004801309149013093EF022093EE022091DA
:102AA0004601309147012115310541F42DB73EB75C
:102AB00040914A0150914B01241B350BE091EE02ED
:102AC000F091EF02E217F307A0F42E1B3F0B28173B
:102AD000390778F0AC014E5F5F4F2417350748F097
:102AE0004E0F5F1F5093EF024093EE02819391933C
:102AF00002C0E0E0F0E0CF01DF91CF9108950F93A5
:102B00001F93CF93DF93009709F48CC0FC01329799
:102B1000138212820091F0021091F1020115110549
:102B200081F420813181820F931F2091EE02309138
:102B3000EF022817390779F5F093EF02E093EE02E0
:102B400071C0D80140E050E0AE17BF0750F41296B4
:102B50002D913C911397AD012115310509F1D90152
:102B6000F3CF9D01DA013383228360817181860F67
:102B7000971F8217930769F4EC0128813981260F8A
:102B8000371F2E5F3F4F318320838A819B81938340
:102B90008283452B29F4F093F102E093F00242C0C6
:102BA0001396FC93EE931297ED01499159919E0172
:102BB000240F351FE217F30771F480819181840F90
:102BC000951F029611969C938E9382819381139602
:102BD0009C938E931297E0E0F0E0D80112968D91CD
:102BE0009C911397009719F0F8018C01F6CF8D9105
:102BF0009C9198012E5F3F4F820F931F2091EE0210
:102C00003091EF022817390769F4309729F41092B0
:102C1000F1021092F00202C0138212821093EF02AE
:102C20000093EE02DF91CF911F910F910895A0E0E4
:102C3000B0E0EDE1F6E10C94D813EC01009721F43B
:102C4000CB010E94EA14B8C0FC01E60FF71F9C01FB
:102C500022503109E217F30708F4ACC0D9010D91F5
:102C60001C91119706171707B0F00530110508F4ED
:102C70009FC0C80104978617970708F499C00250AF
:102C80001109061B170B019311936D937C93CF01D0
:102C90000E947F158DC05B01A01AB10A4C01800E05
:102CA000911EA091F002B091F10240E050E0E12CC1
:102CB000F12C109709F44AC0A815B905D1F56D900B
:102CC0007C901197630182E0C80ED11CCA14DB040A
:102CD00080F1A3014A195B096A0182E0C80ED11C88
:102CE0001296BC9012971396AC91B5E0CB16D10416
:102CF00040F0B282A38351834083D9016D937C93CA
:102D00000AC00E5F1F4FC301800F911FF90191830D
:102D10008083EB2DFA2FE114F10431F0D7011396E3
:102D2000FC93EE93129744C0F093F102E093F0020B
:102D30003FC08D919C9111974817590708F4AC0139
:102D40007D0112960D90BC91A02DB3CF8091EE0223
:102D50009091EF0288159905E1F446175707C8F4DA
:102D60008091460190914701009741F48DB79EB73D
:102D700040914A0150914B01841B950BE817F907CC
:102D8000C8F4F093EF02E093EE02F90171836083DF
:102D90000FC0CB010E94EA147C01009759F0A801F2
:102DA000BE010E94E616CE010E947F15C70104C035
:102DB000CE0102C080E090E0CDB7DEB7EEE00C942B
:102DC000F41381E090E0F8940C940A17FB01DC0105
:102DD00002C001900D9241505040D8F70895FB0178
:102DE000DC010D900020E9F7119701900D92002071
:102DF000E1F70895FB01DC018D910190801901102C
:102E0000D9F3990B0895FB01DC0101900D9200208C
:102E1000E1F7089510E0CDEFD0E004C0FE010E947C
:0E2E2000E4142196CE3FD107C9F7F894FFCFF6
:102E2E000C0A2A2A2A2A2A2A382C0000000000001E
:102E3E000000000000000000000000000000000084
:102E4E000000000000000000000000000000000074
:102E5E000000000000000000000000000000000064
:102E6E000000000000000000F202800000000100DF
:102E7E000800400000010004050D0D0E1315161973
:102E8E001A1C232526292A2C323400000000940116
:102E9E008C052C01DB015D013B014F014265676929
:102EAE006E20726563657665696E67000D0A004275
:102EBE0000696E6974206465766963652074726159
:102ECE006E736D697373696F6E004F4B00474F00E1
:102EDE0053746F72652064617461004B4F002A2336
:102EEE0000585800232A00303030302E3030000089
:107800000C94343C0C94513C0C94513C0C94513CE1
:107810000C94513C0C94513C0C94513C0C94513CB4
:107820000C94513C0C94513C0C94513C0C94513CA4
:107830000C94513C0C94513C0C94513C0C94513C94
:107840000C94513C0C94513C0C94513C0C94513C84
:107850000C94513C0C94513C0C94513C0C94513C74
:107860000C94513C0C94513C11241FBECFEFD8E036
:10787000DEBFCDBF11E0A0E0B1E0ECE9FFE702C060
:1078800005900D92A230B107D9F712E0A2E0B1E065
:1078900001C01D92AD30B107E1F70E942D3D0C945F
:1078A000CC3F0C94003C982F959595959595959582
:1078B000905D8F708A307CF0282F295A8091C0000B
:1078C00085FFFCCF9093C6008091C00085FFFCCF60
:1078D0002093C6000895282F205DF0CF982F809127
:1078E000C00085FFFCCF9093C6000895EF92FF92F1
:1078F0000F931F93EE24FF2487018091C00087FD22
:1079000017C00894E11CF11C011D111D81E4E8164B
:1079100082E4F8068FE0080780E0180770F3E09132
:107920000401F091050109958091C00087FFE9CF1E
:107930008091C6001F910F91FF90EF9008950E94D3
:10794000763C982F8091C00085FFFCCF9093C600B5
:1079500091362CF490330CF09053892F089597555D
:10796000892F08951F930E949F3C182F0E949F3CCF
:107970001295107F810F1F9108951F93182F882350
:1079800021F00E94763C1150E1F71F9108951F935A
:10799000182F0E94763C803249F0809103018F5F5E
:1079A000809303018530C1F01F9108958091C0003C
:1079B00085FFFCCF84E18093C6008091C00085FFE5
:1079C000FCCF1093C6008091C00085FFFCCF80E102
:1079D0008093C6001F910895E0910401F091050184
:1079E00009951F9108950E94763C803241F0809164
:1079F00003018F5F80930301853081F008958091AA
:107A0000C00085FFFCCF84E18093C6008091C00058
:107A100085FFFCCF80E18093C6000895E0910401CA
:107A2000F09105010995089540E951E08823A1F0FE
:107A30002D9A28EE33E0FA013197F1F721503040CA
:107A4000D1F72D9828EE33E0FA013197F1F7215064
:107A50003040D1F7815061F708953F924F925F9285
:107A60006F927F928F929F92AF92BF92CF92DF924E
:107A7000EF92FF920F931F93CF93DF93000080E16B
:107A80008093C4001092C50088E18093C10086E015
:107A90008093C2005098589A259A81E00E94143D24
:107AA00024E1F22E9EE1E92E85E9D82E0FE0C02ECA
:107AB00010E1B12EAA24A394B1E49B2EA6E58A2E50
:107AC000F2E57F2EE0E26E2E79E4572E63E5462E36
:107AD00050E5352E0E94763C8033B1F18133B9F107
:107AE000803409F46FC0813409F476C0823409F41B
:107AF00085C0853409F488C0803531F1823521F1A3
:107B0000813511F1853509F485C0863509F48DC0BC
:107B1000843609F496C0843709F403C1853709F423
:107B200072C1863709F466C0809103018F5F80932C
:107B30000301853079F6E0910401F0910501099582
:107B40000E94763C803351F60E94F33CC3CF0E94E2
:107B5000763C803249F78091C00085FFFCCFF092DF
:107B6000C6008091C00085FFFCCF9092C600809136
:107B7000C00085FFFCCF8092C6008091C00085FFC9
:107B8000FCCF7092C6008091C00085FFFCCF609250
:107B9000C6008091C00085FFFCCF5092C600809146
:107BA000C00085FFFCCF4092C6008091C00085FFD9
:107BB000FCCF3092C6008091C00085FFFCCFB09210
:107BC000C60088CF0E94763C863808F4BDCF0E945C
:107BD000763C0E94F33C7ECF0E94763C803809F4CC
:107BE0009CC0813809F40BC1823809F43CC1883942
:107BF00009F48FC080E00E94C73C6CCF84E10E94F2
:107C0000BD3C0E94F33C66CF85E00E94BD3C0E94D3
:107C1000F33C60CF0E94763C809306010E94763C44
:107C2000809307010E94F33C55CF0E94763C80333D
:107C300009F41DC183E00E94BD3C80E00E94C73C66
:107C400049CF0E94763C809309020E94763C809343
:107C5000080280910C028E7F80930C020E94763C79
:107C6000853409F415C18091080290910902892B8D
:107C700089F000E010E00E94763CF801E85FFE4FDA
:107C800080830F5F1F4F80910802909109020817AF
:107C9000190788F30E94763C803209F045CF809125
:107CA0000C0280FF01C16091060170910701660F0F
:107CB000771F7093070160930601A0910802B091AD
:107CC00009021097C9F0E8E0F1E09B01AD014E0F09
:107CD0005F1FF999FECF32BD21BD819180BDFA9A17
:107CE000F99A2F5F3F4FE417F50799F76A0F7B1F4B
:107CF00070930701609306018091C00085FFFCCF5F
:107D0000F092C6008091C00085FFFCCFB092C60003
:107D1000E1CE83E00E94C73CDDCE82E00E94C73CFA
:107D2000D9CE0E94763C809309020E94763C8093D3
:107D300008028091060190910701880F991F909386
:107D40000701809306010E94763C853409F4A6C0A1
:107D500080910C028E7F80930C020E94763C8032D0
:107D600009F0B8CE8091C00085FFFCCFF092C6002C
:107D7000609108027091090261157105B9F140E046
:107D800050E080910C02A82FA170B82FB27011C0E2
:107D9000BB2309F45CC0E0910601F0910701319624
:107DA000F0930701E09306014F5F5F4F46175707B7
:107DB000E8F4AA2369F3F999FECF209106013091E6
:107DC000070132BD21BDF89A90B58091C00085FFB2
:107DD000FCCF9093C6002F5F3F4F30930701209355
:107DE00006014F5F5F4F4617570718F38091C00099
:107DF00085FDE5CE8091C00085FFF8CFE0CE81E023
:107E00000E94C73C67CE0E94763C803209F08CCE3F
:107E10008091C00085FFFCCFF092C6008091C00029
:107E200085FFFCCFE092C6008091C00085FFFCCFAB
:107E3000D092C6008091C00085FFFCCFC092C600E2
:107E40008091C00085FFFCCFB092C60043CEE09188
:107E50000601F091070194918091C00085FFFCCF4D
:107E60009093C6009CCF80E10E94C73C33CE0E9415
:107E7000763C0E94763C182F0E94763C112309F430
:107E800083C0113009F484C08FE00E94C73C22CE29
:107E900080910C02816080930C02E5CE80910C02EF
:107EA000816080930C0259CF809107018823880F4D
:107EB000880B8A2180930B02809106019091070123
:107EC000880F991F90930701809306018091080203
:107ED00080FF09C080910802909109020196909359
:107EE000090280930802F894F999FECF1127E091D6
:107EF0000601F0910701C8E0D1E08091080290915D
:107F00000902103091F40091570001700130D9F34B
:107F100003E000935700E89500915700017001308D
:107F2000D9F301E100935700E89509901990009169
:107F3000570001700130D9F301E000935700E89534
:107F40001395103498F011270091570001700130FB
:107F5000D9F305E000935700E895009157000170B0
:107F60000130D9F301E100935700E895329602976A
:107F700009F0C7CF103011F00296E5CF112480919F
:107F8000C00085FFB9CEBCCE8EE10E94C73CA2CD19
:0C7F900085E90E94C73C9ECDF894FFCF0D
:027F9C00800063
:040000030000780081
:00000001FF