:100000000C94FE000C9426010C9426010C942601FD
:100010000C9426010C9426010C9426010C942601C4
:100020000C9426010C9426010C9426010C94B8041F
:100030000C9426010C9426010C9426010C942601A4
:100040000C946E040C9426010C941B030C94F50282
:100050000C9426010C9426010C9426010C94260184
:100060000C9426010C9426014E414E494E49545998
:10007000494E46CDCCCC3D0AD7233C17B7D1387773
:10008000CC2B329595E6241FB14F0A000020410089
:1000900000C84200401C4620BCBE4CCA1B0E5AAED3
:1000A000C59D7400407A10F35A00A0724E180900E2
:1000B00010A5D4E80000E87648170000E40B5402CD
:1000C0000000CA9A3B000000E1F505000080969808
:1000D00000000040420F000000A086010000001058
:1000E0002700000000E8030000000064000000009A
:1000F000000A00000000000100000000002C76D87B
:1001000088DC674F0823DFC1DFAE59E1B1B796E560
:10011000E3E453C63AE651997696E8E6C28426EBC4
:10012000898C9B62ED407C6FFCEFBC9C9F40F2BAD7
:10013000A56FA5F490055A2AF75C936B6CF9676D6F
:10014000C11BFCE0E40D47FEF520E6B500D0ED90C4
:100150002E0300943577050080841E080000204E91
:100160000A000000C80C333333330F986E1283112A
:1001700041EF8D2114893BE65516CFFEE6DB18D101
:10018000844B381BF77C1D901DA4BBE424203284D3
:10019000725E228100C9F124ECA1E53D2700000038
:1001A00000240027002A0000000000250028002B62
:1001B00000000000002300260029000404040404B9
:1001C0000404040202020202020303030303030104
:1001D00002040810204080010204081020010204DB
:1001E00008102000000008000201000003040700BE
:1001F0000000000000000000A10E7D0E11241FBEB3
:10020000CFEFD8E0DEBFCDBF23E0A0EFB1E001C06B
:100210001D92A631B207E1F711E0A0E0B1E0E6E2FD
:10022000FFE202C005900D92A03FB107D9F710E0A0
:10023000CDEFD0E004C02197FE010E946015CC3FB5
:10024000D107C9F70E94C80B0C9486170C940000C4
:100250000895CF92DF92EF92FF920F931F93CF9367
:10026000DF936C017A018B01C0E0D0E0CE15DF0591
:1002700089F0D8016D918D01D601ED91FC9101902D
:10028000F081E02DC6010995892B11F47E0102C091
:100290002196ECCFC701DF91CF911F910F91FF9075
:1002A000EF90DF90CF900895089580E090E008955A
:1002B000FC01538D448D252F30E0842F90E0821B6C
:1002C000930B541710F0CF96089501970895FC01F1
:1002D000918D828D981761F0828DDF01A80FB11D7D
:1002E0005D968C91928D9F5F9F73928F90E00895A1
:1002F0008FEF9FEF0895FC01918D828D981731F05B
:10030000828DE80FF11D858D90E008958FEF9FEFAE
:100310000895FC01918D228D892F90E0805C9F4F84
:10032000821B91098F739927089580E392E00E94C0
:10033000890121E0892B09F420E0822F0895FC0136
:10034000848DDF01A80FB11DA35ABF4F2C91848D5E
:1003500090E001968F739927848FA689B7892C9393
:10036000A089B1898C9180648C93938D848D98132E
:1003700006C00288F389E02D80818F7D80830895F7
:10038000EF92FF920F931F93CF93DF93EC0181E0E5
:10039000888F9B8D8C8D981305C0E889F9898081A1
:1003A00085FD24C0F62E0B8D10E00F5F1F4F0F73DD
:1003B0001127E02E8C8DE8120CC00FB607FCFACF87
:1003C000E889F989808185FFF5CFCE010E949F01E0
:1003D000F1CF8B8DFE01E80FF11DE35AFF4FF08244
:1003E0000B8FEA89FB898081806207C0EE89FF89D3
:1003F0006083E889F98980818064808381E090E06E
:10040000DF91CF911F910F91FF90EF900895CF93BF
:10041000DF93EC01888D8823C9F0EA89FB8980810C
:1004200085FD05C0A889B9898C9186FD0FC00FB6DE
:1004300007FCF5CF808185FFF2CFA889B9898C911F
:1004400085FFEDCFCE010E949F01E7CFDF91CF91D5
:10045000089580E090E0892B29F00E949501811198
:100460000C9400000895833081F028F4813099F0D5
:100470008230A1F008958730A9F08830B9F0843037
:10048000D1F4809180008F7D03C0809180008F77B0
:1004900080938000089584B58F7702C084B58F7DE6
:1004A00084BD08958091B0008F7703C08091B00023
:1004B0008F7D8093B0000895CF93DF93282F30E095
:1004C000F901ED51FE4F8491F901E153FE4FD491B2
:1004D000F901E554FE4FC491CC2391F081110E94A3
:1004E0003302EC2FF0E0EE0FFF1FEF54FE4FA5910B
:1004F000B491EC91ED2381E090E021F480E002C022
:1005000080E090E0DF91CF910895CF93DF9390E06A
:10051000FC01E153FE4F2491FC01E554FE4F849110
:10052000882361F190E0880F991FFC01E356FE4F8C
:10053000C591D491FC01E955FE4FA591B49161118B
:1005400009C09FB7F8948881209582238883EC9115
:100550002E230BC0623061F49FB7F8943881822F4C
:10056000809583238883EC912E2B2C939FBF06C00C
:100570008FB7F894E8812E2B28838FBFDF91CF911E
:100580000895FB01DC0111961C921E9213961C9299
:100590001E92129715961C921E9214978617970713
:1005A00049F0608171816115710521F044815581A7
:1005B0000C94C9070895FC01808191810C94FB156E
:1005C000FC0111821082138212821582148261153D
:1005D000710551F0FB0101900020E9F73197AF015F
:1005E000461B570B0C94C90708951F920F920FB624
:1005F0000F9211242F933F934F935F936F937F93A9
:100600008F939F93AF93BF93EF93FF9380E392E019
:100610000E949F01FF91EF91BF91AF919F918F91A8
:100620007F916F915F914F913F912F910F900FBEEE
:100630000F901F9018951F920F920FB60F921124D2
:100640002F938F939F93EF93FF93E0914002F0914C
:1006500041028081E0914602F091470282FD12C082
:100660009081809149028F5F8F7320914A02821797
:1006700051F0E0914902F0E0E05DFD4F958F8093ED
:10068000490201C08081FF91EF919F918F912F913D
:100690000F900FBE0F901F9018951F93CF93DF936D
:1006A000282F30E0F901ED51FE4F8491F901E1531B
:1006B000FE4FD491F901E554FE4FC491CC23C9F00B
:1006C000162F81110E943302EC2FF0E0EE0FFF1F76
:1006D000E955FE4FA591B4918FB7F894111105C05B
:1006E0009C91ED2FE095E92302C0EC91ED2BEC936A
:1006F0008FBFDF91CF911F9108954F925F926F92BC
:100700007F928F929F92AF92BF92EF92FF921F9330
:10071000CF93DF93CDB7DEB72E970FB6F894DEBF39
:100720000FBECDBF2EE0ECE4F1E0DE0111960190AA
:100730000D922A95E1F7009709F497C0BC0180E07B
:1007400090E00E9423139B01AC0160E070E080E820
:100750009FE30E94961420E030E040E05EE30E94B8
:1007600084134B015C017E0123E0E20EF11C11E0D9
:10077000F701819191917F01BC0180E090E00E949E
:1007800023139B01AC0160E074E284EF9AE40E94C1
:1007900096149B01AC0160E070E080E89FE30E944A
:1007A00096149B01AC01C501B4010E9496140E94ED
:1007B00008152B013C01F2E04F1A5108610871083D
:1007C0002DEF42162FEF52066104710408F44BC05E
:1007D0001F5F173069F6623071058105910508F4D5
:1007E00044C061157105E1E08E079105F0F5112314
:1007F000E1F11092800028E0209381002091810097
:10080000122B10938100709389006093880080916F
:100810006F00826080936F0061E0809100010E9410
:10082000850260E08BE00E94850261E08091010119
:100830000E94850260912A02809101012E960FB6D6
:10084000F894DEBF0FBECDBFDF91CF911F91FF9017
:10085000EF90BF90AF909F908F907F906F905F9040
:100860004F900C944D03163011F62E960FB6F89457
:10087000DEBF0FBECDBFDF91CF911F91FF90EF90F4
:10088000BF90AF909F908F907F906F905F904F90B0
:1008900008953FB7F8948091FD019091FE01A091D9
:1008A000FF01B091000226B5A89B05C02F3F19F0AB
:1008B0000196A11DB11D3FBFBA2FA92F982F8827E0
:1008C000820F911DA11DB11DBC01CD0143E0660F3A
:1008D000771F881F991F4A95D1F708951F920F928D
:1008E0000FB60F9211242F933F938F939F93AF9343
:1008F000BF938091220290912302A0912402B09193
:1009000025023091FC0126E0230F2D3720F40296BA
:10091000A11DB11D05C029E8230F0396A11DB11D1E
:100920002093FC018093220290932302A09324023F
:10093000B09325028091FD019091FE01A091FF01ED
:10094000B09100020196A11DB11D8093FD0190930D
:10095000FE01A093FF01B0930002BF91AF919F9160
:100960008F913F912F910F900FBE0F901F90189570
:100970001F920F920FB60F9211242F933F934F9314
:100980005F936F937F938F939F93AF93BF93CF9317
:10099000EF93FF93C0910202CC2321F080912E02AD
:1009A0008823B1F180912E02882321F180912B02BE
:1009B00091E0980F90932B0281111CC0E0912D02C1
:1009C00080912F02E81750F160912A028091010175
:1009D0000E944D0360E0809100010E944D0310923F
:1009E0002E028091F9019091FA0101969093FA01FB
:1009F0008093F90180912B02883010F010922B0225
:100A0000CC2309F4D6C040912E02442341F1D1C039
:100A10008BE00E945C028093FB01C4CFF0E0EE5FAC
:100A2000FE4F908180912C0221E0280F20932C0210
:100A300061E070E001C0660F8A95EAF76923809152
:100A400000010E944D0380912C02863098F2109292
:100A50002C0280912D028F5F80932D02CBCF80914D
:100A6000FB01882329F09091F8019F5F9093F80192
:100A70002091F7019091F601821759F0903510F00E
:100A80002DE101C02BE0920F9093F6018093F701C6
:100A900003C09C5E9093F6019091F601903A08F4A1
:100AA00088C02091F4013091F50136952795309357
:100AB000F5012093F4018091F801853028F0386029
:100AC0003093F5012093F401905A9093F60110921F
:100AD000F80180910102882309F45BC09091F30131
:100AE0009F5F9093F3019C3008F463C02091F40160
:100AF0003091F501822F8F73EAE5F1E0DF0190E09C
:100B00005D91851721F09F5F9031D1F790E050E122
:100B1000959FC001112496E0369527959A95E1F7A7
:100B200030E05191251721F03F5F3031D1F701C0FE
:100B3000432F842B9091210291110EC08093F201DA
:100B40009CEF980F9B3140F0109201028091F101CF
:100B50008F5F8093F1012DC0E091210291E09E0F03
:100B600090932102F0E0ED5FFD4F80839091210290
:100B70008091F201981750F0109201028091F001DB
:100B80008F5F8093F00181E0809326021092F30141
:100B900010C08091F4019091F50188339B4049F495
:100BA00081E0809301021092F301109221021092D1
:100BB0002602FF91EF91CF91BF91AF919F918F91BD
:100BC0007F916F915F914F913F912F910F900FBE49
:100BD0000F901F9018950E945D17FC0124813581AC
:100BE000FB01448155812417350721F5FC018081E3
:100BF0009181FB0160817181009719F06115710588
:100C0000A1F46115710549F0232BB1F0FB0180813E
:100C100090E09195819591090AC0009769F0232B86
:100C200059F0FC01808190E002C00E94761721E01B
:100C3000892B19F020E001C021E0822F0895009750
:100C400069F0FC0101900020E9F73197AF01481BE2
:100C5000590BBC0180E392E00C94290180E090E004
:100C60000895CF93DF930E941F06EC018CE891E07A
:100C70000E941F068C0F9D1FDF91CF910895CF9387
:100C8000DF9320912E022111FCCF2EE020930A0148
:100C90002AE120930B01DC0140E050E080E39AE779
:100CA000BD01ED912E2F282730E1239FE001112473
:100CB000C2272C2F30E0D22FCC27892F99278C2BBD
:100CC0009D2BE901F4E0D595C795FA95E1F78C27BE
:100CD0009D27C3E0220F331FCA95E1F78227932790
:100CE000EA01CE5FDE4FF0E024E0F595E7952A9526
:100CF000E1F7E65AFE4F20812A87FB012081E22F8F
:100D0000EF70F0E0E65AFE4F20812B874E5F5F4F79
:100D10004632510529F680959095FC0124E0F69520
:100D2000E7952A95E1F7EF70FF27E65AFE4F2081FD
:100D300020933201FC01EF70FF27E65AFE4F20811D
:100D400020933301FC01EF2FFF27E295EF70E65A65
:100D5000FE4F208120933401E92FFF27EF70FF27FA
:100D6000E65AFE4F80818093350184E380932F0201
:100D700010922D0210922C0210922B0260912A02E6
:100D8000C1E06C27809101010E944D03C0932E02A7
:100D900081E0DF91CF910895CF92DF92EF92FF92A1
:100DA0000F931F93CF93DF93CDB7DEB76A970FB63C
:100DB000F894DEBF0FBECDBF6B017C0188E0E8EE8A
:100DC000F1E0DE01539601900D928A95E1F76FED07
:100DD00071E0CE0101960E947F1767E272E0CE01BA
:100DE00001960E946B1762EE71E0CE0101960E949F
:100DF0006B178E010D5E1F4F22E047E0C701B60161
:100E00000E94160FB801CE0101960E946B1765EE85
:100E100071E0CE0101960E946B17CE0101960E94EF
:100E20003F0680912E028111FCCF6A960FB6F8948E
:100E3000DEBF0FBECDBFDF91CF911F910F91FF900D
:100E4000EF90DF90CF9008958F929F92AF92BF92D4
:100E5000CF92DF92EF92FF920E9449044B015C0116
:100E600084EFC82EDD24D394E12CF12C0E94490498
:100E7000DC01CB0188199909AA09BB09883E934076
:100E8000A105B10558F021E0C21AD108E108F10826
:100E900088EE880E83E0981EA11CB11CC114D104F9
:100EA000E104F10419F7FF90EF90DF90CF90BF902D
:100EB000AF909F908F900895CF93DF93FC01448172
:100EC00055816081718180E392E00E942901EC01EB
:100ED0008CE891E00E941F068C0F9D1FDF91CF913F
:100EE0000895FC0124813581232B31F421E0611523
:100EF0007105A1F0FB0108C0FC01808191816115A1
:100F0000710531F421E0FC018081882339F005C0AE
:100F10000E94761721E0892B09F020E0822F0895A6
:100F20000F931F93CF93DF938C01EB01FC01808122
:100F300091810097B1F0688179816115710579F02F
:100F4000428153812C813D814217530740F00E941A
:100F50007F178C819D81F8019583848313C00E9443
:100F6000FB1588819981F801918380838A819B8117
:100F7000938382838C819D819583848319821882D7
:100F80001B821A821D821C82DF91CF911F910F91CB
:100F90000895EF92FF920F931F93CF93DF93EC018D
:100FA0007B018A0188819981009729F02A813B8100
:100FB00024173507F8F4B8016F5F7F4F0E9493162E
:100FC000009759F0998388831B830A832C813D8184
:100FD000232B81F4FC0110820DC088819981009738
:100FE00011F00E94FB15198218821D821C821B823F
:100FF0001A8207C01D830C83B701888199810E94E2
:101000007F17CE01DF91CF911F910F91FF90EF904D
:101010000895BF92CF92DF92EF92FF920F931F93AA
:10102000CF93DF937C016B01EA0189012417350717
:1010300020F48D2FE901042F182F6EE871E0C7010D
:101040000E94E002D60114968D919C911597C817C5
:10105000D907C8F58017910708F48C01D601ED91E6
:10106000FC911197E00FF11FB08010824D915C91BF
:10107000BA016C0F7D1F6115710561F0FB010190D4
:101080000020E9F73197AF01461B570BC7010E94BB
:10109000C90713C0F70180819181009711F00E9468
:1010A000FB15D70111961C921E9215961C921E924A
:1010B000149713961C921E921297D601ED91FC91F3
:1010C000E00FF11FB082C701DF91CF911F910F9107
:1010D000FF90EF90DF90CF90BF9008958F929F92F6
:1010E000AF92BF92CF92DF92EF92FF920F931F9336
:1010F000CF93DF93CDB7DEB7CF54D1090FB6F894B5
:10110000DEBF0FBECDBF7C016FED71E0CE01865B0F
:101110009F4F0E94E00265EE71E0CE018C5B9F4F15
:101120000E94E0028FB7F89440912202509123026E
:1011300060912402709125028FBF80912602811157
:1011400014C02FB7F8948091220290912302A091AD
:101150002402B09125022FBF841B950BA60BB70B61
:10116000883E9340A105B10540F38091260280910D
:101170002602882309F4DDC2409121024350433105
:1011800008F043E150E064E072E0CE0101960E9475
:1011900062171092260260912102E3E0F2E04FEF25
:1011A0005FEF615000F12191822F842790E1899FA8
:1011B000900111242827822F90E0382F2227452FD5
:1011C0005527422B532B9C01A4E035952795AA95D2
:1011D000E1F742275327B3E0880F991FBA95E1F74B
:1011E00048275927DECF483B504F09F0A2C2BE0125
:1011F0006F5F7F4FCE01CE960E94E002CEACDFAC97
:10120000C114D10409F442C024960EAD1FAD249739
:1012100001151105D9F146015401FFEF8F1A9F0AFC
:10122000F5018081082E000C990B0E94FD12892B7C
:1012300099F7015011090C0D1D1DF8018081082E30
:10124000000C990B0E94FD12892B89F4A8014F5FB5
:101250005F4F4A195B0924965FAF4EAF2497CA14BB
:10126000DB0458F4B501C6010E94621706C00A15D6
:101270001B0560F301501109E0CFEEADFFAD2496E0
:101280008EAD9FAD2497E80FF91F108224968EAD86
:101290009FAD24970F9709F0A7C022E030E040E00F
:1012A00050E0BE01625C7F4FCE0144960E94090867
:1012B000BE01665B7F4FCE0144960E94ED058823F8
:1012C000E9F12FE030E04DE050E0BE01625C7F4F7D
:1012D000CE014A960E940908BE016C5B7F4FCE0189
:1012E0004A960E94ED05882319F12DE030E046E092
:1012F00050E0BE01625C7F4FCE0180960E940908DB
:1013000088A199A1009719F00E94360F03C060E0F0
:1013100070E0CB0111E020E030E0A9010E941E1333
:10132000811101C010E0CE0180960E94DB0201C055
:1013300010E0CE014A960E94DB0201C010E0CE010F
:1013400044960E94DB02112309F44EC024E030E0F1
:1013500042E050E0BE01625C7F4FCE0144960E94A5
:101360000908BE016C5E7F4F80EE92E00E949007FC
:10137000CE0144960E94DB0226E030E044E050E0DB
:10138000BE01625C7F4FCE0144960E940908BE01F7
:101390006C5E7F4F8CEE92E00E949007CE014496E7
:1013A0000E94DB021092D9022DE030E046E050E0CE
:1013B000BE01625C7F4FCE0144960E9409088C8971
:1013C0009D89009719F00E94360F03C060E070E01D
:1013D000CB010E940F156093D802CE0144960E9463
:1013E000DB0262EB71E09DC124968EAD9FAD249728
:1013F0000F9709F0A4C122E030E040E050E0BE01C8
:10140000625C7F4FCE0144960E940908BE01665B74
:101410007F4FCE0144960E94ED05882309F491C1C7
:1014200024E030E042E050E0BE01625C7F4FCE013C
:101430004A960E94090860EE72E0CE014A960E9428
:10144000ED05882309F47FC126E030E044E050E058
:10145000BE01625C7F4FCE0180960E9409086CEE4F
:1014600072E0CE0180960E94ED05882309F46DC1DB
:101470002FE030E04DE050E0BE01625C7F4FCE01D6
:1014800086960E940908BE016C5B7F4FCE0186964E
:101490000E94ED05882311F12DE030E046E050E098
:1014A000BE01625C7F4FCE018C960E9409088CA51C
:1014B0009DA5009719F00E94360F03C060E070E010
:1014C000CB0111E020E030E0A9010E941E13811140
:1014D00010E0CE018C960E94DB0201C010E0CE012C
:1014E00086960E94DB02CE0180960E94DB02CE012E
:1014F0004A960E94DB02CE0144960E94DB02112331
:1015000061F09091D9028091D802981303C06BECDE
:1015100071E007C16CED71E004C124968EAD9FAD02
:101520002497429709F0FBC024E030E042E050E00D
:10153000BE01625C7F4FCE0186960E94090860EE74
:1015400072E0CE0186960E94ED05882309F4FFC063
:1015500022E030E040E050E0BE01625C7F4FCE010F
:101560008C960E940908BE01665B7F4FCE018C9667
:101570000E94ED05882389F122E130E040E150E04E
:10158000BE01625C7F4FCE01C2960E940908BE0177
:101590006C5B7F4FCE01C2960E94ED058823C9F097
:1015A00027E030E045E050E0BE01625C7F4FCE01B5
:1015B000C8960E9409086CEE72E0CE01C8960E949F
:1015C000ED0511E0811101C010E0CE01C8960E9426
:1015D000DB02CE01C2960E94DB02CE018C960E94F5
:1015E000DB02CE0186960E94DB02112309F497C02C
:1015F00022E030E040E050E0BE01625C7F4FCE016F
:10160000C2960E940908BE016E5C7F4F8AED92E08F
:101610000E949007CE01C2960E94DB0225E030E0D6
:1016200044E050E0BE01625C7F4FCE01C2960E9452
:101630000908BE016E5C7F4F86EE92E00E94900723
:10164000CE01C2960E94DB022EE030E047E050E07F
:10165000BE01625C7F4FCE01C2960E940908BE01A6
:101660006E5C7F4F88EF92E00E949007CE01C29699
:101670000E94DB022FE030E04EE050E0BE01625CF1
:101680007F4FCE01C2960E940908BE016E5C7F4F5B
:101690008EEF92E00E949007CE01C2960E94DB027C
:1016A00020E130E04FE050E0BE01625C7F4FCE01B0
:1016B000C2960E940908BE016E5C7F4F84E093E0F1
:1016C0000E949007CE01C2960E94DB0222E130E028
:1016D00040E150E0BE01625C7F4FCE01C2960E94A5
:1016E0000908BE016E5C7F4F8AE093E00E9490077C
:1016F000CE01C2960E94DB028091D9028F5F809357
:10170000D902F7011182108213821282158214828B
:10171000BE01625C7F4FC7010E94900705C06EE862
:1017200071E0C7010E94E002CE01CE960E94DB026A
:1017300010C06EE871E0C7010E94E0020AC010E02C
:10174000DECE10E0D8CE10E0D2CE10E0CCCE10E04D
:1017500048CFCE018C5B9F4F0E94DB02CE01865B9F
:101760009F4F0E94DB02C701C15BDF4F0FB6F894A9
:10177000DEBF0FBECDBFDF91CF911F910F91FF90C4
:10178000EF90DF90CF90BF90AF909F908F90089593
:10179000CF93DF93CDB7DEB7E0970FB6F894DEBFF7
:1017A0000FBECDBF789484B5826084BD84B581605E
:1017B00084BD85B5826085BD85B5816085BD80911C
:1017C0006E00816080936E00109281008091810094
:1017D000826080938100809181008160809381008C
:1017E000809180008160809380008091B10084604E
:1017F0008093B1008091B00081608093B0008091AF
:101800007A00846080937A0080917A00826080936D
:101810007A0080917A008E7F80937A0080917A009E
:10182000806880937A001092C100E0914002F091AC
:10183000410282E08083E0913C02F0913D021082FF
:10184000E0913E02F0913F0287E6808310924802C9
:10185000E0914402F091450286E08083E0914202EB
:10186000F0914302808180618083E0914202F09197
:101870004302808188608083E0914202F0914302BC
:10188000808180688083E0914202F09143028081F0
:101890008F7D808361E08DE00E9485028091D5027A
:1018A0008093010110922A028091D402809300015A
:1018B0008091D6029091D7020E947D03809102020E
:1018C000811105C081E08093020210920102809193
:1018D000CF028093010110922A028091CE02809360
:1018E00000018091D0029091D1020E947D038CE78B
:1018F00091E00E94310662E084E00E94850262E08D
:1019000085E00E94850262E086E00E94850262E036
:1019100087E00E94850262E088E00E94850210E074
:10192000A12CB12C5AE0452E512C612C712C04E0D5
:101930000A0D802F0E945C026C01990FEE08FF08CF
:10194000F7FE26C0E0913002F09131020190F08163
:10195000E02D6DE280E392E0099522273327A9016B
:101960002C193D094E095F0919A2CE0181967C010F
:10197000CA01B901A30192010E943E15605DF70101
:1019800062937F01211531054105510589F715C085
:10199000A701960119A2CE0181967C01CA01B90165
:1019A000A30192010E943E15605DF70162937F01E1
:1019B000211531054105510589F7C7010E941F0610
:1019C0008CE891E00E941F06802F0E945C020A2C86
:1019D00001C0880F0A94EAF7182BFFEFAF1ABF0A6D
:1019E00085E0A816B10409F0A2CF1E511A3010F0FC
:1019F00042E001C041E0842F90E048AB0E946615B0
:101A00007C01612F70E080E090E00E942313870149
:101A100020E048A90E94160FC7010E9431066FE816
:101A200071E087E292E00E947F17B70187E292E0BF
:101A30000E946B1730E4B32E48E0A42E81E991E0B8
:101A40000E941F0687E292E00E941F068EE991E045
:101A50000E9431066EE871E0CE018A960E94E00293
:101A6000CE0101960E946E08BE016F5F7F4FCE01CE
:101A70008A960E949007CE0101960E94DB02CE0159
:101A80008A960E945C0762EB71E0CE018A960E9402
:101A90007107882309F42AC1CE0101960E946E08BD
:101AA000BE016F5F7F4FCE018A960E949007CE01E4
:101AB00001960E94DB026EE871E0CE018A960E94D8
:101AC0007107811129C060EE72E0CE0101960E947B
:101AD000C10267E272E0CE0101960E947107182FE1
:101AE000CE0101960E94DB021123B1F0CE018A964D
:101AF0000E945C076BEC71E0CE018A960E94710730
:101B0000882351F061E08DE00E944D030E9424077C
:101B100060E08DE00E944D036EE871E0CE018A9690
:101B20000E947107811129C060EE72E0CE0101961A
:101B30000E94C1026EEC71E0CE0101960E94710715
:101B4000182FCE0101960E94DB021123B1F06BEC3D
:101B500071E0CE018A960E947107882371F081EDB1
:101B600091E00E94310661E08DE00E944D030E94E9
:101B7000240760E08DE00E944D036BEC71E0CE0124
:101B80008A960E947107811109C06CED71E0CE0147
:101B90008A960E947107882309F47ECF60EE72E076
:101BA000CE0101960E94C10267E272E0CE01019669
:101BB0000E947107182FCE0101960E94DB021123AB
:101BC00009F494C060E070E080E89FE30E94CC06D6
:101BD00020E030E0C12CD12C7601B0927C008091C5
:101BE0007A00806480937A0080917A0086FDFCCF31
:101BF000809178004091790090E0942B092E000CA0
:101C0000AA0BBB0BC80ED91EEA1EFB1E2F5F3F4F4F
:101C1000211590E1390709F7E8EEF1E0DE0192962F
:101C20008A2D01900D928A95E1F76FED71E0CE015A
:101C300001960E947F1767E272E0CE0101960E9432
:101C40006B1763EE71E0CE0101960E946B1762EE96
:101C500071E0CE0101960E946B17D701C6018096F4
:101C6000A11DB11D26E0B695A795979587952A9554
:101C7000D1F7BC01CD01882799270E94231320E0CA
:101C800030EC4FE757E40E94961428EB3EE145EC18
:101C90005FE30E9484138E010E5D1F4F22E047E038
:101CA0000E94160FB801CE0101960E946B176EEECE
:101CB00071E0CE0101960E946B176EEE71E0CE01CD
:101CC00001960E946B1765EE71E0CE0101960E94AD
:101CD0006B17CE0101960E943F0680912E02811162
:101CE000FCCF60E070E0CB010E94CC06CE018A966A
:101CF0000E94DB020E942902A1CE8AE093E00E94AA
:101D0000DB0284E093E00E94DB028EEF92E00E940F
:101D1000DB0288EF92E00E94DB0282EF92E00E94F9
:101D2000DB028CEE92E00E94DB0286EE92E00E94E3
:101D3000DB0280EE92E00E94DB028AED92E00C94DE
:101D4000DB02E0E3F2E01382128288EE93E0A0E08F
:101D5000B0E084839583A683B7838EE691E0918378
:101D6000808385EC90E09587848784EC90E097876A
:101D7000868780EC90E0918B808B81EC90E0938B58
:101D8000828B82EC90E0958B848B86EC90E0978B35
:101D9000868B118E128E138E148E6EE871E08AED92
:101DA00092E00E94E0026EE871E080EE92E00E9414
:101DB000E0026EE871E086EE92E00E94E0026EE8DA
:101DC00071E08CEE92E00E94E0026EE871E082EF3A
:101DD00092E00E94E0026EE871E088EF92E00E94DB
:101DE000E0026EE871E08EEF92E00E94E0026EE8A1
:101DF00071E084E093E00E94E0026EE871E08AE026
:101E000093E00E94E002E4EDF2E08BE080838DE05D
:101E1000818384EF91E093838283EEECF2E02CE007
:101E2000208322E32183938382830895EF920F938B
:101E30001F93CF93DF93E80147FD02C034E001C058
:101E400034E1E42F440FFF0BF7FF03C0F195E19558
:101E5000F109E32E022F2E2FAE010E943A0FCE0180
:101E6000DF91CF911F910F91EF900895662777270B
:101E70000C94C8104F925F926F927F929F92AF9294
:101E8000BF92CF92DF92EF92FF920F931F93CF9367
:101E9000DF93CDB7DEB729970FB6F894DEBF0FBE3C
:101EA000CDBF6A01122FB02E2BE3201720F0FF24A4
:101EB000F394F00E02C0BCE3FB2E0F2D27E0AE0121
:101EC0004F5F5F4F0E942512AC018981982F997056
:101ED000913031F0E1FC06C0E0FE06C090E205C0A2
:101EE0009DE203C09BE201C090E0EE2DE07183FF14
:101EF0003CC0911102C083E001C084E0811718F456
:101F0000212F281B01C020E0E1110BC0F601822F18
:101F100030E2882319F031938150FBCFC20ED11CDF
:101F200020E0992329F0D6019C93F60131966F01A8
:101F3000C6010396E2FE0AC03EE4D6013C9341E4AA
:101F400011964C93119712963C9306C03EE6F6010B
:101F5000308341E641833283FC01322F40E2332358
:101F600009F442C041933150FACF82FF44C091112D
:101F700002C083E001C084E0811718F4212F281BE0
:101F800001C020E0E1110BC0F601822F30E288236E
:101F900019F031938150FBCFC20ED11C20E0992360
:101FA00029F0D6019C93F60131966F01C601039684
:101FB000E2FE0BC039E4D6013C933EE411963C931B
:101FC000119736E412963C9307C039E6F601308348
:101FD0003EE6318336E63283FC01322F40E2332382
:101FE00019F041933150FBCFFC01E20FF11D10823B
:101FF0008EEF9FEFB7C0F1E0911101C0F0E06F2FBD
:1020000070E01416150624F49A012F5F3F4F02C0AA
:1020100021E030E0260F371FBB2029F06B2D70E048
:102020006F5F7F4F02C060E070E0260F371F612FA7
:1020300070E0261737071CF4121B212F01C020E087
:102040003E2D387159F4D601322F60E2332319F056
:102050006D933150FBCFC20ED11C20E0FF2331F035
:10206000D6019C93B6016F5F7F4F6B01E1110BC0EE
:10207000F601922F30E3992319F031939150FBCF61
:10208000C20ED11C20E09F2D940F3A81782F7071E1
:10209000A72E84FF03C0313309F49150191624F49C
:1020A000993018F098E001C091E0E42F852F57FF98
:1020B00002C0E0E080E06E2F782FE0E0F0E0AEE2DA
:1020C0009A2E3A01691A71082A01461A570A0B2DED
:1020D00010E01195019511096F3F8FEF780729F4F2
:1020E000D6019C92C60101966C014617570784F0F1
:1020F000661677066CF47F01E40CF51CA1E0B0E0F5
:10210000AC0FBD1FEA0EFB1ED7011196BC9002C09A
:1021100090E3B92E615071093196C60101967C0198
:102120006017710724F0D601BC926C01D5CF6417FB
:10213000750741F4363320F4353321F4A11002C081
:1021400081E3B82EF601B082F701822F90E2882356
:1021500019F091938150FBCFF701E20FF11D10822E
:1021600080E090E029960FB6F894DEBF0FBECDBF99
:10217000DF91CF911F910F91FF90EF90DF90CF9063
:10218000BF90AF909F907F906F905F904F90089519
:10219000A0E0B0E0EEECF0E10C945414EC017B0113
:1021A0006115710519F0DB018D939C938E010F5F12
:1021B0001F4F7880872D90E00E94FD12892B11F02F
:1021C000E801F4CFBDE27B1205C00F5F1F4F79809D
:1021D000C1E008C0EBE27E1204C08E010E5F1F4F0B
:1021E0007980C0E06801F1E0CF1AD10843E050E007
:1021F00060E770E0C6010E940613892BF1F46801C4
:1022000022E0C20ED11C45E050E06BE670E0C60152
:102210000E940613892B21F4680187E0C80ED11CA7
:10222000E114F10419F0D701CD92DC92C111FFC085
:1022300060E070E080E89FE703C143E050E068E6BB
:1022400070E0C6010E940613892B51F4E114F104D9
:1022500009F4F2C00E5F1F4FF70111830083ECC039
:10226000680160E070E0CB0100E010E0F601D0ED25
:10227000D70DDA3058F52C2F2260622E2C2F2870C3
:10228000C2FF05C0211128C00F5F1F4F25C02223A8
:1022900011F001501109A5E0B0E09B01AC010E94D2
:1022A00045144B015C01880C991CAA1CBB1CC50180
:1022B000B4016D0F711D811D911D6839A9E97A075F
:1022C0008A07A9E19A0740F0C66005C0DE3F51F4D5
:1022D000C3FD44C0C8606C2EBFEFCB1ADB0A708010
:1022E000C62DC4CF2D2F2F7D2531C1F540814D3214
:1022F00011F4C06106C04B3221F0319621E030E08C
:1023000006C03296D60111964C9122E030E0A0ED45
:10231000A40FAA3018F0E21BF30B20C040E050E0FD
:102320004038BCE05B075CF49A01220F331F220F98
:10233000331F420F531F440F551F4A0F511D319633
:10234000DF0111972C91A0EDA20FAA3048F3C4FF32
:1023500003C0519541955109040F151FC1FF07C0D6
:10236000E114F10421F03197D701ED93FC930E9421
:102370002313C370C33019F06B017C0106C06B01DD
:102380007C01F7FAF094F7F8F09420E030E0A9012E
:10239000C701B6010E941E13882309F445C017FF28
:1023A00006C0119501951109C7E8D0E002C0CFE938
:1023B000D0E05E01B8E1AB1AB1084601BE2DAF2DE9
:1023C00090E2E92EF12C0E151F0584F0FE012591F7
:1023D000359145915491B4018B2F9A2F0E9484130B
:1023E0004B01B82FA92F0E191F09EDCF2497F59493
:1023F000E794CA15DB0539F76401EB2EFA2E8E2D12
:10240000880F8F2D881F8F3F49F020E030E0A90111
:10241000C701B6010E941E13811106C082E290E03E
:102420009093110380931003C701B60109C060E0C7
:1024300070E080E89FEF04C060E070E080EC9FE710
:10244000CDB7DEB7EEE00C947014283008F027E02A
:102450003327DA01990F311D87FD916000966105E0
:10246000710539F432602E5F3D9330E32A95E1F730
:1024700008959F3F30F080387105610509F03C5F99
:102480003C5F3D93913008F08068911DDF93CF93BE
:102490001F930F93FF92EF92192F987F9695E92F34
:1024A00096959695E90FFF27E350FF4F992733271D
:1024B000EE24FF24A701E70105900894079428F46F
:1024C000360FE71EF81E491F511D660F771F881F24
:1024D000991F0694A1F70590079428F4E70EF81EBB
:1024E000491F561FC11D770F881F991F661F06942D
:1024F000A1F70590079428F4F80E491F561FC71F2F
:10250000D11D880F991F661F771F0694A1F70590AC
:10251000079420F4490F561FC71FD81F990F661F35
:10252000771F881F0694A9F784911095177041F0C2
:10253000D695C79557954795F794E7941A95C1F79F
:10254000E3EAF0E0689415901591359165919591C5
:1025500005907FE27395E118F10A430B560BC90B06
:10256000D009C0F7E10CF11E431F561FC91FD01D33
:102570007EF4703311F48A95E6CFE894015030F080
:10258000080F0AF40027021708F4202F2395022FC2
:102590007A3328F079E37D932A95E9F710C07D938B
:1025A0002A9589F606949795679537951795179408
:1025B000E118F10A430B560BC90BD00998F023958B
:1025C0007E9173957A3308F070E37C932013B8F70B
:1025D0007E9170617D9330F0839571E37D9370E31C
:1025E0002A95E1F71124EF90FF900F911F91CF9161
:1025F000DF91992787FD9095089591110C94F1131F
:10260000803219F089508550C8F70895FB01DC012C
:102610004150504088F08D9181341CF08B350CF482
:10262000805E659161341CF06B350CF4605E861B36
:10263000611171F3990B0895881BFCCF0E94601300
:1026400008F481E00895E89409C097FB3EF4909562
:102650008095709561957F4F8F4F9F4F9923A9F07B
:10266000F92F96E9BB279395F6958795779567950A
:10267000B795F111F8CFFAF4BB0F11F460FF1BC04E
:102680006F5F7F4F8F4F9F4F16C0882311F096E9E1
:1026900011C0772321F09EE8872F762F05C066238F
:1026A00071F096E8862F70E060E02AF09A95660F48
:1026B000771F881FDAF7880F9695879597F9089501
:1026C000990F0008550FAA0BE0E8FEEF1616170643
:1026D000E807F907C0F012161306E407F50798F0AB
:1026E000621B730B840B950B39F40A2661F0232BC4
:1026F000242B252B21F408950A2609F4A140A69540
:102700008FEF811D811D08950E9497130C940B1467
:102710000E94FD1338F00E94041420F0952311F05C
:102720000C94F4130C94FA1311240C943F140E948B
:102730001C1470F3959FC1F3950F50E0551F629FD5
:10274000F001729FBB27F00DB11D639FAA27F00D0A
:10275000B11DAA1F649F6627B00DA11D661F829F31
:102760002227B00DA11D621F739FB00DA11D621F16
:10277000839FA00D611D221F749F3327A00D611D33
:10278000231F849F600D211D822F762F6A2F112415
:102790009F5750409AF0F1F088234AF0EE0FFF1F48
:1027A000BB1F661F771F881F91505040A9F79E3F9F
:1027B000510580F00C94F4130C943F145F3FE4F344
:1027C000983ED4F3869577956795B795F795E795F5
:1027D0009F5FC1F7FE2B880F911D9695879597F9FE
:1027E000089599278827089597F99F6780E870E0F2
:1027F00060E008959FEF80EC089500240A94161677
:10280000170618060906089500240A9412161306DE
:10281000140605060895092E0394000C11F488236C
:1028200052F0BB0F40F4BF2B11F460FF04C06F5F88
:102830007F4F8F4F9F4F089557FD9058440F551F5E
:1028400059F05F3F71F04795880F97FB991F61F032
:102850009F3F79F087950895121613061406551FA9
:10286000F2CF4695F1DF08C0161617061806991F15
:10287000F1CF86957105610508940895E894BB270A
:1028800066277727CB0197F908950E948714A59FA3
:10289000900DB49F900DA49F800D911D112408955B
:1028A0002F923F924F925F926F927F928F929F9260
:1028B000AF92BF92CF92DF92EF92FF920F931F934E
:1028C000CF93DF93CDB7DEB7CA1BDB0B0FB6F894FF
:1028D000DEBF0FBECDBF09942A88398848885F843F
:1028E0006E847D848C849B84AA84B984C884DF80B0
:1028F000EE80FD800C811B81AA81B981CE0FD11D94
:102900000FB6F894DEBF0FBECDBFED010895A29FB4
:10291000B001B39FC001A39F700D811D1124911DB3
:10292000B29F700D811D1124911D08950E94AA145B
:102930000C940B140E94041458F00E94FD1340F0F4
:1029400029F45F3F29F00C94F41351110C943F14B7
:102950000C94FA130E941C1468F39923B1F35523C5
:1029600091F3951B550BBB27AA27621773078407A2
:1029700038F09F5F5F4F220F331F441FAA1FA9F338
:1029800035D00E2E3AF0E0E832D091505040E69526
:10299000001CCAF72BD0FE2F29D0660F771F881F87
:1029A000BB1F261737074807AB07B0E809F0BB0B7A
:1029B000802DBF01FF2793585F4F3AF09E3F51058E
:1029C00078F00C94F4130C943F145F3FE4F3983EBA
:1029D000D4F3869577956795B795F7959F5FC9F777
:1029E000880F911D9695879597F90895E1E0660FF8
:1029F000771F881FBB1F621773078407BA0720F071
:102A0000621B730B840BBA0BEE1F88F7E0950895D9
:102A10000E940F156894B1110C943F1408950E9400
:102A2000241488F09F5798F0B92F9927B751B0F028
:102A3000E1F0660F771F881F991F1AF0BA95C9F742
:102A400014C0B13091F00E943E14B1E008950C948E
:102A50003E14672F782F8827B85F39F0B93FCCF341
:102A6000869577956795B395D9F73EF490958095BF
:102A7000709561957F4F8F4F9F4F0895A1E21A2E59
:102A8000AA1BBB1BFD010DC0AA1FBB1FEE1FFF1F12
:102A9000A217B307E407F50720F0A21BB30BE40B62
:102AA000F50B661F771F881F991F1A9469F76095A9
:102AB0007095809590959B01AC01BD01CF01089563
:102AC000EE0FFF1F0590F491E02D0994CF93DF9353
:102AD0008230910510F482E090E0E0911403F091CF
:102AE000150320E030E0C0E0D0E0309711F14081E4
:102AF000518148175907C0F04817590761F482817E
:102B00009381209719F09B838A832BC090931503A0
:102B10008093140326C02115310519F0421753077D
:102B200018F49A01BE01DF01EF010280F381E02D6C
:102B3000DCCF2115310509F1281B390B2430310573
:102B400090F412968D919C9113976115710521F067
:102B5000FB019383828304C0909315038093140335
:102B6000FD01329644C0FD01E20FF31F8193919362
:102B7000225031092D933C933AC020911203309199
:102B80001303232B41F420914801309149013093E4
:102B90001303209312032091460130914701211520
:102BA000310541F42DB73EB740914A0150914B0198
:102BB000241B350BE0911203F0911303E217F30786
:102BC000A0F42E1B3F0B2817390778F0AC014E5F9D
:102BD0005F4F2417350748F04E0F5F1F50931303C4
:102BE000409312038193919302C0E0E0F0E0CF01A3
:102BF000DF91CF9108950F931F93CF93DF930097A9
:102C000009F48CC0FC0132971382128200911403E4
:102C1000109115030115110581F420813181820F76
:102C2000931F20911203309113032817390779F568
:102C3000F0931303E093120371C0D80140E050E019
:102C4000AE17BF0750F412962D913C911397AD012A
:102C50002115310509F1D901F3CF9D01DA01338343
:102C6000228360817181860F971F8217930769F411
:102C7000EC0128813981260F371F2E5F3F4F3183AA
:102C800020838A819B8193838283452B29F4F0934F
:102C90001503E093140342C01396FC93EE9312972E
:102CA000ED01499159919E01240F351FE217F30759
:102CB00071F480819181840F951F029611969C93E7
:102CC0008E938281938113969C938E931297E0E06A
:102CD000F0E0D80112968D919C911397009719F00E
:102CE000F8018C01F6CF8D919C9198012E5F3F4F9A
:102CF000820F931F20911203309113032817390775
:102D000069F4309729F4109215031092140302C04D
:102D1000138212821093130300931203DF91CF9159
:102D20001F910F910895A0E0B0E0E9E9F6E10C945D
:102D30005414EC01009721F4CB010E946615B8C031
:102D4000FC01E60FF71F9C0122503109E217F3073F
:102D500008F4ACC0D9010D911C9111970617170703
:102D6000B0F00530110508F49FC0C801049786171C
:102D7000970708F499C002501109061B170B01931D
:102D800011936D937C93CF010E94FB158DC05B0165
:102D9000A01AB10A4C01800E911EA0911403B091AB
:102DA000150340E050E0E12CF12C109709F44AC0E3
:102DB000A815B905D1F56D907C901197630182E05B
:102DC000C80ED11CCA14DB0480F1A3014A195B09A7
:102DD0006A0182E0C80ED11C1296BC90129713961D
:102DE000AC91B5E0CB16D10440F0B282A3835183FD
:102DF0004083D9016D937C930AC00E5F1F4FC301BE
:102E0000800F911FF90191838083EB2DFA2FE1143C
:102E1000F10431F0D7011396FC93EE93129744C05E
:102E2000F0931503E09314033FC08D919C9111978B
:102E30004817590708F4AC017D0112960D90BC911A
:102E4000A02DB3CF8091120390911303881599059B
:102E5000E1F446175707C8F4809146019091470165
:102E6000009741F48DB79EB740914A0150914B01B4
:102E7000841B950BE817F907C8F4F0931303E0934C
:102E80001203F901718360830FC0CB010E946615A4
:102E90007C01009759F0A801BE010E946217CE0183
:102EA0000E94FB15C70104C0CE0102C080E090E083
:102EB000CDB7DEB7EEE00C94701481E090E0F894AA
:102EC0000C948617FB01DC0102C001900D92415069
:102ED0005040D8F70895FB01DC010D900020E9F780
:102EE000119701900D920020E1F70895FB01DC019C
:102EF0008D91019080190110D9F3990B0895FB0170
:102F0000DC0101900D920020E1F7089510E0CDEF73
:102F1000D0E004C0FE010E9460152196CE3FD1078B
:062F2000C9F7F894FFCF91
:102F26000C0A2A2A2A2A2A2A382C00000000000025
:102F3600000000000000000000000000000000008B
:102F4600000000000000000000000000000000007B
:102F5600000000000000000000000000000000006B
:102F660000000000000000001603800000000100C1
:102F76000800400000010004050D0D0E131516197A
:102F86001A1C232526292A2C323400000000C001F1
:102F9600290158010702890167017B0142656769BA
:102FA6006E20726563657665696E67000D0A00427C
:102FB60000446973706F73697469766F20002069C5
:102FC6006E2061747465736120646920646174693C
:102FD6002000696E69742064657669636520747281
:102FE600616E736D697373696F6E004F4B00474F67
:102FF6000053746F72652064617461004B4F002A40
:103006002300585800232A00303030302E3030004C
:107800000C94343C0C94513C0C94513C0C94513CE1
:107810000C94513C0C94513C0C94513C0C94513CB4
:107820000C94513C0C94513C0C94513C0C94513CA4
:107830000C94513C0C94513C0C94513C0C94513C94
:107840000C94513C0C94513C0C94513C0C94513C84
:107850000C94513C0C94513C0C94513C0C94513C74
:107860000C94513C0C94513C11241FBECFEFD8E036
:10787000DEBFCDBF11E0A0E0B1E0EAE8FFE702C063
:1078800005900D92A230B107D9F712E0A2E0B1E065
:1078900001C01D92AD30B107E1F70E942D3D0C945F
:1078A000C33F0C94003C982F95959595959595958B
:1078B000905D8F708A307CF0282F295A8091C0000B
:1078C00085FFFCCF9093C6008091C00085FFFCCF60
:1078D0002093C6000895282F205DF0CF982F809127
:1078E000C00085FFFCCF9093C6000895EF92FF92F1
:1078F0000F931F93EE24FF2487018091C00087FD22
:1079000017C00894E11CF11C011D111D81E2E8164D
:1079100081EAF80687E0080780E0180770F3E09135
:107920000401F091050109958091C00087FFE9CF1E
:107930008091C6001F910F91FF90EF9008950E94D3
:10794000763C982F8091C00085FFFCCF9093C600B5
:1079500091362CF490330CF09053892F089597555D
:10796000892F08951F930E949F3C182F0E949F3CCF
:107970001295107F810F1F9108951F93182F882350
:1079800021F00E94763C1150E1F71F9108951F935A
:10799000182F0E94763C803249F0809103018F5F5E
:1079A000809303018530C1F01F9108958091C0003C
:1079B00085FFFCCF84E18093C6008091C00085FFE5
:1079C000FCCF1093C6008091C00085FFFCCF80E102
:1079D0008093C6001F910895E0910401F091050184
:1079E00009951F9108950E94763C803241F0809164
:1079F00003018F5F80930301853081F008958091AA
:107A0000C00085FFFCCF84E18093C6008091C00058
:107A100085FFFCCF80E18093C6000895E0910401CA
:107A2000F09105010995089548EC50E08823A1F0F4
:107A30002D9A28EE33E0FA013197F1F721503040CA
:107A4000D1F72D9828EE33E0FA013197F1F7215064
:107A50003040D1F7815061F708953F924F925F9285
:107A60006F927F928F929F92AF92BF92CF92DF924E
:107A7000EF92FF920F931F93CF93DF93000082E06A
:107A80008093C00080E18093C4001092C50088E11B
:107A90008093C10086E08093C2005098589A259A3E
:107AA00081E00E94143D24E1F22E9EE1E92E85E959
:107AB000D82E0FE0C02E10E1B12EAA24A394B1E479
:107AC0009B2EA6E58A2EF2E57F2EE0E26E2E79E46B
:107AD000572E63E5462E50E5352E0E94763C8033C6
:107AE000B1F18133B9F1803409F46FC0813409F404
:107AF00076C0823409F485C0853409F488C08035A5
:107B000031F1823521F1813511F1853509F485C0D6
:107B1000863509F48DC0843609F496C0843709F49B
:107B200003C1853709F472C1863709F466C08091B4
:107B300003018F5F80930301853079F6E0910401A2
:107B4000F091050109950E94763C803351F60E9420
:107B5000F33CC3CF0E94763C803249F78091C0004D
:107B600085FFFCCFF092C6008091C00085FFFCCF5E
:107B70009092C6008091C00085FFFCCF8092C60025
:107B80008091C00085FFFCCF7092C6008091C0003C
:107B900085FFFCCF6092C6008091C00085FFFCCFBE
:107BA0005092C6008091C00085FFFCCF4092C60075
:107BB0008091C00085FFFCCF3092C6008091C0004C
:107BC00085FFFCCFB092C60088CF0E94763C8638F5
:107BD00008F4BDCF0E94763C0E94F33C7ECF0E9409
:107BE000763C803809F49CC0813809F40BC1823896
:107BF00009F430C1883909F48FC080E00E94C73C85
:107C00006CCF84E10E94BD3C0E94F33C66CF85E0CE
:107C10000E94BD3C0E94F33C60CF0E94763C809362
:107C200006010E94763C809307010E94F33C55CFE9
:107C30000E94763C803309F411C183E00E94BD3C70
:107C400080E00E94C73C49CF0E94763C80930902A5
:107C50000E94763C8093080280910C028E7F809374
:107C60000C020E94763C853409F409C18091080217
:107C700090910902892B89F000E010E00E94763C87
:107C8000F801E85FFE4F80830F5F1F4F809108026D
:107C9000909109020817190788F30E94763C8032F8
:107CA00009F045CF80910C0280FFF5C0609106017C
:107CB00070910701660F771F7093070160930601AB
:107CC000A0910802B09109021097C9F0E8E0F1E034
:107CD0009B01AD014E0F5F1FF999FECF32BD21BD53
:107CE000819180BDFA9AF99A2F5F3F4FE417F5070B
:107CF00099F76A0F7B1F70930701609306018091CB
:107D0000C00085FFFCCFF092C6008091C00085FFC7
:107D1000FCCFB092C600E1CE83E00E94C73CDDCE2E
:107D200082E00E94C73CD9CE0E94763C8093090233
:107D30000E94763C80930802809106019091070191
:107D4000880F991F90930701809306010E94763C4B
:107D5000853409F49AC080910C028E7F80930C02C6
:107D60000E94763C803209F0B8CE8091C00085FF39
:107D7000FCCFF092C600A0910802B09109021097C2
:107D8000C1F180910C02082F0170182F1695117007
:107D9000E0910601F0910701AF014F5F5F4FBA011B
:107DA00020E030E00023B1F4112339F49491809164
:107DB000C00085FFFCCF9093C6002F5F3F4FCB01E3
:107DC0000196FA012A173B0780F4BC014F5F5F4F11
:107DD000002351F3F999FECFF2BDE1BDF89A90B5B9
:107DE0008091C00085FFFCCFE6CF709307016093C0
:107DF00006018091C00085FDE5CE8091C00085FF21
:107E0000F8CFE0CE81E00E94C73C67CE0E94763C6E
:107E1000803209F08CCE8091C00085FFFCCFF092BB
:107E2000C6008091C00085FFFCCFE092C600809123
:107E3000C00085FFFCCFD092C6008091C00085FFB6
:107E4000FCCFC092C6008091C00085FFFCCFB092ED
:107E5000C60043CE80E10E94C73C3FCE0E94763CE4
:107E60000E94763C182F0E94763C112309F483C0AF
:107E7000113009F484C08FE00E94C73C2ECE80915F
:107E80000C02816080930C02F1CE80910C02816023
:107E900080930C0265CF809107018823880F880B9F
:107EA0008A2180930B028091060190910701880F2F
:107EB000991F90930701809306018091080280FF2B
:107EC00009C08091080290910902019690930902DD
:107ED00080930802F894F999FECF1127E0910601EA
:107EE000F0910701C8E0D1E0809108029091090269
:107EF000103091F40091570001700130D9F303E084
:107F000000935700E8950091570001700130D9F3B4
:107F100001E100935700E8950990199000915700EE
:107F200001700130D9F301E000935700E8951395F3
:107F3000103498F011270091570001700130D9F3E7
:107F400005E000935700E89500915700017001305B
:107F5000D9F301E100935700E8953296029709F0B2
:107F6000C7CF103011F00296E5CF11248091C000E8
:107F700085FFC5CEC8CE8EE10E94C73CAECD85E957
:0A7F80000E94C73CAACDF894FFCF81
:027F8A00800075
:040000030000780081
:00000001FF