:100000000C94FE000C9426010C9426010C942601FD
:100010000C9426010C9426010C9426010C942601C4
:100020000C9426010C9426010C9426010C94FE05D8
:100030000C9426010C9426010C9426010C942601A4
:100040000C94B4050C9426010C9486040C94600462
:100050000C9426010C9426010C9426010C94260184
:100060000C9426010C9426014E414E494E49545998
:10007000494E46CDCCCC3D0AD7233C17B7D1387773
:10008000CC2B329595E6241FB14F0A000020410089
:1000900000C84200401C4620BCBE4CCA1B0E5AAED3
:1000A000C59D7400407A10F35A00A0724E180900E2
:1000B00010A5D4E80000E87648170000E40B5402CD
:1000C0000000CA9A3B000000E1F505000080969808
:1000D00000000040420F000000A086010000001058
:1000E0002700000000E8030000000064000000009A
:1000F000000A00000000000100000000002C76D87B
:1001000088DC674F0823DFC1DFAE59E1B1B796E560
:10011000E3E453C63AE651997696E8E6C28426EBC4
:10012000898C9B62ED407C6FFCEFBC9C9F40F2BAD7
:10013000A56FA5F490055A2AF75C936B6CF9676D6F
:10014000C11BFCE0E40D47FEF520E6B500D0ED90C4
:100150002E0300943577050080841E080000204E91
:100160000A000000C80C333333330F986E1283112A
:1001700041EF8D2114893BE65516CFFEE6DB18D101
:10018000844B381BF77C1D901DA4BBE424203284D3
:10019000725E228100C9F124ECA1E53D2700000038
:1001A0000023002600290000000000240027002A68
:1001B0000000000000250028002B000404040404B3
:1001C0000404040202020202020303030303030104
:1001D00002040810204080010204081020010204DB
:1001E00008102000000008000201000003040700BE
:1001F0000000000000000000590D350D11241FBE45
:10020000CFEFD8E0DEBFCDBF22E0AEECB1E001C061
:100210001D92A73FB207E1F711E0A0E0B1E0E2E5EF
:10022000FCE202C005900D92AE3CB107D9F710E098
:10023000CDEFD0E004C02197FE010E94F613CC3F21
:10024000D107C9F70E94350B0C941C160C940000C2
:100250000895CF92DF92EF92FF920F931F93CF9367
:10026000DF936C017A018B01C0E0D0E0CE15DF0591
:1002700089F0D8016D918D01D601ED91FC9101902D
:10028000F081E02DC6010995892B11F47E0102C091
:100290002196ECCFC701DF91CF911F910F91FF9075
:1002A000EF90DF90CF900895089580E090E008955A
:1002B000FC01538D448D252F30E0842F90E0821B6C
:1002C000930B541710F0CF96089501970895FC01F1
:1002D000918D828D981761F0828DDF01A80FB11D7D
:1002E0005D968C91928D9F5F9F73928F90E00895A1
:1002F0008FEF9FEF0895FC01918D828D981731F05B
:10030000828DE80FF11D858D90E008958FEF9FEFAE
:100310000895FC01918D228D892F90E0805C9F4F84
:10032000821B91098F739927089582E192E00E94C0
:10033000890121E0892B09F420E0822F0895FC0136
:10034000848DDF01A80FB11DA35ABF4F2C91848D5E
:1003500090E001968F739927848FA689B7892C9393
:10036000A089B1898C9180648C93938D848D98132E
:1003700006C00288F389E02D80818F7D80830895F7
:10038000EF92FF920F931F93CF93DF93EC0181E0E5
:10039000888F9B8D8C8D981305C0E889F9898081A1
:1003A00085FD24C0F62E0B8D10E00F5F1F4F0F73DD
:1003B0001127E02E8C8DE8120CC00FB607FCFACF87
:1003C000E889F989808185FFF5CFCE010E949F01E0
:1003D000F1CF8B8DFE01E80FF11DE35AFF4FF08244
:1003E0000B8FEA89FB898081806207C0EE89FF89D3
:1003F0006083E889F98980818064808381E090E06E
:10040000DF91CF911F910F91FF90EF900895CF93BF
:10041000DF93EC01888D8823C9F0EA89FB8980810C
:1004200085FD05C0A889B9898C9186FD0FC00FB6DE
:1004300007FCF5CF808185FFF2CFA889B9898C911F
:1004400085FFEDCFCE010E949F01E7CFDF91CF91D5
:10045000089580E090E0892B29F00E949501811198
:100460000C9400000895833081F028F4813099F0D5
:100470008230A1F008958730A9F08830B9F0843037
:10048000D1F4809180008F7D03C0809180008F77B0
:1004900080938000089584B58F7702C084B58F7DE6
:1004A00084BD08958091B0008F7703C08091B00023
:1004B0008F7D8093B0000895CF93DF9390E0FC018F
:1004C000E153FE4F2491FC01E554FE4F84918823B3
:1004D00061F190E0880F991FFC01E955FE4FC5912D
:1004E000D491FC01EF54FE4FA591B491611109C064
:1004F0009FB7F8948881209582238883EC912E23DE
:100500000BC0623061F49FB7F8943881822F8095D8
:1005100083238883EC912E2B2C939FBF06C08FB72B
:10052000F894E8812E2B28838FBFDF91CF91089517
:100530003FB7F8948091DB019091DC01A091DD013F
:10054000B091DE0126B5A89B05C02F3F19F001969A
:10055000A11DB11D3FBFBA2FA92F982F8827820F49
:10056000911DA11DB11DBC01CD0142E0660F771F99
:10057000881F991F4A95D1F70895CF92DF92EF9285
:10058000FF920F931F93CF93DF93CDB7DEB76A9798
:100590000FB6F894DEBF0FBECDBF8C016A017B01A0
:1005A00098E0E1E9F1E0DE01539601900D929A9511
:1005B000E1F768E871E0CE0101960E941516B801D6
:1005C000CE0101960E9401166BE871E0CE01019602
:1005D0000E9401168E010D5E1F4F22E047E0C70109
:1005E000B6010E94CE0DB801CE0101960E940116FF
:1005F0006EE871E0CE0101960E940116CE010196CF
:100600000E94A80A8091EC018111FCCF6A960FB676
:10061000F894DEBF0FBECDBFDF91CF911F910F9138
:10062000FF90EF90DF90CF9008950E94F315FC01AA
:1006300024813581232B31F421E061157105A1F06E
:10064000FB0108C0FC01808191816115710531F4C5
:1006500021E0FC018081882339F005C00E940C163E
:1006600021E0892B09F020E0822F0895EF92FF927C
:100670000F931F93CF93DF93EC017B018A01888155
:100680009981009729F02A813B8124173507F8F4D6
:10069000B8016F5F7F4F0E942915009759F0998329
:1006A00088831B830A832C813D81232B81F4FC01E9
:1006B00010820DC088819981009711F00E949114D9
:1006C000198218821D821C821B821A8207C01D8318
:1006D0000C83B701888199810E941516CE01DF91A4
:1006E000CF911F910F91FF90EF900895FC0124810D
:1006F0003581FB01448155812417350721F5FC0123
:1007000080819181FB0160817181009719F06115F1
:100710007105A1F46115710549F0232BB1F0FB01BE
:10072000808190E09195819591090AC0009769F0C8
:10073000232B59F0FC01808190E002C00E940C162E
:1007400021E0892B19F020E001C021E0822F0895DB
:100750000F931F93CF93DF938C01EB01FC018081FA
:1007600091810097B1F0688179816115710579F007
:10077000428153812C813D814217530740F00E94F2
:1007800015168C819D81F8019583848313C00E9486
:10079000911488819981F801918380838A819B815A
:1007A000938382838C819D819583848319821882AF
:1007B0001B821A821D821C82DF91CF911F910F91A3
:1007C0000895FC01808191810C949114FC011182A7
:1007D000108213821282158214826115710551F004
:1007E000FB0101900020E9F73197AF01461B570B41
:1007F0000C9436030895BF92CF92DF92EF92FF924E
:100800000F931F93CF93DF937C016B01EA01890162
:100810002417350720F48D2FE901042F182F64EBDE
:1008200071E0C7010E94E603D60114968D919C9158
:100830001597C817D907C8F58017910708F48C01D8
:10084000D601ED91FC911197E00FF11FB08010825D
:100850004D915C91BA016C0F7D1F6115710561F0BE
:10086000FB0101900020E9F73197AF01461B570BC0
:10087000C7010E94360313C0F70180819181009760
:1008800011F00E949114D70111961C921E92159698
:100890001C921E92149713961C921E921297D601C8
:1008A000ED91FC91E00FF11FB082C701DF91CF9174
:1008B0001F910F91FF90EF90DF90CF90BF90089520
:1008C0001F920F920FB60F9211242F933F934F93C5
:1008D0005F936F937F938F939F93AF93BF93EF93A8
:1008E000FF9382E192E00E949F01FF91EF91BF91FF
:1008F000AF919F918F917F916F915F914F913F91B8
:100900002F910F900FBE0F901F9018951F920F926E
:100910000FB60F9211242F938F939F93EF93FF9312
:10092000E0912202F09123028081E0912802F0916F
:10093000290282FD12C0908180912B028F5F8F73FC
:1009400020912C02821751F0E0912B02F0E0EE5E34
:10095000FD4F958F80932B0201C08081FF91EF9115
:100960009F918F912F910F900FBE0F901F90189510
:100970001F93CF93DF93282F30E0F901ED51FE4F05
:100980008491F901E153FE4FD491F901E554FE4FF2
:10099000C491CC23C9F0162F81110E943302EC2F91
:1009A000F0E0EE0FFF1FEF54FE4FA591B4918FB70B
:1009B000F894111105C09C91ED2FE095E92302C038
:1009C000EC91ED2BEC938FBFDF91CF911F910895A8
:1009D0004F925F926F927F928F929F92AF92BF924F
:1009E000EF92FF921F93CF93DF93CDB7DEB72E9791
:1009F0000FB6F894DEBF0FBECDBF2EE0ECE4F1E001
:100A0000DE01119601900D922A95E1F7009709F405
:100A100097C0BC0180E090E00E94DB119B01AC011B
:100A200060E070E080E89FE30E944E1320E030E039
:100A300040E05EE30E943C124B015C017E0123E03A
:100A4000E20EF11C11E0F701819191917F01BC014F
:100A500080E090E00E94DB119B01AC0160E074E259
:100A600084E79BE40E944E139B01AC0160E070E0C0
:100A700080E89FE30E944E139B01AC01C501B401C5
:100A80000E944E130E94C0132B013C01F2E04F1A4A
:100A90005108610871082DEF42162FEF52066104CC
:100AA000710408F44BC01F5F173069F6623071059E
:100AB0008105910508F444C061157105E1E08E07D8
:100AC0009105F0F51123E1F11092800028E02093C8
:100AD000810020918100122B109381007093890076
:100AE0006093880080916F00826080936F0061E066
:100AF000809100010E945C0260E08BE00E945C0239
:100B000061E0809101010E945C026091E8018091A6
:100B100001012E960FB6F894DEBF0FBECDBFDF9158
:100B2000CF911F91FF90EF90BF90AF909F908F90CB
:100B30007F906F905F904F900C94B804163011F630
:100B40002E960FB6F894DEBF0FBECDBFDF91CF91CA
:100B50001F91FF90EF90BF90AF909F908F907F90EC
:100B60006F905F904F9008951F920F920FB60F9263
:100B700011242F933F938F939F93AF93BF938091B3
:100B80000D0290910E02A0910F02B09110023091CF
:100B9000DA0123E0230F2D3720F40196A11DB11DAA
:100BA00005C026E8230F0296A11DB11D2093DA018E
:100BB00080930D0290930E02A0930F02B093100247
:100BC0008091DB019091DC01A091DD01B091DE010B
:100BD0000196A11DB11D8093DB019093DC01A093D0
:100BE000DD01B093DE01BF91AF919F918F913F9155
:100BF0002F910F900FBE0F901F9018951F920F927C
:100C00000FB60F9211241F932F933F934F935F932F
:100C10006F937F938F939F93AF93BF93CF93DF9304
:100C2000EF93FF93D091E001DD2309F18091EC0176
:100C300081111DC0EEEEF1E08491EAEDF1E0149136
:100C4000E6ECF1E0C491CC2309F447C081110E9485
:100C50003302EC2FF0E0EE0FFF1FE356FE4FA5919D
:100C6000B491EC91E12381E0C1F18093D9018091AD
:100C7000EC01882321F18091E90191E0980F909394
:100C8000E90181111CC0E091EB018091ED01E817B1
:100C900030F16091E801809101010E94B80460E0A8
:100CA000809100010E94B8041092EC018091D7015C
:100CB0009091D80101969093D8018093D7018091AB
:100CC000E901883010F01092E901DD2309F4D2C067
:100CD0004091EC01442321F1CDC080E0C6CFF0E08B
:100CE000EE5FFE4F90818091EA0121E0280F209372
:100CF000EA0161E070E001C0660F8A95EAF76923B6
:100D0000809100010E94B8048091EA018630B8F217
:100D10001092EA018091EB018F5F8093EB01CFCFBE
:100D20008091D901882329F09091D6019F5F9093FB
:100D3000D6012091D5019091D401821759F09035B8
:100D400010F02DE101C02BE0920F9093D40180931D
:100D5000D50103C09C5E9093D4019091D401903A48
:100D600008F488C02091D2013091D301369527959F
:100D70003093D3012093D2018091D601853028F0A1
:100D800038603093D3012093D201905A9093D401CC
:100D90001092D6018091DF01882309F45BC0909105
:100DA000D1019F5F9093D1019C3008F463C02091E2
:100DB000D2013091D301822F8F73E6E6F1E0DF019B
:100DC00090E05D91851721F09F5F9031D1F790E021
:100DD00050E1959FC001112496E0369527959A958C
:100DE000E1F730E05191251721F03F5F3031D1F725
:100DF00001C0432F842B90910C0291110EC080935F
:100E0000D0019CEF980F9B3140F01092DF01809150
:100E1000CF018F5F8093CF012DC0E0910C0291E054
:100E20009E0F90930C02F0E0E251FE4F8083909170
:100E30000C028091D001981750F01092DF01809140
:100E4000CE018F5F8093CE0181E0809311021092DA
:100E5000D10110C08091D2019091D30188339B4081
:100E600049F481E08093DF011092D10110920C02CD
:100E700010921102FF91EF91DF91CF91BF91AF914D
:100E80009F918F917F916F915F914F913F912F91A2
:100E90001F910F900FBE0F901F9018958F929F92E9
:100EA000AF92BF92CF92DF92EF92FF920F931F9378
:100EB000CF93DF93CDB7DEB7CF54D1090FB6F894F7
:100EC000DEBF0FBECDBF7C0168E871E0CE01865B5E
:100ED0009F4F0E94E6036EE871E0CE018C5B9F4F4E
:100EE0000E94E6038FB7F89440910D0250910E02D4
:100EF00060910F02709110028FBF809111028111D9
:100F000014C02FB7F89480910D0290910E02A09119
:100F10000F02B09110022FBF841B950BA60BB70BCD
:100F2000883E9340A105B10540F380911102809164
:100F30001102882309F4DDC240910C024350433171
:100F400008F043E150E06FEE71E0CE0101960E949F
:100F5000F8151092110260910C02EEEEF1E04FEFE5
:100F60005FEF615000F12191822F842790E1899FEA
:100F7000900111242827822F90E0382F2227452F17
:100F80005527422B532B9C01A4E035952795AA9514
:100F9000E1F742275327B3E0880F991FBA95E1F78D
:100FA00048275927DECF483B504F09F0A2C2BE0167
:100FB0006F5F7F4FCE01CE960E94E603CEACDFACD2
:100FC000C114D10409F442C024960EAD1FAD24977C
:100FD00001151105D9F146015401FFEF8F1A9F0A3F
:100FE000F5018081082E000C990B0E94B511892B08
:100FF00099F7015011090C0D1D1DF8018081082E73
:10100000000C990B0E94B511892B89F4A8014F5F40
:101010005F4F4A195B0924965FAF4EAF2497CA14FD
:10102000DB0458F4B501C6010E94F81506C00A1584
:101030001B0560F301501109E0CFEEADFFAD249622
:101040008EAD9FAD2497E80FF91F108224968EADC8
:101050009FAD24970F9709F0A7C022E030E040E051
:1010600050E0BE01625C7F4FCE0144960E94FB03BC
:10107000BE01665B7F4FCE0144960E9476038823B3
:10108000E9F12FE030E04DE050E0BE01625C7F4FBF
:10109000CE014A960E94FB03BE016C5B7F4FCE01DE
:1010A0004A960E947603882319F12DE030E046E04D
:1010B00050E0BE01625C7F4FCE0180960E94FB0330
:1010C00088A199A1009719F00E94EE0D03C060E07D
:1010D00070E0CB0111E020E030E0A9010E94D611C0
:1010E000811101C010E0CE0180960E94E10301C091
:1010F00010E0CE014A960E94E10301C010E0CE014B
:1011000044960E94E103112309F44EC024E030E02C
:1011100042E050E0BE01625C7F4FCE0144960E94E7
:10112000FB03BE016C5E7F4F81EC92E00E94A8033E
:10113000CE0144960E94E10326E030E044E050E016
:10114000BE01625C7F4FCE0144960E94FB03BE014C
:101150006C5E7F4F8DEC92E00E94A803CE01449616
:101160000E94E1031092BA022DE030E046E050E028
:10117000BE01625C7F4FCE0144960E94FB038C89C6
:101180009D89009719F00E94EE0D03C060E070E0A9
:10119000CB010E94C7136093B902CE0144960E940E
:1011A000E10369E971E09DC124968EAD9FAD24975E
:1011B0000F9709F0A4C122E030E040E050E0BE010A
:1011C000625C7F4FCE0144960E94FB03BE01665BCA
:1011D0007F4FCE0144960E947603882309F491C183
:1011E00024E030E042E050E0BE01625C7F4FCE017F
:1011F0004A960E94FB0361EC72E0CE014A960E947F
:101200007603882309F47FC126E030E044E050E013
:10121000BE01625C7F4FCE0180960E94FB036DECA5
:1012200072E0CE0180960E947603882309F46DC196
:101230002FE030E04DE050E0BE01625C7F4FCE0118
:1012400086960E94FB03BE016C5B7F4FCE018696A3
:101250000E947603882311F12DE030E046E050E053
:10126000BE01625C7F4FCE018C960E94FB038CA571
:101270009DA5009719F00E94EE0D03C060E070E09C
:10128000CB0111E020E030E0A9010E94D6118111CC
:1012900010E0CE018C960E94E10301C010E0CE0167
:1012A00086960E94E103CE0180960E94E103CE0162
:1012B0004A960E94E103CE0144960E94E103112365
:1012C00061F09091BA028091B902981303C065EB66
:1012D00071E007C168EB71E004C124968EAD9FAD4B
:1012E0002497429709F0FBC024E030E042E050E050
:1012F000BE01625C7F4FCE0186960E94FB0361ECCB
:1013000072E0CE0186960E947603882309F4FFC01E
:1013100022E030E040E050E0BE01625C7F4FCE0151
:101320008C960E94FB03BE01665B7F4FCE018C96BC
:101330000E947603882389F122E130E040E150E009
:10134000BE01625C7F4FCE01C2960E94FB03BE01CC
:101350006C5B7F4FCE01C2960E9476038823C9F052
:1013600027E030E045E050E0BE01625C7F4FCE01F7
:10137000C8960E94FB036DEC72E0CE01C8960E94F5
:10138000760311E0811101C010E0CE01C8960E94E1
:10139000E103CE01C2960E94E103CE018C960E9429
:1013A000E103CE0186960E94E103112309F497C060
:1013B00022E030E040E050E0BE01625C7F4FCE01B1
:1013C000C2960E94FB03BE016E5C7F4F8BEB92E0E6
:1013D0000E94A803CE01C2960E94E10325E030E0FE
:1013E00044E050E0BE01625C7F4FCE01C2960E9495
:1013F000FB03BE016E5C7F4F87EC92E00E94A80366
:10140000CE01C2960E94E1032EE030E047E050E0BA
:10141000BE01625C7F4FCE01C2960E94FB03BE01FB
:101420006E5C7F4F89ED92E00E94A803CE01C296C8
:101430000E94E1032FE030E04EE050E0BE01625C2C
:101440007F4FCE01C2960E94FB03BE016E5C7F4FB0
:101450008FED92E00E94A803CE01C2960E94E103A4
:1014600020E130E04FE050E0BE01625C7F4FCE01F2
:10147000C2960E94FB03BE016E5C7F4F85EE92E038
:101480000E94A803CE01C2960E94E10322E130E04F
:1014900040E150E0BE01625C7F4FCE01C2960E94E7
:1014A000FB03BE016E5C7F4F8BEE92E00E94A803AF
:1014B000CE01C2960E94E1038091BA028F5F8093B1
:1014C000BA02F701118210821382128215821482ED
:1014D000BE01625C7F4FC7010E94A80305C064EB98
:1014E00071E0C7010E94E603CE01CE960E94E1039F
:1014F00010C064EB71E0C7010E94E6030AC010E06F
:10150000DECE10E0D8CE10E0D2CE10E0CCCE10E08F
:1015100048CFCE018C5B9F4F0E94E103CE01865BDA
:101520009F4F0E94E103C701C15BDF4F0FB6F894E4
:10153000DEBF0FBECDBFDF91CF911F910F91FF9006
:10154000EF90DF90CF90BF90AF909F908F900895D5
:10155000CF93DF932091EC012111FCCF2EE020935B
:101560000A012AE120930B01DC0140E050E080E316
:101570009AE7BD01ED912E2F282730E1239FE0014E
:101580001124C2272C2F30E0D22FCC27892F992766
:101590008C2B9D2BE901F4E0D595C795FA95E1F7E1
:1015A0008C279D27C3E0220F331FCA95E1F78227BE
:1015B0009327EA01CE5FDE4FF0E024E0F595E79552
:1015C0002A95E1F7EA59FE4F20812A87FB01208105
:1015D000E22FEF70F0E0EA59FE4F20812B874E5F3B
:1015E0005F4F4632510529F680959095FC0124E025
:1015F000F695E7952A95E1F7EF70FF27EA59FE4F38
:10160000208120933201FC01EF70FF27EA59FE4F41
:10161000208120933301FC01EF2FFF27E295EF702B
:10162000EA59FE4F208120933401E92FFF27EF7004
:10163000FF27EA59FE4F80818093350184E3809330
:10164000ED011092EB011092EA011092E901609114
:10165000E801C1E06C27809101010E94B804C093A9
:10166000EC0181E0DF91CF910895CF93DF93CDB767
:10167000DEB76A970FB6F894DEBF0FBECDBF789481
:1016800084B5826084BD84B5816084BD85B5826087
:1016900085BD85B5816085BD80916E008160809338
:1016A0006E001092810080918100826080938100A1
:1016B00080918100816080938100809180008160B1
:1016C000809380008091B10084608093B10080910C
:1016D000B00081608093B00080917A008460809334
:1016E0007A0080917A00826080937A0080917A00FB
:1016F000816080937A0080917A00806880937A007C
:101700001092C10061E08DE00E945C02E091220233
:10171000F091230282E08083E0911E02F0911F028B
:101720001082E0912002F09121028FEC80831092D0
:101730002A02E0912602F091270286E08083E09160
:101740002402F0912502808180618083E09124024F
:10175000F0912502808188608083E0912402F091DD
:101760002502808180688083E0912402F091250227
:1017700080818F7D80838091B602809301011092D9
:10178000E8018091B502809300018091B7029091A9
:10179000B8020E94E8048091E001811105C081E057
:1017A0008093E0011092DF018091B00280930101EB
:1017B0001092E8018091AF02809300018091B10204
:1017C0009091B2020E94E80438E0F32E8091E70184
:1017D000823071F41092E7011092E1011092E2015F
:1017E0001092E3011092E4011092E5011092E601DB
:1017F0008091E70190E0FC01EF51FE4F2081211123
:1018000031C1880F991FFC01E65AFE4FC080D1807C
:1018100040E050E060E87FE3C6010E94BD02E1E9DC
:10182000F1E0DE0153968F2D01900D928A95E1F73C
:1018300068E871E0CE0101960E941516B601CE014E
:1018400001960E9401166CE871E0CE0101960E949B
:1018500001166BE871E0CE0101960E9401168E011F
:101860000D5E1F4F22E047E060E070E0CB010E9478
:10187000CE0DB801CE0101960E94011667E971E014
:10188000CE0101960E94011667E971E0CE01019632
:101890000E9401166EE871E0CE0101960E940116C9
:1018A000CE0101960E94A80A8091EC018111FCCF23
:1018B00040E050E0BA01C6010E94BD0203E010E022
:1018C000E091E701F0E0EE0FFF1FE65AFE4FC08007
:1018D000D18064EB71E0CE0143960E94E603CE0115
:1018E00001960E944E07BE016F5F7F4FCE01439667
:1018F0000E94A803CE0101960E94E10369E971E00C
:10190000CE0143960E941703B12C882309F49AC094
:10191000CE0101960E944E07BE016F5F7F4FCE0140
:1019200043960E94A803CE0101960E94E10364EB56
:1019300071E0CE0143960E941703811172C01A8292
:1019400019821C821B821E821D826091C1027091CD
:10195000C2026115710541F04091C5025091C60265
:10196000CE0101960E943603B601CE0101960E9477
:101970001703A82ECE0101960E94E103AA2009F4C4
:1019800050C04F89588D6B897C8982E192E00E941A
:10199000290142E050E062EB71E082E192E00E94B6
:1019A000290165EB71E0CE0143960E94170388235D
:1019B000C1F161E08DE00E94B8040E9498022B0101
:1019C0003C0184EF882E99249394A12CB12C0E9481
:1019D0009802DC01CB0184199509A609B709883E54
:1019E0009340A105B10558F021E0821A9108A108A1
:1019F000B10888EE480E83E0581E611C711C8114EA
:101A00009104A104B10419F760E08DE00E94B804CC
:101A1000E091E701F0E0EF51FE4F81E08083BB24CD
:101A2000B39465EB71E0CE0143960E9417038111D8
:101A300009C068EB71E0CE0143960E94170388232A
:101A400009F466CFCE0143960E94E103BB2031F03A
:101A50008091E7018F5F8093E70104C00150110975
:101A600009F02ECF0E942902B1CE8BEE92E00E94A7
:101A7000E10385EE92E00E94E1038FED92E00E9487
:101A8000E10389ED92E00E94E10383ED92E00E9480
:101A9000E1038DEC92E00E94E10387EC92E00E946A
:101AA000E10381EC92E00E94E1038BEB92E00C9465
:101AB000E103E2E1F2E01382128288EE93E0A0E01B
:101AC000B0E084839583A683B7838AE791E091830E
:101AD000808385EC90E09587848784EC90E09787FD
:101AE000868780EC90E0918B808B81EC90E0938BEB
:101AF000828B82EC90E0958B848B86EC90E0978BC8
:101B0000868B118E128E138E148E64EB71E08BEB2C
:101B100092E00E94E60364EB71E081EC92E00E94A7
:101B2000E60364EB71E087EC92E00E94E60364EB6D
:101B300071E08DEC92E00E94E60364EB71E083EDCE
:101B400092E00E94E60364EB71E089ED92E00E946E
:101B5000E60364EB71E08FED92E00E94E60364EB34
:101B600071E085EE92E00E94E60364EB71E08BEE9B
:101B700092E00E94E603E5EBF2E08BE080838DE0EB
:101B8000818384EF91E093838283EFEAF2E02CE09B
:101B9000208322E32183938382830895EF920F931E
:101BA0001F93CF93DF93E80147FD02C034E001C0EB
:101BB00034E1E42F440FFF0BF7FF03C0F195E195EB
:101BC000F109E32E022F2E2FAE010E94F20DCE015D
:101BD000DF91CF911F910F91EF900895662777279E
:101BE0000C94800F4F925F926F927F929F92AF9270
:101BF000BF92CF92DF92EF92FF920F931F93CF93FA
:101C0000DF93CDB7DEB729970FB6F894DEBF0FBECE
:101C1000CDBF6A01122FB02E2BE3201720F0FF2436
:101C2000F394F00E02C0BCE3FB2E0F2D27E0AE01B3
:101C30004F5F5F4F0E94DD10AC018981982F997032
:101C4000913031F0E1FC06C0E0FE06C090E205C034
:101C50009DE203C09BE201C090E0EE2DE07183FFA6
:101C60003CC0911102C083E001C084E0811718F4E8
:101C7000212F281B01C020E0E1110BC0F601822FAB
:101C800030E2882319F031938150FBCFC20ED11C72
:101C900020E0992329F0D6019C93F60131966F013B
:101CA000C6010396E2FE0AC03EE4D6013C9341E43D
:101CB00011964C93119712963C9306C03EE6F6019E
:101CC000308341E641833283FC01322F40E23323EB
:101CD00009F442C041933150FACF82FF44C09111C0
:101CE00002C083E001C084E0811718F4212F281B73
:101CF00001C020E0E1110BC0F601822F30E2882301
:101D000019F031938150FBCFC20ED11C20E09923F2
:101D100029F0D6019C93F60131966F01C601039616
:101D2000E2FE0BC039E4D6013C933EE411963C93AD
:101D3000119736E412963C9307C039E6F6013083DA
:101D40003EE6318336E63283FC01322F40E2332314
:101D500019F041933150FBCFFC01E20FF11D1082CD
:101D60008EEF9FEFB7C0F1E0911101C0F0E06F2F4F
:101D700070E01416150624F49A012F5F3F4F02C03D
:101D800021E030E0260F371FBB2029F06B2D70E0DB
:101D90006F5F7F4F02C060E070E0260F371F612F3A
:101DA00070E0261737071CF4121B212F01C020E01A
:101DB0003E2D387159F4D601322F60E2332319F0E9
:101DC0006D933150FBCFC20ED11C20E0FF2331F0C8
:101DD000D6019C93B6016F5F7F4F6B01E1110BC081
:101DE000F601922F30E3992319F031939150FBCFF4
:101DF000C20ED11C20E09F2D940F3A81782F707174
:101E0000A72E84FF03C0313309F49150191624F42E
:101E1000993018F098E001C091E0E42F852F57FF2A
:101E200002C0E0E080E06E2F782FE0E0F0E0AEE26C
:101E30009A2E3A01691A71082A01461A570A0B2D7F
:101E400010E01195019511096F3F8FEF780729F484
:101E5000D6019C92C60101966C014617570784F083
:101E6000661677066CF47F01E40CF51CA1E0B0E087
:101E7000AC0FBD1FEA0EFB1ED7011196BC9002C02D
:101E800090E3B92E615071093196C60101967C012B
:101E90006017710724F0D601BC926C01D5CF64178E
:101EA000750741F4363320F4353321F4A11002C014
:101EB00081E3B82EF601B082F701822F90E28823E9
:101EC00019F091938150FBCFF701E20FF11D1082C1
:101ED00080E090E029960FB6F894DEBF0FBECDBF2C
:101EE000DF91CF911F910F91FF90EF90DF90CF90F6
:101EF000BF90AF909F907F906F905F904F900895AC
:101F0000A0E0B0E0E6E8FFE00C940C13EC017B01EC
:101F10006115710519F0DB018D939C938E010F5FA4
:101F20001F4F7880872D90E00E94B511892B11F00A
:101F3000E801F4CFBDE27B1205C00F5F1F4F79802F
:101F4000C1E008C0EBE27E1204C08E010E5F1F4F9D
:101F50007980C0E06801F1E0CF1AD10843E050E099
:101F600060E770E0C6010E94BE11892BF1F46801A0
:101F700022E0C20ED11C45E050E06BE670E0C601E5
:101F80000E94BE11892B21F4680187E0C80ED11C84
:101F9000E114F10419F0D701CD92DC92C111FFC018
:101FA00060E070E080E89FE703C143E050E068E64E
:101FB00070E0C6010E94BE11892B51F4E114F104B6
:101FC00009F4F2C00E5F1F4FF70111830083ECC0CC
:101FD000680160E070E0CB0100E010E0F601D0EDB8
:101FE000D70DDA3058F52C2F2260622E2C2F287056
:101FF000C2FF05C0211128C00F5F1F4F25C022233B
:1020000011F001501109A5E0B0E09B01AC010E9464
:10201000FD124B015C01880C991CAA1CBB1CC5015C
:10202000B4016D0F711D811D911D6839A9E97A07F1
:102030008A07A9E19A0740F0C66005C0DE3F51F467
:10204000C3FD44C0C8606C2EBFEFCB1ADB0A7080A2
:10205000C62DC4CF2D2F2F7D2531C1F540814D32A6
:1020600011F4C06106C04B3221F0319621E030E01E
:1020700006C03296D60111964C9122E030E0A0EDD8
:10208000A40FAA3018F0E21BF30B20C040E050E090
:102090004038BCE05B075CF49A01220F331F220F2B
:1020A000331F420F531F440F551F4A0F511D3196C6
:1020B000DF0111972C91A0EDA20FAA3048F3C4FFC5
:1020C00003C0519541955109040F151FC1FF07C069
:1020D000E114F10421F03197D701ED93FC930E94B4
:1020E000DB11C370C33019F06B017C0106C06B01BA
:1020F0007C01F7FAF094F7F8F09420E030E0A901C1
:10210000C701B6010E94D611882309F445C017FF04
:1021100006C0119501951109C7E8D0E002C0CFE9CA
:10212000D0E05E01B8E1AB1AB1084601BE2DAF2D7B
:1021300090E2E92EF12C0E151F0584F0FE01259189
:10214000359145915491B4018B2F9A2F0E943C12E6
:102150004B01B82FA92F0E191F09EDCF2497F59425
:10216000E794CA15DB0539F76401EB2EFA2E8E2DA4
:10217000880F8F2D881F8F3F49F020E030E0A901A4
:10218000C701B6010E94D611811106C082E290E01B
:102190009093F2028093F102C701B60109C060E09A
:1021A00070E080E89FEF04C060E070E080EC9FE7A3
:1021B000CDB7DEB7EEE00C942813283008F027E006
:1021C0003327DA01990F311D87FD91600096610573
:1021D000710539F432602E5F3D9330E32A95E1F7C3
:1021E00008959F3F30F080387105610509F03C5F2C
:1021F0003C5F3D93913008F08068911DDF93CF9351
:102200001F930F93FF92EF92192F987F9695E92FC6
:1022100096959695E90FFF27E350FF4F99273327AF
:10222000EE24FF24A701E70105900894079428F401
:10223000360FE71EF81E491F511D660F771F881FB6
:10224000991F0694A1F70590079428F4E70EF81E4D
:10225000491F561FC11D770F881F991F661F0694BF
:10226000A1F70590079428F4F80E491F561FC71FC1
:10227000D11D880F991F661F771F0694A1F705903F
:10228000079420F4490F561FC71FD81F990F661FC8
:10229000771F881F0694A9F784911095177041F055
:1022A000D695C79557954795F794E7941A95C1F732
:1022B000E3EAF0E068941590159135916591959158
:1022C00005907FE27395E118F10A430B560BC90B99
:1022D000D009C0F7E10CF11E431F561FC91FD01DC6
:1022E0007EF4703311F48A95E6CFE894015030F013
:1022F000080F0AF40027021708F4202F2395022F55
:102300007A3328F079E37D932A95E9F710C07D931D
:102310002A9589F60694979567953795179517949A
:10232000E118F10A430B560BC90BD00998F023951D
:102330007E9173957A3308F070E37C932013B8F79D
:102340007E9170617D9330F0839571E37D9370E3AE
:102350002A95E1F71124EF90FF900F911F91CF91F3
:10236000DF91992787FD9095089591110C94A912FA
:10237000803219F089508550C8F70895FB01DC01BF
:102380004150504088F08D9181341CF08B350CF415
:10239000805E659161341CF06B350CF4605E861BC9
:1023A000611171F3990B0895881BFCCF0E941812DC
:1023B00008F481E00895E89409C097FB3EF49095F5
:1023C0008095709561957F4F8F4F9F4F9923A9F00E
:1023D000F92F96E9BB279395F6958795779567959D
:1023E000B795F111F8CFFAF4BB0F11F460FF1BC0E1
:1023F0006F5F7F4F8F4F9F4F16C0882311F096E974
:1024000011C0772321F09EE8872F762F05C0662321
:1024100071F096E8862F70E060E02AF09A95660FDA
:10242000771F881FDAF7880F9695879597F9089593
:10243000990F0008550FAA0BE0E8FEEF16161706D5
:10244000E807F907C0F012161306E407F50798F03D
:10245000621B730B840B950B39F40A2661F0232B56
:10246000242B252B21F408950A2609F4A140A695D2
:102470008FEF811D811D08950E944F120C94C3128D
:102480000E94B51238F00E94BC1220F0952311F082
:102490000C94AC120C94B21211240C94F7120E94FA
:1024A000D41270F3959FC1F3950F50E0551F629FB2
:1024B000F001729FBB27F00DB11D639FAA27F00D9D
:1024C000B11DAA1F649F6627B00DA11D661F829FC4
:1024D0002227B00DA11D621F739FB00DA11D621FA9
:1024E000839FA00D611D221F749F3327A00D611DC6
:1024F000231F849F600D211D822F762F6A2F1124A8
:102500009F5750409AF0F1F088234AF0EE0FFF1FDA
:10251000BB1F661F771F881F91505040A9F79E3F31
:10252000510580F00C94AC120C94F7125F3FE4F369
:10253000983ED4F3869577956795B795F795E79587
:102540009F5FC1F7FE2B880F911D9695879597F990
:10255000089599278827089597F99F6780E870E084
:1025600060E008959FEF80EC089500240A94161609
:10257000170618060906089500240A941216130671
:10258000140605060895092E0394000C11F48823FF
:1025900052F0BB0F40F4BF2B11F460FF04C06F5F1B
:1025A0007F4F8F4F9F4F089557FD9058440F551FF1
:1025B00059F05F3F71F04795880F97FB991F61F0C5
:1025C0009F3F79F087950895121613061406551F3C
:1025D000F2CF4695F1DF08C0161617061806991FA8
:1025E000F1CF86957105610508940895E894BB279D
:1025F00066277727CB0197F908950E943F13A59F7F
:10260000900DB49F900DA49F800D911D11240895ED
:102610002F923F924F925F926F927F928F929F92F2
:10262000AF92BF92CF92DF92EF92FF920F931F93E0
:10263000CF93DF93CDB7DEB7CA1BDB0B0FB6F89491
:10264000DEBF0FBECDBF09942A88398848885F84D1
:102650006E847D848C849B84AA84B984C884DF8042
:10266000EE80FD800C811B81AA81B981CE0FD11D26
:102670000FB6F894DEBF0FBECDBFED010895A29F47
:10268000B001B39FC001A39F700D811D1124911D46
:10269000B29F700D811D1124911D08950E94621337
:1026A0000C94C3120E94BC1258F00E94B51240F064
:1026B00029F45F3F29F00C94AC1251110C94F712DD
:1026C0000C94B2120E94D41268F39923B1F35523EB
:1026D00091F3951B550BBB27AA2762177307840735
:1026E00038F09F5F5F4F220F331F441FAA1FA9F3CB
:1026F00035D00E2E3AF0E0E832D091505040E695B9
:10270000001CCAF72BD0FE2F29D0660F771F881F19
:10271000BB1F261737074807AB07B0E809F0BB0B0C
:10272000802DBF01FF2793585F4F3AF09E3F510520
:1027300078F00C94AC120C94F7125F3FE4F3983EDF
:10274000D4F3869577956795B795F7959F5FC9F709
:10275000880F911D9695879597F90895E1E0660F8A
:10276000771F881FBB1F621773078407BA0720F003
:10277000621B730B840BBA0BEE1F88F7E09508956C
:102780000E94C7136894B1110C94F71208950E9427
:10279000DC1288F09F5798F0B92F9927B751B0F005
:1027A000E1F0660F771F881F991F1AF0BA95C9F7D5
:1027B00014C0B13091F00E94F612B1E008950C946B
:1027C000F612672F782F8827B85F39F0B93FCCF31E
:1027D000869577956795B395D9F73EF49095809552
:1027E000709561957F4F8F4F9F4F0895EE0FFF1F9C
:1027F0000590F491E02D0994CF93DF9382309105F9
:1028000010F482E090E0E091F502F091F60220E011
:1028100030E0C0E0D0E0309711F14081518148179D
:102820005907C0F04817590761F4828193812097B6
:1028300019F09B838A832BC09093F6028093F50254
:1028400026C02115310519F04217530718F49A01D3
:10285000BE01DF01EF010280F381E02DDCCF211505
:10286000310509F1281B390B2430310590F41296FB
:102870008D919C9113976115710521F0FB01938354
:10288000828304C09093F6028093F502FD01329694
:1028900044C0FD01E20FF31F81939193225031094F
:1028A0002D933C933AC02091F3023091F402232BF4
:1028B00041F420914801309149013093F402209372
:1028C000F30220914601309147012115310541F471
:1028D0002DB73EB740914A0150914B01241B350B57
:1028E000E091F302F091F402E217F307A0F42E1B3B
:1028F0003F0B2817390778F0AC014E5F5F4F241764
:10290000350748F04E0F5F1F5093F4024093F302D7
:102910008193919302C0E0E0F0E0CF01DF91CF918D
:1029200008950F931F93CF93DF93009709F48CC002
:10293000FC013297138212820091F5021091F60287
:102940000115110581F420813181820F931F20919F
:10295000F3023091F4022817390779F5F093F40265
:10296000E093F30271C0D80140E050E0AE17BF071A
:1029700050F412962D913C911397AD01211531051C
:1029800009F1D901F3CF9D01DA01338322836081FC
:102990007181860F971F8217930769F4EC012881D4
:1029A0003981260F371F2E5F3F4F318320838A8165
:1029B0009B8193838283452B29F4F093F602E09365
:1029C000F50242C01396FC93EE931297ED014991E4
:1029D00059919E01240F351FE217F30771F480818E
:1029E0009181840F951F029611969C938E938281FC
:1029F000938113969C938E931297E0E0F0E0D801B8
:102A000012968D919C911397009719F0F8018C0103
:102A1000F6CF8D919C9198012E5F3F4F820F931FAF
:102A20002091F3023091F4022817390769F43097A6
:102A300029F41092F6021092F50202C0138212825B
:102A40001093F4020093F302DF91CF911F910F9145
:102A50000895A0E0B0E0EFE2F5E10C940C13EC0176
:102A6000009721F4CB010E94FC13B8C0FC01E60FD3
:102A7000F71F9C0122503109E217F30708F4ACC09C
:102A8000D9010D911C91119706171707B0F0053069
:102A9000110508F49FC0C80104978617970708F42A
:102AA00099C002501109061B170B019311936D93E6
:102AB0007C93CF010E9491148DC05B01A01AB10AD2
:102AC0004C01800E911EA091F502B091F60240E0FB
:102AD00050E0E12CF12C109709F44AC0A815B90573
:102AE000D1F56D907C901197630182E0C80ED11CE6
:102AF000CA14DB0480F1A3014A195B096A0182E070
:102B0000C80ED11C1296BC9012971396AC91B5E0EA
:102B1000CB16D10440F0B282A38351834083D90104
:102B20006D937C930AC00E5F1F4FC301800F911FEE
:102B3000F90191838083EB2DFA2FE114F10431F038
:102B4000D7011396FC93EE93129744C0F093F602CC
:102B5000E093F5023FC08D919C911197481759075A
:102B600008F4AC017D0112960D90BC91A02DB3CF5D
:102B70008091F3029091F40288159905E1F44617CB
:102B80005707C8F48091460190914701009741F49E
:102B90008DB79EB740914A0150914B01841B950B14
:102BA000E817F907C8F4F093F402E093F302F9018F
:102BB000718360830FC0CB010E94FC137C010097DE
:102BC00059F0A801BE010E94F815CE010E9491148F
:102BD000C70104C0CE0102C080E090E0CDB7DEB7EF
:102BE000EEE00C94281381E090E0F8940C941C160D
:102BF000FB01DC0102C001900D9241505040D8F71A
:102C00000895FB01DC010D900020E9F71197019078
:102C10000D920020E1F70895FB01DC018D910190F8
:102C200080190110D9F3990B0895FB01DC01019083
:102C30000D920020E1F7089510E0CDEFD0E004C040
:102C4000FE010E94F6132196CE3FD107C9F7F894F2
:022C5000FFCFB4
:102C52000C0A2A2A2A2A2A2A382C000000000000FC
:102C62000000000000000000000000000000000062
:102C72000000000000000000000000000000000052
:102C82000000000000000000000000000000000042
:102C92000000000000000000F702800000000100B8
:102CA2000800400000010004050DBB01BE01C10186
:102CB200C401C701CA010D0E131516191A1C2325CA
:102CC20026292A2C323400000000C00129015801B3
:102CD2000702890167017B012A2300585800232A31
:102CE20000303030302E303000696E6974206465F7
:102CF20076696365207472616E736D697373696F4F
:102D02006E000D0A004F4B004B4F00423000423123
:0E2D12000042320042330042340042350000DD
:107800000C94343C0C94513C0C94513C0C94513CE1
:107810000C94513C0C94513C0C94513C0C94513CB4
:107820000C94513C0C94513C0C94513C0C94513CA4
:107830000C94513C0C94513C0C94513C0C94513C94
:107840000C94513C0C94513C0C94513C0C94513C84
:107850000C94513C0C94513C0C94513C0C94513C74
:107860000C94513C0C94513C11241FBECFEFD8E036
:10787000DEBFCDBF11E0A0E0B1E0ECE9FFE702C060
:1078800005900D92A230B107D9F712E0A2E0B1E065
:1078900001C01D92AD30B107E1F70E942D3D0C945F
:1078A000CC3F0C94003C982F959595959595959582
:1078B000905D8F708A307CF0282F295A8091C0000B
:1078C00085FFFCCF9093C6008091C00085FFFCCF60
:1078D0002093C6000895282F205DF0CF982F809127
:1078E000C00085FFFCCF9093C6000895EF92FF92F1
:1078F0000F931F93EE24FF2487018091C00087FD22
:1079000017C00894E11CF11C011D111D81E4E8164B
:1079100082E4F8068FE0080780E0180770F3E09132
:107920000401F091050109958091C00087FFE9CF1E
:107930008091C6001F910F91FF90EF9008950E94D3
:10794000763C982F8091C00085FFFCCF9093C600B5
:1079500091362CF490330CF09053892F089597555D
:10796000892F08951F930E949F3C182F0E949F3CCF
:107970001295107F810F1F9108951F93182F882350
:1079800021F00E94763C1150E1F71F9108951F935A
:10799000182F0E94763C803249F0809103018F5F5E
:1079A000809303018530C1F01F9108958091C0003C
:1079B00085FFFCCF84E18093C6008091C00085FFE5
:1079C000FCCF1093C6008091C00085FFFCCF80E102
:1079D0008093C6001F910895E0910401F091050184
:1079E00009951F9108950E94763C803241F0809164
:1079F00003018F5F80930301853081F008958091AA
:107A0000C00085FFFCCF84E18093C6008091C00058
:107A100085FFFCCF80E18093C6000895E0910401CA
:107A2000F09105010995089540E951E08823A1F0FE
:107A30002D9A28EE33E0FA013197F1F721503040CA
:107A4000D1F72D9828EE33E0FA013197F1F7215064
:107A50003040D1F7815061F708953F924F925F9285
:107A60006F927F928F929F92AF92BF92CF92DF924E
:107A7000EF92FF920F931F93CF93DF93000080E16B
:107A80008093C4001092C50088E18093C10086E015
:107A90008093C2005098589A259A81E00E94143D24
:107AA00024E1F22E9EE1E92E85E9D82E0FE0C02ECA
:107AB00010E1B12EAA24A394B1E49B2EA6E58A2E50
:107AC000F2E57F2EE0E26E2E79E4572E63E5462E36
:107AD00050E5352E0E94763C8033B1F18133B9F107
:107AE000803409F46FC0813409F476C0823409F41B
:107AF00085C0853409F488C0803531F1823521F1A3
:107B0000813511F1853509F485C0863509F48DC0BC
:107B1000843609F496C0843709F403C1853709F423
:107B200072C1863709F466C0809103018F5F80932C
:107B30000301853079F6E0910401F0910501099582
:107B40000E94763C803351F60E94F33CC3CF0E94E2
:107B5000763C803249F78091C00085FFFCCFF092DF
:107B6000C6008091C00085FFFCCF9092C600809136
:107B7000C00085FFFCCF8092C6008091C00085FFC9
:107B8000FCCF7092C6008091C00085FFFCCF609250
:107B9000C6008091C00085FFFCCF5092C600809146
:107BA000C00085FFFCCF4092C6008091C00085FFD9
:107BB000FCCF3092C6008091C00085FFFCCFB09210
:107BC000C60088CF0E94763C863808F4BDCF0E945C
:107BD000763C0E94F33C7ECF0E94763C803809F4CC
:107BE0009CC0813809F40BC1823809F43CC1883942
:107BF00009F48FC080E00E94C73C6CCF84E10E94F2
:107C0000BD3C0E94F33C66CF85E00E94BD3C0E94D3
:107C1000F33C60CF0E94763C809306010E94763C44
:107C2000809307010E94F33C55CF0E94763C80333D
:107C300009F41DC183E00E94BD3C80E00E94C73C66
:107C400049CF0E94763C809309020E94763C809343
:107C5000080280910C028E7F80930C020E94763C79
:107C6000853409F415C18091080290910902892B8D
:107C700089F000E010E00E94763CF801E85FFE4FDA
:107C800080830F5F1F4F80910802909109020817AF
:107C9000190788F30E94763C803209F045CF809125
:107CA0000C0280FF01C16091060170910701660F0F
:107CB000771F7093070160930601A0910802B091AD
:107CC00009021097C9F0E8E0F1E09B01AD014E0F09
:107CD0005F1FF999FECF32BD21BD819180BDFA9A17
:107CE000F99A2F5F3F4FE417F50799F76A0F7B1F4B
:107CF00070930701609306018091C00085FFFCCF5F
:107D0000F092C6008091C00085FFFCCFB092C60003
:107D1000E1CE83E00E94C73CDDCE82E00E94C73CFA
:107D2000D9CE0E94763C809309020E94763C8093D3
:107D300008028091060190910701880F991F909386
:107D40000701809306010E94763C853409F4A6C0A1
:107D500080910C028E7F80930C020E94763C8032D0
:107D600009F0B8CE8091C00085FFFCCFF092C6002C
:107D7000609108027091090261157105B9F140E046
:107D800050E080910C02A82FA170B82FB27011C0E2
:107D9000BB2309F45CC0E0910601F0910701319624
:107DA000F0930701E09306014F5F5F4F46175707B7
:107DB000E8F4AA2369F3F999FECF209106013091E6
:107DC000070132BD21BDF89A90B58091C00085FFB2
:107DD000FCCF9093C6002F5F3F4F30930701209355
:107DE00006014F5F5F4F4617570718F38091C00099
:107DF00085FDE5CE8091C00085FFF8CFE0CE81E023
:107E00000E94C73C67CE0E94763C803209F08CCE3F
:107E10008091C00085FFFCCFF092C6008091C00029
:107E200085FFFCCFE092C6008091C00085FFFCCFAB
:107E3000D092C6008091C00085FFFCCFC092C600E2
:107E40008091C00085FFFCCFB092C60043CEE09188
:107E50000601F091070194918091C00085FFFCCF4D
:107E60009093C6009CCF80E10E94C73C33CE0E9415
:107E7000763C0E94763C182F0E94763C112309F430
:107E800083C0113009F484C08FE00E94C73C22CE29
:107E900080910C02816080930C02E5CE80910C02EF
:107EA000816080930C0259CF809107018823880F4D
:107EB000880B8A2180930B02809106019091070123
:107EC000880F991F90930701809306018091080203
:107ED00080FF09C080910802909109020196909359
:107EE000090280930802F894F999FECF1127E091D6
:107EF0000601F0910701C8E0D1E08091080290915D
:107F00000902103091F40091570001700130D9F34B
:107F100003E000935700E89500915700017001308D
:107F2000D9F301E100935700E89509901990009169
:107F3000570001700130D9F301E000935700E89534
:107F40001395103498F011270091570001700130FB
:107F5000D9F305E000935700E895009157000170B0
:107F60000130D9F301E100935700E895329602976A
:107F700009F0C7CF103011F00296E5CF112480919F
:107F8000C00085FFB9CEBCCE8EE10E94C73CA2CD19
:0C7F900085E90E94C73C9ECDF894FFCF0D
:027F9C00800063
:040000030000780081
:00000001FF