:100000000C9463000C948B000C948B000C948B006C
:100010000C948B000C948B000C948B000C948B0034
:100020000C948B000C948B000C948B000C94690442
:100030000C948B000C948B000C948B000C948B0014
:100040000C941F040C948B000C94ED030C94C703C8
:100050000C948B000C948B000C948B000C948B00F4
:100060000C948B000C948B000000000024002700EF
:100070002A0000000000250028002B0000000000DE
:1000800023002600290004040404040404040202DA
:100090000202020203030303030301020408102007
:1000A0004080010204081020010204081020000012
:1000B0000008000201000003040700000000000027
:1000C00000007605D80611241FBECFEFD8E0DEBFB2
:1000D000CDBF22E0A2E4B1E001C01D92AF35B2076E
:1000E000E1F711E0A0E0B1E0EEE2F6E102C0059038
:1000F0000D92A234B107D9F710E0C2E6D0E004C0F7
:100100002197FE010E94F808C136D107C9F70E9465
:10011000EB050C940A0B0C940000CF92DF92EF9247
:10012000FF920F931F93CF93DF936C017A018B01A2
:10013000C0E0D0E0CE15DF0589F0D8016D918D01CA
:10014000D601ED91FC910190F081E02DC601099559
:10015000892B11F47E0102C02196ECCFC701DF91FB
:10016000CF911F910F91FF90EF90DF90CF90089566
:10017000089580E090E00895FC01538D448D252F73
:1001800030E0842F90E0821B930B541710F0CF9631
:10019000089501970895FC01918D828D981761F063
:1001A000828DDF01A80FB11D5D968C91928D9F5FAE
:1001B0009F73928F90E008958FEF9FEF0895FC0159
:1001C000918D828D981731F0828DE80FF11D858D0C
:1001D00090E008958FEF9FEF0895FC01918D228D9F
:1001E000892F90E0805C9F4F821B91098F73992724
:1001F00008958CE791E00E94ED0021E0892B09F43D
:1002000020E0822F0895FC01848DDF01A80FB11D2D
:10021000A35ABF4F2C91848D90E001968F7399273C
:10022000848FA689B7892C93A089B1898C91806429
:100230008C93938D848D981306C00288F389E02DEA
:1002400080818F7D80830895EF92FF920F931F939B
:10025000CF93DF93EC0181E0888F9B8D8C8D981379
:1002600005C0E889F989808185FD24C0F62E0B8DB3
:1002700010E00F5F1F4F0F731127E02E8C8DE812D7
:100280000CC00FB607FCFACFE889F989808185FF99
:10029000F5CFCE010E940301F1CF8B8DFE01E80F57
:1002A000F11DE35AFF4FF0820B8FEA89FB898081B1
:1002B000806207C0EE89FF896083E889F9898081BF
:1002C0008064808381E090E0DF91CF911F910F9156
:1002D000FF90EF900895CF93DF93EC01888D8823F2
:1002E000C9F0EA89FB89808185FD05C0A889B989A3
:1002F0008C9186FD0FC00FB607FCF5CF808185FF7E
:10030000F2CFA889B9898C9185FFEDCFCE010E94EB
:100310000301E7CFDF91CF91089580E090E0892B32
:1003200029F00E94F90081110C9400000895833097
:1003300081F028F4813099F08230A1F0089587305F
:10034000A9F08830B9F08430D1F4809180008F7D9D
:1003500003C0809180008F7780938000089584B5DA
:100360008F7702C084B58F7D84BD08958091B000E1
:100370008F7703C08091B0008F7D8093B000089587
:10038000CF93DF93282F30E0F901E255FF4F84919E
:10039000F901E656FF4FD491F901EA57FF4FC49196
:1003A000CC2391F081110E949701EC2FF0E0EE0F29
:1003B000FF1FE458FF4FA591B491EC91ED2381E02C
:1003C00090E021F480E002C080E090E0DF91CF91E6
:1003D00008951F93CF93DF93282F30E0F901E25562
:1003E000FF4F8491F901E656FF4FD491F901EA5786
:1003F000FF4FC491CC23C9F0162F81110E949701A1
:10040000EC2FF0E0EE0FFF1FEE58FF4FA591B491D7
:100410008FB7F894111105C09C91ED2FE095E92359
:1004200002C0EC91ED2BEC938FBFDF91CF911F9128
:100430000895CF93DF9390E0FC01E656FF4F24919F
:10044000FC01EA57FF4F8491882361F190E0880F07
:10045000991FFC01E859FF4FC591D491FC01EE585A
:10046000FF4FA591B491611109C09FB7F89488819D
:10047000209582238883EC912E230BC0623061F497
:100480009FB7F8943881822F809583238883EC91DD
:100490002E2B2C939FBF06C08FB7F894E8812E2B8C
:1004A00028838FBFDF91CF9108954F925F926F9213
:1004B0007F928F929F92AF92BF92EF92FF921F9383
:1004C000CF93DF93CDB7DEB72E970FB6F894DEBF8C
:1004D0000FBECDBF2EE0E8E0F1E0DE011196019005
:1004E0000D922A95E1F7009709F497C0BC0180E0CE
:1004F00090E00E94FC069B01AC0160E070E080E8A7
:100500009FE30E942E0820E030E040E05EE30E947E
:1005100039074B015C017E0123E0E20EF11C11E082
:10052000F701819191917F01BC0180E090E00E94F0
:10053000FC069B01AC0160E074E284E79BE40E944E
:100540002E089B01AC0160E070E080E89FE30E9410
:100550002E089B01AC01C501B4010E942E080E9427
:10056000A0082B013C01F2E04F1A51086108710804
:100570002DEF42162FEF52066104710408F44BC0B0
:100580001F5F173069F6623071058105910508F427
:1005900044C061157105E1E08E079105F0F5112366
:1005A000E1F11092800028E02093810020918100E9
:1005B000122B1093810070938900609388008091C2
:1005C0006F00826080936F0061E0809100010E9463
:1005D000190260E08BE00E9419021091010161E0B4
:1005E000812F0E94190260917B01812F2E960FB6F8
:1005F000F894DEBF0FBECDBFDF91CF911F91FF906A
:10060000EF90BF90AF909F908F907F906F905F9092
:100610004F900C94E901163011F62E960FB6F8940F
:10062000DEBF0FBECDBFDF91CF911F91FF90EF9046
:10063000BF90AF909F908F907F906F905F904F9002
:100640000895009769F0FC0101900020E9F73197C7
:10065000AF01481B590BBC018CE791E00C948D0055
:1006600080E090E008958F929F92AF92BF920F9397
:100670001F93CF93DF93CDB7DEB7A1970FB6F89452
:10068000DEBF0FBECDBF19A2423008F44AE08E0192
:100690000F5D1F4F842E912CA12CB12CA50194012C
:1006A0000E94D608E62FB901CA0101501109EA30AB
:1006B00014F4E05D01C0E95CD801EC93232B242BFA
:1006C000252B61F7C8010E942103A1960FB6F8946B
:1006D000DEBF0FBECDBFDF91CF911F910F91BF90B5
:1006E000AF909F908F9008950E94F50AFC01808141
:1006F00091810C949309EF92FF920F931F93CF93E4
:10070000DF93EC01198218821B821A821D821C82DF
:1007100061157105A9F17B01FB0101900020E9F74A
:1007200031978F01061B170BB8016F5F7F4F80E079
:1007300090E00E942B0A009759F0998388831B83CD
:100740000A832C813D81232B81F4FC0110820DC092
:1007500088819981009711F00E949309198218826B
:100760001D821C821B821A820BC01D830C83B70161
:10077000DF91CF911F910F91FF90EF900C94030B9D
:10078000DF91CF911F910F91FF90EF9008951F92ED
:100790000F920FB60F9211242F933F934F935F93B5
:1007A0006F937F938F939F93AF93BF93EF93FF9339
:1007B0008CE791E00E940301FF91EF91BF91AF910F
:1007C0009F918F917F916F915F914F913F912F9169
:1007D0000F900FBE0F901F9018951F920F920FB69B
:1007E0000F9211242F938F939F93EF93FF93E09198
:1007F0008C01F0918D018081E0919201F091930143
:1008000082FD12C09081809195018F5F8F7320913E
:100810009601821751F0E0919501F0E0E458FE4F07
:10082000958F8093950101C08081FF91EF919F91F9
:100830008F912F910F900FBE0F901F9018951F92C0
:100840000F920FB60F9211242F933F938F939F9384
:10085000AF93BF938091750190917601A09177013C
:10086000B09178013091740123E0230F2D3720F4EB
:100870000196A11DB11D05C026E8230F0296A11DFA
:10088000B11D209374018093750190937601A0931C
:100890007701B09378018091700190917101A091DE
:1008A0007201B09173010196A11DB11D8093700179
:1008B00090937101A0937201B0937301BF91AF91B6
:1008C0009F918F913F912F910F900FBE0F901F908E
:1008D00018951F920F920FB60F9211242F933F93EA
:1008E0004F935F936F937F938F939F93AF93BF9338
:1008F000CF93EF93FF93C0917A01CC2321F08091A5
:100900006F018823D1F080916F01882341F080919D
:100910006D0191E0980F90936D018823A1F0809173
:100920006D01883010F010926D01CC2309F4CCC019
:1009300040916F014423F1F0C7C08BE00E94C001D9
:1009400080936E01E0CF60917B01809101010E9454
:10095000E90160E0809100010E94E90110926F01BD
:1009600080916B0190916C01019690936C01809342
:100970006B01D5CF80916E01882329F090916A0197
:100980009F5F90936A01209169019091680182179D
:1009900059F0903510F02DE101C02BE0920F9093AB
:1009A00068018093690103C09C5E909368019091F7
:1009B0006801903A08F488C020916601309167017F
:1009C00036952795309367012093660180916A01DF
:1009D000853028F038603093670120936601905A83
:1009E0009093680110926A0180917901882309F43B
:1009F0005BC0909165019F5F909365019C3008F406
:100A000063C02091660130916701822F8F73E6E108
:100A1000F1E0DF0190E05D91851721F09F5F90315B
:100A2000D1F790E050E1959FC001112496E03695F2
:100A300027959A95E1F730E05191251721F03F5F16
:100A40003031D1F701C0432F842B90916401911173
:100A50000EC0809363019CEF980F9B3140F0109281
:100A60007901809162018F5F809362012DC0E091D6
:100A7000640191E09E0F90936401F0E0EC5BFE4F07
:100A800080839091640180916301981750F01092D7
:100A90007901809143018F5F8093430181E08093CE
:100AA00042011092650110C080916601909167012A
:100AB00088339B4049F481E080937901109265016D
:100AC0001092640110924201FF91EF91CF91BF917A
:100AD000AF919F918F917F916F915F914F913F91D6
:100AE0002F910F900FBE0F901F901895ECE7F1E03B
:100AF0001382128288EE93E0A0E0B0E084839583B5
:100B0000A683B7838AE291E09183808385EC90E0AD
:100B10009587848784EC90E09787868780EC90E0C7
:100B2000918B808B81EC90E0938B828B82EC90E0B8
:100B3000958B848B86EC90E0978B868B118E128E32
:100B4000138E148E6AE371E085E292E00E947B03CB
:100B50006AE371E08BE292E00E947B036AE371E05A
:100B600081E392E00E947B036AE371E087E392E015
:100B70000E947B036AE371E08DE392E00E947B03B5
:100B80006AE371E083E492E00E947B036AE371E030
:100B900089E492E00E947B036AE371E08FE492E0D3
:100BA0000E947B036AE371E085E592E00E947B038B
:100BB000EFE1F2E08BE080838DE0818384EF91E0D0
:100BC00093838283E9E1F2E02CE0208322E3218316
:100BD000938382830895789484B5826084BD84B5BC
:100BE000816084BD85B5826085BD85B5816085BD28
:100BF00080916E00816080936E00109281008091E0
:100C00008100826080938100809181008160809367
:100C10008100809180008160809380008091B1008C
:100C200084608093B1008091B00081608093B000B7
:100C300080917A00846080937A0080917A0082604B
:100C400080937A0080917A00816080937A0080910D
:100C50007A00806880937A001092C10061E08DE094
:100C60000E941902E0918C01F0918D0182E0808355
:100C7000E0918801F09189011082E0918A01F09160
:100C80008B018FEC808310929401E0919001F091A0
:100C9000910186E08083E0918E01F0918F01808147
:100CA00080618083E0918E01F0918F018081886066
:100CB0008083E0918E01F0918F0180818068808334
:100CC000E0918E01F0918F0180818F7D80838091F2
:100CD00020028093010110927B0180911F0280937A
:100CE000000180912102909122020E945502809180
:100CF0007A01811105C081E080937A011092790117
:100D000080911A0280930101809119028093000161
:100D100080911B0290911C020E94550210E0C0E0DD
:100D2000D0E00C2F0B5F802F0E94C0016C01990F47
:100D3000EE08FF08F7FE14C0E0917C01F0917D0100
:100D40000190F081E02D6DE28CE791E00995662736
:100D50007727CB016C197D098E099F094AE003C0F2
:100D60004AE0C701B6010E94330388E391E00E9484
:100D70002103802F0E94C0010C2E01C0880F0A940D
:100D8000EAF7182B2196C430D10559F68BE391E090
:100D90000E942103612F70E080E090E04AE00E9411
:100DA000330388E391E00E9421030E948D01FDCF6F
:100DB00085E592E00E9476038FE492E00E9476033C
:100DC00089E492E00E94760383E492E00E94760335
:100DD0008DE392E00E94760387E392E00E9476031F
:100DE00081E392E00E9476038BE292E00E94760318
:100DF00085E292E00C947603E89409C097FB3EF4F8
:100E000090958095709561957F4F8F4F9F4F992357
:100E1000A9F0F92F96E9BB279395F69587957795D5
:100E20006795B795F111F8CFFAF4BB0F11F460FF95
:100E30001BC06F5F7F4F8F4F9F4F16C0882311F0ED
:100E400096E911C0772321F09EE8872F762F05C001
:100E5000662371F096E8862F70E060E02AF09A959C
:100E6000660F771F881FDAF7880F9695879597F991
:100E700008950E944C070C94BD070E94AF0738F0FC
:100E80000E94B60720F0952311F00C94A6070C944D
:100E9000AC0711240C94F1070E94CE0770F3959FC4
:100EA000C1F3950F50E0551F629FF001729FBB2761
:100EB000F00DB11D639FAA27F00DB11DAA1F649FFD
:100EC0006627B00DA11D661F829F2227B00DA11DB0
:100ED000621F739FB00DA11D621F839FA00D611D36
:100EE000221F749F3327A00D611D231F849F600D57
:100EF000211D822F762F6A2F11249F5750409AF080
:100F0000F1F088234AF0EE0FFF1FBB1F661F771F0B
:100F1000881F91505040A9F79E3F510580F00C94D6
:100F2000A6070C94F1075F3FE4F3983ED4F386954F
:100F300077956795B795F795E7959F5FC1F7FE2B76
:100F4000880F911D9695879597F9089597F99F6752
:100F500080E870E060E008959FEF80EC0895002441
:100F60000A941616170618060906089500240A940E
:100F700012161306140605060895092E0394000C94
:100F800011F4882352F0BB0F40F4BF2B11F460FF23
:100F900004C06F5F7F4F8F4F9F4F089557FD90584C
:100FA000440F551F59F05F3F71F04795880F97FB2D
:100FB000991F61F09F3F79F08795089512161306E7
:100FC0001406551FF2CF4695F1DF08C01616170616
:100FD0001806991FF1CF869571056105089408954B
:100FE000E894BB2766277727CB0197F908952F92BE
:100FF0003F924F925F926F927F928F929F92AF92A9
:10100000BF92CF92DF92EF92FF920F931F93CF93F5
:10101000DF93CDB7DEB7CA1BDB0B0FB6F894DEBF8C
:101020000FBECDBF09942A88398848885F846E84B2
:101030007D848C849B84AA84B984C884DF80EE80FC
:10104000FD800C811B81AA81B981CE0FD11D0FB605
:10105000F894DEBF0FBECDBFED0108950E94420897
:101060000C94BD070E94B60758F00E94AF0740F0ED
:1010700029F45F3F29F00C94A60751110C94F10755
:101080000C94AC070E94CE0768F39923B1F3552363
:1010900091F3951B550BBB27AA276217730784078B
:1010A00038F09F5F5F4F220F331F441FAA1FA9F321
:1010B00035D00E2E3AF0E0E832D091505040E6950F
:1010C000001CCAF72BD0FE2F29D0660F771F881F70
:1010D000BB1F261737074807AB07B0E809F0BB0B63
:1010E000802DBF01FF2793585F4F3AF09E3F510577
:1010F00078F00C94A6070C94F1075F3FE4F3983E58
:10110000D4F3869577956795B795F7959F5FC9F75F
:10111000880F911D9695879597F90895E1E0660FE0
:10112000771F881FBB1F621773078407BA0720F059
:10113000621B730B840BBA0BEE1F88F7E0950895C2
:101140000E94A7086894B1110C94F10708950E94B9
:10115000D60788F09F5798F0B92F9927B751B0F06C
:10116000E1F0660F771F881F991F1AF0BA95C9F72B
:1011700014C0B13091F00E94F007B1E008950C94D2
:10118000F007672F782F8827B85F39F0B93FCCF385
:10119000869577956795B395D9F73EF490958095A8
:1011A000709561957F4F8F4F9F4F0895A1E21A2E42
:1011B000AA1BBB1BFD010DC0AA1FBB1FEE1FFF1FFB
:1011C000A217B307E407F50720F0A21BB30BE40B4B
:1011D000F50B661F771F881F991F1A9469F7609592
:1011E0007095809590959B01AC01BD01CF0108954C
:1011F000EE0FFF1F0590F491E02D0994CF93DF933C
:101200008230910510F482E090E0E0915D02F0916F
:101210005E0220E030E0C0E0D0E0309711F1408184
:10122000518148175907C0F04817590761F4828166
:101230009381209719F09B838A832BC090935E0241
:1012400080935D0226C02115310519F0421753071E
:1012500018F49A01BE01DF01EF010280F381E02D55
:10126000DCCF2115310509F1281B390B243031055C
:1012700090F412968D919C9113976115710521F050
:10128000FB019383828304C090935E0280935D028E
:10129000FD01329644C0FD01E20FF31F819391934B
:1012A000225031092D933C933AC020915B0230913A
:1012B0005C02232B41F4209104013091050130930D
:1012C0005C0220935B022091020130910301211501
:1012D000310541F42DB73EB7409106015091070109
:1012E000241B350BE0915B02F0915C02E217F307DF
:1012F000A0F42E1B3F0B2817390778F0AC014E5F86
:101300005F4F2417350748F04E0F5F1F50935C0264
:1013100040935B028193919302C0E0E0F0E0CF0143
:10132000DF91CF9108950F931F93CF93DF93009791
:1013300009F48CC0FC0132971382128200915D0285
:1013400010915E020115110581F420813181820F17
:10135000931F20915B0230915C022817390779F5C1
:10136000F0935C02E0935B0271C0D80140E050E072
:10137000AE17BF0750F412962D913C911397AD0113
:101380002115310509F1D901F3CF9D01DA0133832C
:10139000228360817181860F971F8217930769F4FA
:1013A000EC0128813981260F371F2E5F3F4F318393
:1013B00020838A819B8193838283452B29F4F09338
:1013C0005E02E0935D0242C01396FC93EE93129787
:1013D000ED01499159919E01240F351FE217F30742
:1013E00071F480819181840F951F029611969C93D0
:1013F0008E938281938113969C938E931297E0E053
:10140000F0E0D80112968D919C911397009719F0F6
:10141000F8018C01F6CF8D919C9198012E5F3F4F82
:10142000820F931F20915B0230915C0228173907CD
:1014300069F4309729F410925E0210925D0202C0A6
:101440001382128210935C0200935B02DF91CF91B2
:101450001F910F910895A0E0B0E0E1E3FAE00C9451
:10146000FB07EC01009721F4CB010E94FE08B8C0F5
:10147000FC01E60FF71F9C0122503109E217F30728
:1014800008F4ACC0D9010D911C91119706171707EC
:10149000B0F00530110508F49FC0C8010497861705
:1014A000970708F499C002501109061B170B019306
:1014B00011936D937C93CF010E9493098DC05B01C2
:1014C000A01AB10A4C01800E911EA0915D02B0914C
:1014D0005E0240E050E0E12CF12C109709F44AC084
:1014E000A815B905D1F56D907C901197630182E044
:1014F000C80ED11CCA14DB0480F1A3014A195B0990
:101500006A0182E0C80ED11C1296BC901297139605
:10151000AC91B5E0CB16D10440F0B282A3835183E5
:101520004083D9016D937C930AC00E5F1F4FC301A6
:10153000800F911FF90191838083EB2DFA2FE11425
:10154000F10431F0D7011396FC93EE93129744C047
:10155000F0935E02E0935D023FC08D919C911197E4
:101560004817590708F4AC017D0112960D90BC9103
:10157000A02DB3CF80915B0290915C0288159905F4
:10158000E1F446175707C8F48091020190910301D6
:10159000009741F48DB79EB7409106015091070125
:1015A000841B950BE817F907C8F4F0935C02E093ED
:1015B0005B02F901718360830FC0CB010E94FE08BA
:1015C0007C01009759F0A801BE010E94FA0ACE01E1
:1015D0000E949309C70104C0CE0102C080E090E0E0
:1015E000CDB7DEB7EEE00C94170881E090E0F894F8
:1015F0000C940A0BFB01DC0102C001900D924150DA
:101600005040D8F70895FB01DC0101900D920020B5
:10161000E1F7089510E0C2E6D0E004C0FE010E94A8
:0E162000F8082196C336D107C9F7F894FFCF1A
:10162E000C0A00005F02800000000100080040006C
:10163E0000010004050D0D0E131516191A1C232595
:10164E0026292A2C32340000000024018D00BC0013
:10165E006B01ED00CB00DF000D0A004461746F20BA
:02166E003A0040
:00000001FF
